:1000000002C1000031C100002FC100002DC100005D
:100010002BC1000029C1000027C1000025C100003C
:1000200023C1000021C100001FC100001DC100004C
:100030001BC1000019C1000017C1000015C100005C
:1000400013C100000C941C1B0FC100000DC1000067
:100050000BC1000009C1000007C100000C94481A40
:1000600003C100000C941E1A0C94F419FDC000008A
:10007000FBC00000F9C00000F7C00000F5C00000A0
:100080000C94EE1AF1C00000EFC00000EDC00000BB
:100090000C94CA190C94A019E7C00000E5C0000038
:1000A000E3C00000E1C000000C94C01ADDC00000F5
:1000B000DBC00000D9C00000D7C000000C94921A29
:1000C000D3C00000D1C00000CFC00000CDC00000F0
:1000D000CBC00000C9C000000C9476190C944C19D8
:1000E000C3C0000000002100240027002A002D00CA
:1000F0003000330001010000040107010A01000083
:100100002200250028002B002E00310034000201BF
:100110000000050108010B0100002000230026005B
:1001200029002C002F00320000010000030106010D
:10013000090105050505070508080808020202026D
:100140000A0A080804040404010101010101010173
:100150000303030303030303040707070C0C0C0C3E
:100160000C0C0C0C02020202060606060606060627
:100170000B0B0B0B0B0B0B0B0102102020080810B4
:100180002040102040800201020108040201010207
:1001900004081020408080402010080402018004E0
:1001A000020180402010080402010804020101023B
:1001B0000408102040800102040810204080000044
:1001C0000A0B02090C0D0E080703040100000000D1
:1001D000000000000000000000000000000000001F
:1001E00000000000000000000000121110000000DC
:1001F00000000000000000000000000000000000FF
:10020000000000004A1B11241FBECFEFD1E2DEBF69
:10021000CDBF00E00CBF15E0A0E0B2E0E4E2FCE4FA
:1002200000E00BBF02C007900D92AE39B107D9F7BD
:100230002DE0AEE9B5E001C01D92AE37B207E1F79F
:1002400011E0C3E0D1E000E006C021970109802F52
:10025000FE010E94EA23C230D10780E00807A9F717
:100260000E94631E0C941026CBCE8F929F92AF9269
:10027000BF92CF92DF92EF92FF920F931F93CF9393
:10028000DF938B01D82FC92F80904D0D90904E0D8C
:10029000A0904F0DB090500D75016401F7FAF094E5
:1002A000F7F8F0949B01482F592FC701B6010E941F
:1002B0005523181674F098014D2F5C2FC501B40119
:1002C0000E9406227501640187FD03C06801ED2EBE
:1002D000FC2E20E030E0A901C701B6010E940622F1
:1002E00081111DC01092590D10925A0D10925B0D84
:1002F00010925C0DC092490DD0924A0DE0924B0DC8
:10030000F0924C0DDF91CF911F910F91FF90EF90E4
:10031000DF90CF90BF90AF909F908F900895A701EE
:10032000960160E074E284E799E40E940A229F77D4
:100330000E9477226093590D70935A0D80935B0D44
:1003400090935C0DC1E020E030E0A901C701B60147
:100350000E94552318160CF0C0E0C093790DCACF47
:10036000CF92DF92EF92FF92CF93DF93EC016A017D
:100370007B01E889F98982E08083C11481EED80687
:10038000E104F104A1F060E079E08DE390E0A701E1
:1003900096010E9470212150310941095109569559
:1003A000479537952795211580E1380798F0E8891A
:1003B000F989108260E874E88EE190E0A701960167
:1003C0000E947021215031094109510956954795E4
:1003D00037952795EC85FD853083EE85FF85208355
:1003E000188EEC89FD8986E08083EA89FB8980810B
:1003F00080618083EA89FB89808188608083EA89C3
:10040000FB89808180688083EA89FB8980818F7D78
:100410008083DF91CF91FF90EF90DF90CF90089590
:100420004F925F926F927F928F929F92AF92BF9204
:10043000CF92DF92EF92FF920F931F93CF93DF93B0
:10044000C090450DD090460DE090470DF090480DBE
:100450008091410D9091420DA091430DB091440DBA
:10046000C81AD90AEA0AFB0A6091490D70914A0D2F
:1004700080914B0D90914C0D9B01AC010E94592332
:100480004B015C016091510D7091520D8091530DA3
:100490009091540D9B01AC010E94A2219B01AC01E3
:1004A000C501B4010E940A220E947222C114D10423
:1004B000E104F10409F0D3C06230710581059105B2
:1004C0000CF0F2C01092590D10925A0D10925B0D63
:1004D00010925C0D1092490D10924A0D10924B0D26
:1004E00010924C0D1092690D10926A0D10926B0DC6
:1004F00010926C0DDF91CF911F910F91FF90EF90B3
:10050000DF90CF90BF90AF909F908F907F906F9033
:100510005F904F9008951016110612061306DCF432
:100520006C157D058E059F0524F42091790D211110
:10053000BBC09B01AC0188279927DC01821B930B70
:10054000A40BB50B8093690D90936A0DA0936B0D6E
:10055000B0936C0DA9C0011511052105310509F4F1
:10056000A3C06C157D058E059F050CF09DC0809184
:10057000790D882309F498C0309520951095019540
:100580001F4F2F4F3F4F0093690D10936A0D20931B
:100590006B0D30936C0D88C00115110521053105D7
:1005A00009F482C08824992454018C189D08AE084F
:1005B000BF08681579058A059B050CF075C0809108
:1005C000790D811171C0D8CFC090710DD090720D8E
:1005D000E090730DF090740DA7019601C701B6016C
:1005E0000E94A2212B013C01C501B4010E94A52259
:1005F00020E030E040E850E40E94592320E030E061
:1006000040E85FE30E94A2219B01AC01C301B2015B
:100610000E940A229B01AC01C701B6010E94A121E0
:10062000D62FC72F6C01E090750DF090760D0091DC
:10063000770D1091780D9701A8010E945523181687
:100640001CF4ED2EFC2E8601C701D8018093710D9C
:100650009093720DA093730DB093740D4CC00091E4
:10066000690D10916A0D20916B0D30916C0D1C1469
:100670001D041E041F040CF44ECF101611061206A2
:1006800013060CF089CF0027112798010C191D09BA
:100690002E093F0960177107820793070CF049CFB5
:1006A0002091790D211145CF8090690D90906A0DB0
:1006B000A0906B0DB0906C0D81149104A104B10455
:1006C00009F082CF80916D0D90916E0DA0916F0D0C
:1006D000B091700D8093710D9093720DA093730D76
:1006E000B093740D81E01C141D041E041F040CF053
:1006F00080E08093790D3FEF831A930AA30AB30A2F
:100700008092690D90926A0DA0926B0DB0926C0D63
:10071000C090710DD090720DE090730DF090740D3B
:10072000C701B6010E9477226093590D70935A0D4C
:1007300080935B0D90935C0DA701960160E074E2DD
:1007400084E799E40E940A226093490D70934A0D50
:1007500080934B0D90934C0D2091790D2111CACEB1
:1007600090586093490D70934A0D80934B0D909370
:100770004C0DC0CE4F925F926F927F928F929F925C
:10078000AF92BF92CF92DF92EF92FF92CF93DF931F
:1007900000D01F92CDB7DEB78090490D90904A0DE2
:1007A000A0904B0DB0904C0D20E030E0A901C501A8
:1007B000B4010E940622882309F46DC0A5019401AA
:1007C000C501B4010E9459236B017C016091510D58
:1007D0007091520D8091530D9091540D9B01AC017D
:1007E0000E94A2219B01AC01C701B6010E940A220E
:1007F0000E9472226B017C014090410D5090420D8D
:100800006090430D7090440D8091450D9091460D80
:10081000A091470DB091480D89839A83AB83BC8327
:1008200020E030E0A901C501B4010E94552318164B
:100830006CF59FEFC91AD90AE90AF90A4C0C5D1C3C
:100840006E1C7F1C89819A81AB81BC8184159505C2
:10085000A605B70501F14092450D5092460D6092F4
:10086000470D7092480D0F900F900F900F90DF91F1
:10087000CF91FF90EF90DF90CF90BF90AF909F907F
:100880008F907F906F905F904F90CACDC094D0941E
:10089000E094F094D3CF0F900F900F900F90DF91D2
:1008A000CF91FF90EF90DF90CF90BF90AF909F904F
:1008B0008F907F906F905F904F900895AF92BF920E
:1008C000CF92DF92EF92FF920F931F93CF93DF931C
:1008D0006C017B018B01040F151FEB015E01AE184B
:1008E000BF08C017D10759F06991D601ED91FC916D
:1008F0000190F081E02DC6011995892B79F7C5018A
:10090000DF91CF911F910F91FF90EF90DF90CF90EB
:10091000BF90AF900895FC01A089B1898C91A68900
:10092000B78982FD0FC09C91818D8F5F8F73228D5F
:10093000821749F0A18DAE0FBF2FB11D5D969C931C
:10094000818F08958C910895FC01538D448D252F3E
:1009500030E0842F90E0821B930B541710F0CF9659
:10096000089501970895FC01918D828D981761F08B
:10097000A28DAE0FBF2FB11D5D968C91928D9F5FA2
:100980009F73928F90E008958FEF9FEF0895FC0181
:10099000918D828D981731F0828DE80FF11D858D34
:1009A00090E008958FEF9FEF0895FC01918D228DC7
:1009B000892F90E0805C9F4F821B91098F7399274C
:1009C00008958CEA95E0F1DF21E0892B09F420E01D
:1009D000822F089589E496E0E8DF21E0892B09F46D
:1009E00020E0822F089586EE96E0DFDF21E0892B5C
:1009F00009F420E0822F0895FC01A48DA80FB92FDF
:100A0000B11DA35ABF4F2C91848D90E001968F7336
:100A10009927848FA689B7892C93A089B1898C9155
:100A2000837080648C93938D848D981306C00288A4
:100A3000F389E02D80818F7D80830895EF92FF926E
:100A40000F931F93CF93DF93EC0181E0888F9B8DF1
:100A50008C8D98131AC0E889F989808185FF15C0AB
:100A60009FB7F894EE89FF896083E889F9898081CE
:100A70008370806480839FBF81E090E0DF91CF919D
:100A80001F910F91FF90EF900895F62E0B8D10E0BF
:100A90000F5F1F4F0F731127E02E8C8D8E110BC02F
:100AA0000FB607FCFACFE889F989808185FFF5CF79
:100AB000CE01A2DFF2CFEB8DEC0FFD2FF11DE35A3B
:100AC000FF4FF0829FB7F8940B8FEA89FB898081F2
:100AD0008062D0CFCF93DF93EC01888D8823B1F073
:100AE000AA89BB89E889F9898C9185FD03C0808139
:100AF00086FD0CC00FB607FCF7CF8C9185FFF2CFB7
:100B0000808185FFEDCFCE0177DFEACFDF91CF91F6
:100B1000089580E090E0892B21F065DF81110E942B
:100B2000000080E090E0892B21F054DF81110E94C9
:100B3000000080E090E0892B49F080E090E0892B74
:100B400029F00E94000081110E94000080E090E0E6
:100B5000892B21F036DF81110C940000089581501B
:100B6000823108F05AC0E82FF0E08827E554FA4FA8
:100B70008F4F0C94EA23DB05DF05CD05D305D705A0
:100B80000D06E205E805EC05F205F605FA05000696
:100B900004060D0608060E061206809180008F7767
:100BA000809380000895809180008F7DF9CF80919F
:100BB0008000877FF5CF84B58F7784BD089584B595
:100BC0008F7DFBCF8091B0008F778093B000089528
:100BD0008091B0008F7DF9CF809190008F778093C6
:100BE00090000895809190008F7DF9CF80919000C2
:100BF000877FF5CF8091A0008F778093A000089524
:100C00008091A0008F7DF9CF8091A000877FF5CFE4
:100C1000809120018F778093200108958091200199
:100C20008F7DF9CF80912001877FF5CFCF93DF9320
:100C3000282F30E0F901E254FE4F8491F901E85881
:100C4000FE4FD491F901EE5CFE4FC491CC2399F094
:100C5000811185DFEC2FF0E0EE0FFF1FE85EFE4F05
:100C6000A591B491EC91ED2381E090E009F480E04E
:100C7000DF91CF91089580E090E0FACF1F93CF935A
:100C8000DF93282F30E0F901E254FE4F8491F901FF
:100C9000E858FE4FD491F901EE5CFE4FC491CC238D
:100CA000A1F0162F81115BDFEC2FF0E0EE0FFF1F9C
:100CB000E250FF4FA591B4918FB7F894EC911111C8
:100CC00008C0D095DE23DC938FBFDF91CF911F91B9
:100CD0000895DE2BF8CF282FE7ECF1E0E491E15006
:100CE000E23108F0C8C0F0E08827E658F94F8F4F8E
:100CF0000C94EA238C0691069606A206AE063B07E4
:100D0000BA06C206CA06D606E206EE06FF060B07BC
:100D10003B07170723072F0784B5806884BD27BDCD
:100D2000089584B5806284BD28BD089580918000B7
:100D3000806880938000422F592F50938900409300
:100D40008800089580918000806280938000422F07
:100D5000592F50938B0040938A0008958091800012
:100D6000886080938000422F592F50938D004093CC
:100D70008C0008958091B00080688093B00020932B
:100D8000B30008958091B00080628093B0002093FA
:100D9000B400089580919000806880939000422F65
:100DA000592F509399004093980008958091900096
:100DB000806280939000422F592F50939B00409364
:100DC0009A00089580919000886080939000422F4F
:100DD000592F50939D0040939C0008958091A0004E
:100DE00080688093A0008091A0008F7B8093A000FA
:100DF000422F592F5093A9004093A8000895809145
:100E0000A00080628093A000422F592F5093AB0026
:100E10004093AA0008958091A00088608093A0006C
:100E2000422F592F5093AD004093AC00089580910C
:100E30002001806880932001422F592F509329016F
:100E400040932801089580912001806280932001C1
:100E5000422F592F50932B0140932A0108958091DE
:100E60002001886080932001422F592F50932D013B
:100E700040932C01089561E089E000CFCF93DF9388
:100E800090E0FC01E858FE4F24918E5C9E4FFC01DF
:100E900084918823D1F090E0880F991FFC01EC51D8
:100EA000FF4FA591B491FC01E250FF4FC591D49141
:100EB000623071F49FB7F8943C91822F8095832320
:100EC0008C93E8812E2B28839FBFDF91CF910895CB
:100ED0008FB7F894EC912E2B2C938FBFF6CF3FB7A2
:100EE000F8948091A7059091A805A091A905B091CB
:100EF000AA0526B5A89B05C02F3F19F00196A11D94
:100F0000B11D3FBFBA2FA92F982F8827BC01CD0153
:100F1000620F711D811D911D42E0660F771F881FB2
:100F2000991F4A95D1F708958F929F92AF92BF92E1
:100F3000CF92DF92EF92FF924B015C01D0DF6B0109
:100F40007C01CDDF6C197D098E099F09683E7340D5
:100F500081059105B0F321E0821A9108A108B1083A
:100F600088EEC80E83E0D81EE11CF11C81149104A8
:100F7000A104B10431F7FF90EF90DF90CF90BF90C4
:100F8000AF909F908F9008952FB7F8946091A3052C
:100F90007091A4058091A5059091A6052FBF089595
:100FA000CF93DF93FC012281222329F1EC0161E040
:100FB000838164DF61E08C8161DF8A81843011F09C
:100FC000883091F461E08D8159DF61E08E8156DFD8
:100FD0008EA58F3F81F061E051DF6DA581E068272C
:100FE0008EA5DF91CF914ACE833011F0863081F704
:100FF00061E08D81ECCFDF91CF910895CF93DF93A6
:10100000FC012281222381F0EC010190F081E02D8E
:101010000480F581E02D60E019958EA58F3F21F0C9
:101020006DA5DF91CF912ACEDF91CF910895DC019C
:10103000ED91FC91119724813581477055276627E2
:101040007727415051096109710947305105610500
:10105000710570F4FA018827EF5CF74F8F4F0C94FD
:10106000EA233C083E08400842084408460848086D
:1010700061E0CD01F901199465E0FBCF64E0F9CF9F
:1010800066E0F7CF62E0F5CF6AE0F3CF68E0F1CF3A
:1010900069E0EFCFCF93DF93EC01CB01BA0126E0FB
:1010A00030E040E050E00E9444216230710581054B
:1010B000910589F16CF46115710581059105D1F0F7
:1010C0006130710581059105F9F0DF91CF910895A7
:1010D000643071058105910561F124F16530710578
:1010E0008105910591F7E881F9810480F581E02D72
:1010F00066E006C0E881F9810480F581E02D64E0B6
:10110000CE01DF91CF911994E881F9810480F581B6
:10111000E02D65E0F5CFE881F9810480F581E02DCF
:1011200061E0EECFE881F9810480F581E02D63E094
:10113000E7CFE881F9810480F581E02D62E0E0CF1E
:10114000DC01ED91FC910480F581E02D4370552781
:1011500066277727423051056105710571F04330EC
:1011600051056105710559F0413051056105710561
:1011700011F065E0199466E0FDCF6AE0FBCF69E00D
:10118000F9CFCF93DF93EC01CB01BA0123E030E03C
:1011900040E050E00E9444216130710581059105D5
:1011A00099F06230710581059105A9F0672B682BD4
:1011B000692BC1F4E881F9810480F581E02D64E0B8
:1011C000CE01DF91CF911994E881F9810480F581F6
:1011D000E02D61E0F5CFE881F9810480F581E02D13
:1011E00062E0EECFDF91CF910895DC01ED91FC91AB
:1011F0000480F581E02D437055276627772742301C
:1012000051056105710571F04330510561057105A6
:1012100059F0413051056105710511F062E01994F2
:1012200063E0FDCF61E0FBCF60E0F9CF0F931F9348
:10123000CF93DF93EC01E881F9810480F581E02D03
:101240008C010D5B1F4FD8018C9160E0811162E031
:10125000CE011995E881F9810480F581E02DD8014E
:101260008C9161E0811163E0CE0119958BA59CA55D
:101270008230910538F0880F991F880F991F0597C4
:101280000197F1F7E881F9810480F581E02DD8011B
:101290008C9160E0811162E0CE01DF91CF911F91CE
:1012A0000F911994CF93DF93EC0120E030E0A90176
:1012B0006B897C898D899E890E94552318162CF490
:1012C000EFA5F8A9DF91CF911994E9A9FAA9FACF6E
:1012D000CF92DF92EF92FF920F931F93CF93DF9302
:1012E000DC011296CC91C43039F0C83051F1C330D2
:1012F00019F0C63041F1C2E08C010D5F1F4FF12C97
:10130000E12CC62ED12CD1E0F8016481C6010E2C4F
:1013100002C0959587950A94E2F780FD6D270F5FCF
:101320001F4F8081ABDCBFEFEB1AFB0AEC1660F3BA
:10133000DF91CF911F910F91FF90EF90DF90CF90B1
:101340000895C4E0D9CFC3E0D7CFDC011296EC9169
:101350001297E93008F042C0F0E08827ED54F64FCC
:101360008F4F0C94EA23BC09C409CB09D209D909CF
:10137000EE09E009EE09E709ED91FC91119700846F
:10138000F185E02DCD011994ED91FC911197028426
:10139000F385E02DF7CFED91FC9111970484F5854D
:1013A000E02DF0CFED91FC9111970684F785E02DAB
:1013B000E9CFED91FC9111970088F189E02DE2CF02
:1013C000ED91FC9111970288F389E02DDBCFED912F
:1013D000FC9111970488F589E02DD4CF0895CF9220
:1013E000DF92EF92FF92CF93DF93EC01603282E0C5
:1013F0007807CCF5653B710514F064EB70E08981EA
:1014000028E830E0281B310987FD3395220F331F70
:10141000220F331F6901330FEE08FF088A8128E588
:1014200032E0281B310987FD3395220F331F220F2D
:10143000331F032E000C440B550B2C193D094E098C
:101440005F09DB0177FF02C0B0E0A0E00E946A21E3
:1014500024EB30E040E050E00E944421C20ED31E55
:10146000E41EF51EB601E881E03370F5298188E8B5
:1014700090E0821B910927FD9395880F991F880F93
:10148000991F681779077CF02A8188E592E0821B12
:10149000910927FD9395880F991F880F991F681749
:1014A00079070CF4CB010297880F991F4FB7F89476
:1014B0002E2F30E0F901EE0FFF1FE20FF31FED5763
:1014C000F84F928381834FBFDF91CF91FF90EF90D0
:1014D000DF90CF900895FC016281738183E39DE0EA
:1014E0007ECFFC016281738180E39DE078CF1F9302
:1014F000CF93DF93EC01162F8881803308F04DC025
:1015000061E0812FBBDC8881282F30E0F901EE0FEC
:10151000FF1FE20FF31FED57F84F1F736081607CD0
:10152000612B608319821A822CE0622F0E94CB23E8
:10153000829FB001112430E020E0AB01420F531F25
:10154000FA01EE0FFF1FE40FF51FED57F84F9081E2
:1015500096FD16C02F5F3F4F2C30310571F781305B
:1015600009F51092800082E080938100109285003E
:1015700010928400B19A80916F00826080936F0016
:10158000E8818E2F90E0FC01EE0FFF1FE80FF91F9E
:10159000ED57F84F8081806480838881DF91CF91FF
:1015A0001F910895823061F4109290008093910011
:1015B000109295001092940088BB80937100E0CF48
:1015C000833069F41092A00082E08093A100109211
:1015D000A5001092A40089BB80937200D1CF811125
:1015E000CFCF1092200182E080932101109225013B
:1015F000109224018ABB80937300C2CFAF92BF9236
:10160000CF92DF92EF92FF920F931F93CF93DF93CE
:101610006B017A01EC01C256DA4F28813CE0389F19
:101620008001399F100D1124A0901308B12C27FFC1
:101630001FC0FB011182108288818F5F888388819F
:101640009801280F311D87FD3A95F6012A153B05B3
:101650001CF488818C30BCF18081918104968034A7
:101660009C4908F471C0F6018081918104966EC096
:1016700088819801280F311D87FD3A952A153B0571
:10168000DCF68881A801480F511D87FD5A95FA01A3
:10169000EE0FFF1FE40FF51FED57F84F808186FF17
:1016A000CBCF8881F801E80FF11D87FDFA95CF01B6
:1016B000EE0FFF1FE80FF91FED57F84F808160E034
:1016C0008F73DCDAB9CF808191812881A801420F24
:1016D000511D27FD5A959A01FA01EE0FFF1FE20FE7
:1016E000F31FED57F84F21813281820F931FF701CD
:1016F0009183808388819801280F311D87FD3A9559
:10170000F901EE0FFF1FE20FF31FED57F84F808135
:1017100086FF21C08881080F111D87FD1A95F801E9
:10172000EE0FFF1FE00FF11FED57F84F808161E0D2
:101730008F73DF91CF911F910F91FF90EF90DF900A
:10174000CF90BF90AF909ACA80E49CE9F701918353
:1017500080838FEF8883DF91CF911F910F91FF904E
:10176000EF90DF90CF90BF90AF9008958A579B4F36
:10177000FC01808108958AEF92E008958BE193E067
:101780000895FC018485958508958BE293E0089582
:101790008CE493E00895FC018685978508958CE597
:1017A00093E008958DE793E00895FC0184A595A545
:1017B0000895AF92BF92CF92DF92EF92FF920F9374
:1017C0001F93CF93DF9300D01F921F92CDB7DEB748
:1017D000643671054CF0FC01EA57FB4F2081F12C77
:1017E000E12C222309F476C0DA017B018C01BC01D3
:1017F000615E7D4FED91FC910190F081E02DCA0179
:101800001995680128EEC21A2DEFD20A2FEFD601E2
:101810002C93F801E75EFD4F2EEF208331968083F5
:10182000319690833196292F280F20952083319669
:10183000E0821696FC9245E050E030E020E0DC01CA
:101840001696A417B50734F06191260F311D4F5F2E
:101850005F4FF7CF7C01B8E0EB0EF11C800F911FBA
:10186000FC01E15EFD4F20952083E1E0EE16E2E011
:10187000FE06B4F45601C5018C199D098E159F050D
:101880004CF5D80112968D919C91F50161915F0103
:10189000DC01ED91FC910190F081E02D1995EBCFE9
:1018A00080E592E09A83898383E08B8386E993E0E5
:1018B0009D838C83D801ED91FC910190F081E02D06
:1018C000AE014F5F5F4F67E070E0C8011995EE24ED
:1018D000EA94FE2CC7010F900F900F900F900F907D
:1018E000DF91CF911F910F91FF90EF90DF90CF90FC
:1018F000BF90AF9008950F931F93CF93DF9300D0C5
:1019000000D000D01F92CDB7DEB78C0184E492E006
:101910009A8389831B821C821D821E821F821886E5
:1019200019861A86D801ED91FC910190F081E02D85
:10193000AE014F5F5F4F6AE070E0C801199524DB8C
:10194000F80160877187828793872A960FB6F8948B
:10195000DEBF0FBECDBFDF91CF911F910F910895D4
:10196000CF92DF92EF92FF92DC011D921D921D92A9
:101970001C921397FB0130E020E0419150E0022ED1
:1019800002C0440F551F0A94E2F7052E000C660BA7
:10199000770BCD90DD90ED90FC9013974C295D294D
:1019A0006E297F294D935D936D937C931397285FE8
:1019B0003F4F2032310509F7FF90EF90DF90CF9035
:1019C0000895FC01408351831282138208950F937E
:1019D0001F93FC010281138124813581023011059E
:1019E0002105310529F41092AB051F910F9108953F
:1019F0006091490D70914A0D80914B0D90914C0D65
:101A0000012B022B032BC9F421E02093AB052AEB19
:101A10003FEF309301022093000220E030E04CE8D9
:101A200052EC0E940622882301F360E070E08CE80B
:101A300092EC1F910F910C94350121E02093AB059E
:101A400026E430E0309301022093000220E030E0F1
:101A50004CE852E40E940622882339F260E070E0EC
:101A60008CE892E4E6CF8FEC93E0089580EF93E06A
:101A700008958F929F92AF92BF92CF92DF92EF9292
:101A8000FF920F931F93CF93DF93EC018B018A8119
:101A9000FB0180838B8181838C8182838D81838311
:101AA000D12CC12C812C912C540184E0E82EF12CF6
:101AB000D801AE0DBF1D4A815B816C817D8184168A
:101AC0009506A606B706C0F48A899B898C0D9D1DD4
:101AD000FC0120813181F90120813181BD01F901B1
:101AE0001995E80EF91EFFEF8F1A9F0AAF0ABF0A79
:101AF0008CE0C80ED11CDCCF8C898C938D8911961B
:101B00008C9311978E8912968C9312978F891396C6
:101B10008C93C7010496DF91CF911F910F91FF9095
:101B2000EF90DF90CF90BF90AF909F908F900895EF
:101B3000AF92BF92DF92EF92FF920F931F93CF93DA
:101B4000DF93EC018B01029694DF5801A80EB91EB9
:101B50002A8DF50120832B8D21832C8D22832D8DC1
:101B600023830496D50140E050E0BA010A8D1B8D15
:101B70002C8D3D8D4017510762077307F8F49D01C6
:101B80002A193B09EAA0FBA0E20EF31EF701D08060
:101B90001181328123811496DC92149715961C933F
:101BA000159716963C93169717962C9317970496AD
:101BB0004F5F5F4F6F4F7F4F1496D8CFDF91CF911C
:101BC0001F910F91FF90EF90DF90BF90AF9008951D
:101BD0008AE094E008958BE294E008954F925F923A
:101BE0006F927F928F929F92AF92BF92EF92FF92ED
:101BF0000F931F93CF93DF9300D01F92CDB7DEB723
:101C00008C017B01CE010196ABDE89819A81AB818B
:101C1000BC814C015D0124E0820E911CA11CB11C11
:101C2000A7014D5F5F4FFA0124E030E02901712CDC
:101C3000612C481459046A047B0428F4618161937F
:101C40002F5F3F4FF3CFE80EF91EF7011382F80123
:101C500053834283F701448150E070E060E0F80173
:101C60004483558366837783F7012581522BF801DE
:101C70004483558366837783F7012681622BF801BD
:101C80004483558366837783F7012781722BF8019C
:101C90004483558366837783F701408550E070E085
:101CA00060E0F8014087518762877387F7012185DB
:101CB000522BF8014087518762877387F70122858D
:101CC000622BF8014087518762877387F70123856C
:101CD000722BF80140875187628773870C960F90AB
:101CE0000F900F900F90DF91CF911F910F91FF9068
:101CF000EF90BF90AF909F908F907F906F905F908C
:101D00004F900895FC01DB014C9150E070E060E0E1
:101D1000428353836483758311968C911197582B5A
:101D2000428353836483758312968C911297682B38
:101D3000428353836483758313968C91782B4283FB
:101D400053836483758384E090E008950F931F9319
:101D5000CF93DF938C01EC012696CE01D3DFD8011F
:101D60001C96ED91FC91CE01DF91CF911F910F91C7
:101D70001994DC01FB0112968C91129780831396C3
:101D80008C911397818314968C9114978283159666
:101D90008C91838384E090E00895FB01208130E002
:101DA000FC0133832283FB014181342BFC0133830B
:101DB000228382E090E008950F931F93CF93DF93E7
:101DC0008C01EC012696CE01E8DFD8011A96ED9140
:101DD000FC91CE01DF91CF911F910F911994FC01DD
:101DE0002281FB012083FC018381FB01818382E04E
:101DF00090E0089588E494E0089588E192E00895E1
:101E000089E694E008958AE894E008954F925F92FD
:101E10006F927F928F929F92AF92BF92EF92FF92BA
:101E20000F931F93CF93DF9300D01F92CDB7DEB7F0
:101E30007C018B01FB018191BF01F7018283CE01FF
:101E400001968EDD89819A81AB81BC814C015D0157
:101E5000F5E08F0E911CA11CB11CA8014C5F5F4FD7
:101E6000FA0125E030E02901712C612C4814590455
:101E70006A047B0428F4618161932F5F3F4FF3CFA5
:101E8000F801E80FF91F1482F70154834383059684
:101E90000F900F900F900F90DF91CF911F910F91A6
:101EA000FF90EF90BF90AF909F908F907F906F903A
:101EB0005F904F9008958DE994E008958EEB94E043
:101EC00008954F925F926F927F928F929F92AF92FE
:101ED000BF92CF92DF92EF92FF920F931F93CF9317
:101EE000DF93CDB7DEB72C970FB6F894DEBF0FBEE9
:101EF000CDBF7C018B01DB018C9190E0F7019383D6
:101F0000828311962C91922B938382836E5F7F4FF5
:101F1000CE01019625DD89809A80AB80BC802401AA
:101F20003501F6E04F0E511C611C711C98012B5FAE
:101F30003F4FF90186E090E0AC0170E060E04415AD
:101F400055056605770520F4418141930196F4CF4C
:101F5000B4016A5F7F4FF801E80DF91D1582D701C2
:101F600015963C932E931497600F711FCE01059622
:101F7000F7DCBAE08B0E911C4D805E806F80788418
:101F8000C401092C000CAA0BBB0B5C016D01A40C55
:101F9000B51CC61CD71CF801E80DF91DAF01401B8C
:101FA000510B70E060E04A155B056C057D0538F467
:101FB0002191AF0142505109DA012C93EFCF480C27
:101FC000591CB801640D751DFB0131971082C401C5
:101FD0000197800F911FF70197838683CE010996A1
:101FE000BFDC92012C5F3F4F89849A84AB84BC8410
:101FF000A901032E000C660B770B480D591D6A1DB5
:102000007B1DF801E20FF31FCF01801B910BB0E0A5
:10201000A0E084179507A607B70728F48191DF0190
:1020200012978C93F1CFC901880D991DF801E80F23
:10203000F91FDF0111971C9221503109020F131F64
:10204000D70119961C930E9318972181428150E075
:1020500070E060E0BA0155274427522B2081422BC3
:102060002381722BF7014287538764877587049613
:102070002C960FB6F894DEBF0FBECDBFDF91CF9187
:102080001F910F91FF90EF90DF90CF90BF90AF9096
:102090009F908F907F906F905F904F90089587ED05
:1020A00094E0089588EF94E00895FC01DB014C91E1
:1020B00050E070E060E0428353836483758311963F
:1020C0008C911197582B42835383648375831296A6
:1020D0008C911297682B4283538364837583139684
:1020E0008C911397782B4283538364837583149662
:1020F0004C91149750E070E060E04683578360870E
:10210000718715968C911597582B46835783608756
:10211000718716968C911697682B46835783608734
:10212000718717968C91782B4683578360877187C8
:1021300088E090E00895DC01FB0112968C911297E3
:10214000808313968C911397818314968C911497A6
:10215000828315968C911597838316968C9116978A
:10216000848317968C911797858318968C9118976E
:10217000868319968C91878388E090E00895FB010F
:1021800001900020E9F73197AF01461B570B0C94E3
:102190005E048F929F92AF92BF920F931F93CF9343
:1021A000DF93CDB7DEB7A1970FB6F894DEBF0FBEB1
:1021B000CDBF19A2423008F44AE08E010F5D1F4FD7
:1021C000842E912CB12CA12CA50194010E94702188
:1021D000E62FB901CA01EA30FCF4E05DD801EE93C4
:1021E0008D01232B242B252B79F790E080E010978D
:1021F00021F0BD0189E496E0C2DFA1960FB6F89404
:10220000DEBF0FBECDBFDF91CF911F910F91BF9069
:10221000AF909F908F900895E95CE0CF0F931F934C
:10222000CF93DF93EC01ABDF8C0166E075E0CE016C
:10223000A6DF800F911FDF91CF911F910F9108951D
:10224000CF92DF92EF92FF920F931F93CF93DF9382
:102250008C01D0E0C0E0D8019296ED91FC91EC0F9A
:10226000FD1FC080D180E280F3806C2D8CEA95E068
:102270000E941E05C701B60177278827992740E1EC
:1022800088DF69E075E089E496E0C8DF2496C03411
:10229000D10509F7DF91CF911F910F91FF90EF903A
:1022A000DF90CF900895FC0182819381A481B58154
:1022B00061E082309105A105B10559F489E00E94E1
:1022C0003E0782E890E00E946B0660E088E00C9494
:1022D0003E060197A105B10549F489E00E943E0739
:1022E00082E890E00E946B0661E0F0CF89E00E94F6
:1022F0003E0761E089E00E943E06F6CFEF92FF9232
:102300000F931F93CF93DF938C01EB01FC01A2810C
:10231000B381FD0101900020E9F731977F01EA1AAE
:10232000FB0AA70170E060E0CE014BDBF80162819F
:102330007381A701CE0104960E94E224CE0DDF1D19
:10234000F80184818C8385818D8386818E8387814A
:102350008F83808588878185898782858A87838521
:102360008B87C7010C96DF91CF911F910F91FF9042
:10237000EF9008954F925F926F927F928F929F920B
:10238000AF92BF92CF92DF92EF92FF920F931F9383
:10239000CF93DF93EC017B018A81FB0180838B81EA
:1023A00081838C8182838D8183833496412C512C4F
:1023B000320104E010E09F012F5F3F4FCF010296F2
:1023C000DF011396A8010C5F1F4F8A809B80AC80B1
:1023D000BD80481459046A047B04C8F4AA85BB85EF
:1023E000A40FB51F14974C9111962C91119712962A
:1023F0009C91129713968C914083218392838383BF
:102400008FEF481A580A680A780A3496D4CF4C8558
:1024100040834D85F90140832E85FC0120838F8503
:102420008C93F701E00FF11F412C512C3201AF01C9
:102430009F012F5F3F4FCF010296DF0113960C5F84
:102440001F4F8C849D84AE84BF84481459046A0451
:102450007B04D8F4CF01841B950BAC89BD89A80FF0
:10246000B91F3C9111962C91119712969C9112973D
:1024700013968C9130832183928383838FEF481A44
:10248000580A680A780A3496D3CF4E8940834F8918
:10249000F9014083288DFC012083898D8C93412C88
:1024A000512C32018E899F89A88DB98D4816590605
:1024B0006A067B0678F55201AA0CBB1CEC8DFD8DDB
:1024C000EA0DFB1DA081B181FD0101900020E9F71B
:1024D00031976F01CA1ADB0AA60170E060E0C701FC
:1024E000800F911F6EDA0C5F1F4F8C8D9D8DA80E93
:1024F000B91EF50160817181A601C701800F911F8E
:102500000E94E2240C0D1D1DFFEF4F1A5F0A6F0A97
:102510007F0AC8CFC801DF91CF911F910F91FF9023
:10252000EF90DF90CF90BF90AF909F908F907F9073
:102530006F905F904F900895EF92FF920F931F93CB
:10254000CF93DF938C017B01DC0112962C911297C3
:10255000FB012193CF011396ED91FC91EF010990BE
:102560000020E9F72197CE1BDF0BAE0170E060E0A1
:1025700028DAD80113966D917C91AE01C7010596BA
:102580000E94E224CE010596DF91CF911F910F9119
:10259000FF90EF900895CF92DF92EF92FF920F930A
:1025A0001F93CF93DF936C01EB01DC0112968C91AA
:1025B0001297888313968C91139789831496ED91C3
:1025C000FC91DF010D900020E9F78D010150110908
:1025D0000E1B1F0BA80170E060E0CE010296F1D93E
:1025E000F60164817581A801CE0106960E94E2245D
:1025F000C8010696F601A681B781FD010190002071
:10260000E9F731977F01EA1AFB0AA70170E060E061
:102610008C0F9D1FD6D9065F1F4FD60116966D9160
:102620007C91A701CE01800F911F0E94E2240E0D24
:102630001F1DF601A085B185FD0101900020E9F77D
:1026400031977F01EA1AFB0AA70170E060E0CE0132
:10265000800F911FB6D90C5F1F4FD60118966D9150
:102660007C91A701CE01800F911F0E94E224C70137
:10267000800F911FF6016285438534852585C80F3B
:10268000D91F688349833A832B830496DF91CF91C6
:102690001F910F91FF90EF90DF90CF9008954F9290
:1026A0005F926F927F92AF92BF92CF92DF92EF9242
:1026B000FF920F931F93CF93DF93EC015B01FB011C
:1026C000C080D180E280F3808A819B81AC81BD8112
:1026D0008C159D05AE05BF0560F48CE08C9DB001A6
:1026E0008D9D700D11248A899B890E9406249B8BE5
:1026F0008A8BCA82DB82EC82FD82F12CE12C412C98
:10270000512C320104E010E06E01F6E0CF0ED11C36
:10271000F501E00FF11F8A819B81AC81BD814816D4
:1027200059066A067B06C0F4BF01C60157DA080FD6
:10273000191FAA89BB89AE0DBF1D8CE0F60101905F
:102740000D928A95E1F78FEF481A580A680A780ABD
:10275000ECE0EE0EF11CDCCF808190E0B0E0A0E078
:102760008C8B9D8BAE8BBF8B2181922B8C8B9D8B09
:10277000AE8BBF8B2281A22B8C8B9D8BAE8BBF8BA4
:102780002381B22B8C8B9D8BAE8BBF8BC8010496A3
:10279000DF91CF911F910F91FF90EF90DF90CF903D
:1027A000BF90AF907F906F905F904F900895AF92E1
:1027B000BF92CF92DF92EF92FF920F931F93CF932E
:1027C000DF93EC018B0102966ADF080F191FF801F5
:1027D00020813181C280D12CF12CE12C7601DD24C5
:1027E000CC24D32AC22A2381F22A5C01F4E0AF0E62
:1027F000B11C8A8D9B8DAC8DBD8D8C159D05AE0554
:10280000BF0558F4B601660F771F660F771F8AA1C0
:102810009BA10E9406249BA38AA3CA8EDB8EEC8E0A
:10282000FD8E9801C12CD12C7601AE01425E5F4F26
:102830008A8D9B8DAC8DBD8DC816D906EA06FB0628
:1028400050F5F9016581868190E0B0E0A0E0DC01FF
:1028500099278827962B6481862B6781B62B8E8FCC
:102860009F8FA8A3B9A3F4E0AF0EB11CC901801BD0
:10287000910BAAA1BBA1A80FB91F84E0FA01019096
:102880000D928A95E1F78FEFC81AD80AE80AF80A7C
:102890002C5F3F4FCDCFC501DF91CF911F910F919D
:1028A000FF90EF90DF90CF90BF90AF9008950F937F
:1028B0001F93CF93DF938C01EC012696CE0177DF37
:1028C000D8019A96ED91FC91CE01DF91CF911F91A5
:1028D0000F9119942F923F924F925F926F927F9235
:1028E0008F929F92AF92BF92CF92DF92EF92FF9220
:1028F0000F931F93CF93DF93CDB7DEB72E970FB60D
:10290000F894DEBF0FBECDBF8C016B01DB018D9053
:102910009D90AD90BC90FC0182819381A481B58192
:1029200088159905AA05BB0570F4B401660F771FD9
:10293000660F771F828593850E940624D8011B9617
:102940009C938E931A97F80182829382A482B58217
:10295000C60140E050E0BA01A4E0EA2EF12C980153
:102960002A5F3F4FDC011596EC91159716964C9017
:102970001697512C712C612C3201552444245E2A67
:102980001496EC9114974E2A1796EC917E2AD70153
:102990001701E4E02E0E311C71010496F8018280CB
:1029A0009380A480B580481559056A057B05A8F475
:1029B00046825782608671861497A284B384AA0DDA
:1029C000BB1DE4E0BE2EF90101900D92BA94E1F72F
:1029D0004F5F5F4F6F4F7F4FC5CF84859585A6852D
:1029E000B78584159505A605B70570F4B201660F85
:1029F000771F660F771F848995890E940624D80166
:102A000055969C938E935497F80144865586668616
:102A10007786C601820D931D412C512C32011C0179
:102A20009801205F3F4FDC0111966C91119712962F
:102A30008C901297912CB12CA12C540199248824AC
:102A4000962A6C91862A13966C91B62AB4E0EB0E06
:102A5000F11CF80144855585668577854416550631
:102A600066067706C0F4808A918AA28AB38ABC017E
:102A700062197309A489B589A60FB71F64E0F9012B
:102A800001900D926A95E1F7BFEF4B1A5B0A6B0A52
:102A90007B0A0496C8CF86899789A08DB18D881549
:102AA0009905AA05BB0560F4B401660F771F848DF4
:102AB000958D0E940624D8015D969C938E935C9719
:102AC000F801868A978AA08EB18E412C512C320152
:102AD0001801FAE12F0E311CF80186899789A08D23
:102AE000B18D481659066A067B0608F05CC0B6012F
:102AF0006E0D7F1DCE0101960E94B00C97012C5FD8
:102B00003F4F3E872D8789809A80AB80BC80C9016A
:102B1000032E000CAA0BBB0BAC01BD01480D591DC7
:102B20006A1D7B1D49875A876B877C87F901EC0DED
:102B3000FD1D9F012C193D09B90190E080E0298518
:102B40003A854B855C85621773078407950728F4DF
:102B50002191DF0112972C93ECCFED84FE84E80CD9
:102B6000F91CF601EE0DFF1D319710828D859E85B3
:102B700001978C0D9D1DD8015B969C938E935A975F
:102B8000C201880F991F5C96ED91FC91E80FF91F27
:102B9000D1018D919C9191838083BFEF4B1A5B0A89
:102BA0006B0A7B0A99CFC7012E960FB6F894DEBF49
:102BB0000FBECDBFDF91CF911F910F91FF90EF908E
:102BC000DF90CF90BF90AF909F908F907F906F904D
:102BD0005F904F903F902F9008952F923F924F9289
:102BE0005F926F927F928F929F92AF92BF92CF929D
:102BF000DF92EF92FF920F931F93CF93DF93CDB7A6
:102C0000DEB7A6970FB6F894DEBF0FBECDBF8C011E
:102C10000E94C4074B015C01980125573B4F3E8B36
:102C20002D8BF90180819181A281B38175016401AD
:102C3000C81AD90AEA0AFB0AD701C601893F9A4293
:102C4000A105B10510F035971082180134E8231A58
:102C50003BEF330AD1018D919C91892B79F0F801DA
:102C6000E157FB4F80819181A281B381881599053D
:102C7000AA05BB0518F4F1011182108298012C57A6
:102C80003B4F3A8B298BA80140585B4F5C8B4B8B99
:102C9000C8014896988F8F8BD801AA57BB4FBC8F1D
:102CA000AB8FF801EC56FB4FFE8FED8F215F3F4F4E
:102CB00038A32F8F42505109588B4F8786599B4F0D
:102CC0009A8F898F1996BAA3A9A3A50194012C5EA6
:102CD0003F4F4F4F5F4F2BA33CA34DA35EA3F80183
:102CE00084899589A689B789892B8A2B8B2BB9F57D
:102CF000D80112968D919C91DC01ED91FC9102849A
:102D0000F385E02D19959C0197FF3DC0F801EA5726
:102D1000FB4F8081882301F17801B9E7EB1ABBEF03
:102D2000FB0AF70180819181A281B381A501940101
:102D3000281B390B4A0B5B0BDA01C901853C994012
:102D4000A105B10548F0C8010E947B0CD7018D9206
:102D50009D92AD92BC92139790E080E0B6C10E9424
:102D6000C407681979098A099B09F801C488D588BC
:102D7000E688F788C616D706E806F90608F0B8CF41
:102D80008EEF9FEFA2C1A989BA898D919C9111976D
:102D9000820F931F8D939C93F101408151814730A5
:102DA0005105F9F4A98DBA8D8D919C911197AC01C3
:102DB0004F5F5F4F4D935C93800F911FFC01208FFD
:102DC000AF85B8898D919C91119701978D939C93B4
:102DD000892B09F084CF88E090E0F1019183808312
:102DE0007ECF4115510521F52F3F310581F481E05A
:102DF00090E091838083CBA0DCA0EDA0FEA0A9A1F0
:102E0000BAA1CD92DD92ED92FC92139768CF0E9409
:102E1000C407681979098A099B09693873418105D2
:102E2000910508F45CCFF801EA57FB4F1082A8CF58
:102E30004130510589F42E3F310519F482E090E0CC
:102E4000CCCF11821082EB8DFC8D8081811147CF18
:102E5000C8010E947B0C43CF4230510591F4AF85ED
:102E6000B8892D933C93E98DFA8D1182108283E00D
:102E700090E0D1018D939C93E989FA893183208375
:102E80002ECF4330510571F4322F2227AF85B889F8
:102E90008D919C911197280F391F2D933C9384E0BD
:102EA00090E09BCF4430510579F460E071E00E94DE
:102EB000D7238F3F910529F485E090E091838083AB
:102EC0000ECF118210820BCF4530510569F4AB89CA
:102ED000BC892D933C9386E090E091838083A989FF
:102EE000BA892D933C93FBCE46305105A1F4322F85
:102EF0002227EB89FC8980819181280F391F31833A
:102F0000208387E090E0D1018D939C93EF85F88931
:102F1000808191815DCF4830510509F0E0CE11826A
:102F2000108260E071E00E94D7238F3F910509F085
:102F3000D6CEAB89BC89ED91FC91309709F0DEC00B
:102F4000C8010E947B0C88E392E09A8389831C82EB
:102F50001B8288E095E09E838D8398878F839A8774
:102F600089871B861C861D861E866801B8EECB1AD3
:102F7000BBEFDB0A7801E6EBEE1AEBEFFE0A412C21
:102F800022E0522E612C712CD601ED91FC913097EC
:102F9000A9F1848195819C838B83808191819E831B
:102FA0008D8382819381DC01ED91FC910480F58118
:102FB000E02D199598878F83D601ED91FC91828140
:102FC0009381DC01ED91FC910680F781E02D19954C
:102FD0009A8789874B865C866D867E86D601ED91C1
:102FE000FC9160857185D801ED91FC910190F08193
:102FF000E02DAE014F5F5F4FC8011995B2E0CB0ED7
:10300000D11CEC14FD0409F0BFCF412C92E0592EE5
:10301000612C712CF701A081B1811097E1F112961A
:103020008D919C9113979C838B8314968D919C9189
:1030300015979E838D83ED91FC9111970480F58106
:10304000E02DCD01199598878F83D7018D919C91A3
:10305000DC01ED91FC910680F781E02D19959A87AE
:1030600089874B865C866D867E86D801ED91FC91C2
:10307000C080D180F70180819181DC01ED91FC91CC
:103080000280F381E02D1995AE014F5F5F4FBC01C7
:10309000C801F6011995F2E0EF0EF11CE214F304F9
:1030A00009F0B8CFF801EA57FB4F81E080833196F1
:1030B00080829182A282B382AD89BE898D929D92D7
:1030C000AD92BC9213978FEF9FEFA6960FB6F89430
:1030D000DEBF0FBECDBFDF91CF911F910F91FF904B
:1030E000EF90DF90CF90BF90AF909F908F907F90A8
:1030F0006F905F904F903F902F900895EA30F105C8
:1031000009F0A1C084E492E09A8389831B821C8227
:103110001D821E821F82188619861A860E94C40785
:10312000F801C084D184E284F3849B01AC012C19A2
:103130003D094E095F0969017A016F89788DCE01D9
:1031400001960E945510C701B60128EE33E040E019
:1031500050E00E94702169017A019B01AC018B81D2
:103160009C81AD81BE818C0D9D1DAE1DBF1D8B83CD
:103170009C83AD83BE8360E472E48FE090E00E94A4
:10318000BC23CF80D884E984FA84DC01CB018C0D88
:103190009D1DAE1DBF1D8F839887A987BA870E948A
:1031A000C407CF80D884E984FA8436E3D31A35E69D
:1031B000E30A34ECF30A28EE33E040E050E00E94EA
:1031C000702129013A019B01AC0160E472E48FE0B7
:1031D00090E00E94BC23A7019601261B370B480BE9
:1031E000590BCA01B9012B813C814D815E8121506F
:1031F00031094109510969017A01C418D508E60865
:10320000F7082601370120E03AEC4AE95BE30E9427
:103210007021420E531E641E751ED8011C964D92DD
:103220005D926D927C921F97F801608B718B828BFF
:10323000938B0E94C407AD89BE896D937D938D9356
:103240009C9313974CCDE630F10551F46F89788D3E
:103250008D8D9E8D3FDB81E0EF8DF8A180833FCD8A
:10326000EB30F10521F4AB8DBC8D1C9238CDEF53C2
:10327000FE4FEE0FFF1FE00FF11F8081918100973D
:1032800009F42DCDDC01ED91FC910190F081E02D50
:103290006F89788D199523CD1F920F920FB60F92DB
:1032A00011240BB60F922F933F934F935F936F931D
:1032B0007F938F939F93AF93BF93EF93FF938CEA8A
:1032C00095E00E94FC04FF91EF91BF91AF919F9117
:1032D0008F917F916F915F914F913F912F910F90BF
:1032E0000BBE0F900FBE0F901F9018951F920F925C
:1032F0000FB60F9211240BB60F922F933F934F935B
:103300005F936F937F938F939F93AF93BF93EF934D
:10331000FF938CEA95E00E948B04FF91EF91BF919F
:10332000AF919F918F917F916F915F914F913F915D
:103330002F910F900BBE0F900FBE0F901F901895FE
:103340001F920F920FB60F9211240BB60F922F936C
:103350003F934F935F936F937F938F939F93AF931D
:10336000BF93EF93FF9389E496E00E94FC04FF91E2
:10337000EF91BF91AF919F918F917F916F915F91ED
:103380004F913F912F910F900BBE0F900FBE0F905A
:103390001F9018951F920F920FB60F9211240BB623
:1033A0000F922F933F934F935F936F937F938F93DE
:1033B0009F93AF93BF93EF93FF9389E496E00E94AE
:1033C0008B04FF91EF91BF91AF919F918F917F916E
:1033D0006F915F914F913F912F910F900BBE0F9086
:1033E0000FBE0F901F9018951F920F920FB60F925D
:1033F00011240BB60F922F933F934F935F936F93CC
:103400007F938F939F93AF93BF93EF93FF9386EE3A
:1034100096E00E94FC04FF91EF91BF91AF919F91C4
:103420008F917F916F915F914F913F912F910F906D
:103430000BBE0F900FBE0F901F9018951F920F920A
:103440000FB60F9211240BB60F922F933F934F9309
:103450005F936F937F938F939F93AF93BF93EF93FC
:10346000FF9386EE96E00E948B04FF91EF91BF914F
:10347000AF919F918F917F916F915F914F913F910C
:103480002F910F900BBE0F900FBE0F901F901895AD
:103490001F920F920FB60F9211242F933F938F9389
:1034A0009F93AF93BF938091A3059091A405A091A2
:1034B000A505B091A6053091A20523E0230F2D3775
:1034C00058F50196A11DB11D2093A2058093A30577
:1034D0009093A405A093A505B093A6058091A70598
:1034E0009091A805A091A905B091AA050196A11DEA
:1034F000B11D8093A7059093A805A093A905B0934B
:10350000AA05BF91AF919F918F913F912F910F90FD
:103510000FBE0F901F90189526E8230F0296A11D4D
:10352000B11DD2CF1F920F920FB60F9211240BB67E
:103530000F922F933F934F935F936F937F938F934C
:103540009F93AF93BF93EF93FF9348E251E064E200
:1035500071E090E080E00E94FE0AFF91EF91BF9140
:10356000AF919F918F917F916F915F914F913F911B
:103570002F910F900BBE0F900FBE0F901F901895BC
:103580001F920F920FB60F9211240BB60F922F932A
:103590003F934F935F936F937F938F939F93AF93DB
:1035A000BF93EF93FF9348EA50E064EA70E083E052
:1035B00090E00E94FE0AFF91EF91BF91AF919F9121
:1035C0008F917F916F915F914F913F912F910F90CC
:1035D0000BBE0F900FBE0F901F9018951F920F9269
:1035E0000FB60F9211240BB60F922F933F934F9368
:1035F0005F936F937F938F939F93AF93BF93EF935B
:10360000FF9348E950E064E970E082E090E00E94B6
:10361000FE0AFF91EF91BF91AF919F918F917F91A2
:103620006F915F914F913F912F910F900BBE0F9033
:103630000FBE0F901F9018951F920F920FB60F920A
:1036400011240BB60F922F933F934F935F936F9379
:103650007F938F939F93AF93BF93EF93FF9348E82C
:1036600050E064E870E081E090E00E94FE0AFF9183
:10367000EF91BF91AF919F918F917F916F915F91EA
:103680004F913F912F910F900BBE0F900FBE0F9057
:103690001F9018958F929F92AF92BF92CF92DF9218
:1036A000EF92FF921092AF051092AE0548EE53E0F4
:1036B00060E070E04093B0055093B1056093B205AF
:1036C0007093B3058CE592E09093AD058093AC05C3
:1036D00025E331E03093B9052093B80524E331E0C8
:1036E0003093BB052093BA0520E331E03093BD054C
:1036F0002093BC0521E331E03093BF052093BE0544
:1037000022E331E03093C1052093C00526E331E088
:103710003093C3052093C2051092C5051092C605CB
:103720001092C7051092C80510924C0610924B06D5
:1037300040934D0650934E0660934F06709350068B
:1037400090934A06809349062DEC30E0309356065C
:10375000209355062CEC30E0309358062093570602
:1037600028EC30E030935A062093590629EC30E0DB
:1037700030935C0620935B062AEC30E030935E06C3
:1037800020935D062EEC30E03093600620935F06B8
:1037900010926206109263061092640610926506FB
:1037A0001092E9061092E8064093EA065093EB0661
:1037B0006093EC067093ED069093E7068093E6061F
:1037C00085EC90E09093F3068093F20684EC90E011
:1037D0009093F5068093F40680EC90E09093F706C2
:1037E0008093F60681EC90E09093F9068093F806BA
:1037F00082EC90E09093FB068093FA0686EC90E0D2
:103800009093FD068093FC061092FF06109200072D
:10381000109201071092020788EA92E09093370D08
:103820008093360D88E08093380D1092410D1092F0
:10383000420D1092430D1092440D1092450D1092BE
:10384000460D1092470D1092480D1092490D10929E
:103850004A0D10924B0D10924C0DC12CD12C40E80A
:10386000E42E4FE3F42EC0924D0DD0924E0DE09217
:103870004F0DF092500D1092510D1092520D10926A
:10388000530D1092540DC092550DD092560DE092EA
:10389000570DF092580D1092590D10925A0D10922A
:1038A0005B0D10925C0D81E090E09093620D80932F
:1038B000610D8FEF8093640D10925D0D10925E0D7F
:1038C00010925F0D1092600D8AE08093390D8CE0AC
:1038D00080933A0D8BE080933B0D8DE080933C0DFF
:1038E0001092690D10926A0D10926B0D10926C0D72
:1038F00010926D0D10926E0D10926F0D1092700D52
:103900001092710D1092720D1092730D1092740D31
:10391000C092750DD092760DE092770DF092780DF1
:103920001092790D10923D0D10923E0D10923F0DA8
:103930001092400D86E39DE00E94D0078090510DCB
:103940009090520DA090530DB090540DA701960188
:10395000C501B4015BD5882359F16091690D70915F
:103960006A0D80916B0D90916C0DEFD5A5019401BE
:10397000A0D6B8D56093690D70936A0D80936B0DD6
:1039800090936C0D86E896E6A9E6B9E480936D0DF8
:1039900090936E0DA0936F0DB093700DC092510D6A
:1039A000D092520DE092530DF092540D0E941002ED
:1039B00080911308803308F07EC191E0980F9093B6
:1039C00013088093330D90E0FC01EE0FFF1FE80F0A
:1039D000F91FED57F84F88EB9BE09283818380912C
:1039E0001308803308F06BC191E0980F909313088F
:1039F0008093300D90E0FC01EE0FFF1FE80FF91FE0
:103A0000ED57F84F88EB9BE0928381838EE992E03B
:103A100090937F0880937E0886EE96E090938108CD
:103A20008093800880E091EEA0E0B0E0809382086F
:103A300090938308A0938408B09385081092040D96
:103A400082E992E09093130D8093120D1092280D4D
:103A50001092290D10922A0D10922B0D10922F0DFD
:103A600010922E0DE6E9FCE0119211928CE0E83CF8
:103A7000F807D1F7E8ECFCE0119211928CE0EA3FF4
:103A8000F807D1F7E6E9F8E086E99AE011928E1797
:103A90009F07E1F7E6E9FAE086E99CE011928E17CC
:103AA0009F07E1F71092140D1092150D1092160D4C
:103AB0001092170D10921D0D10921C0D10921E0DDC
:103AC00010921F0D1092200D1092210D1092270DB3
:103AD0001092260D1092920810929308109294085A
:103AE0001092950842EF52E050937108409370088D
:103AF00026EE32E03093770820937608109279080A
:103B0000109278088BE69AE090937B0880937A086D
:103B100081E090E090937D0880937C086DE075E0F3
:103B2000709375086093740850936308409362081B
:103B3000309369082093680810926B0810926A0805
:103B400021E73AE030936D0820936C0890936F085A
:103B500080936E082DE135E0309367082093660866
:103B60004AED52E050935308409352082EEC32E055
:103B7000309359082093580810925A0810925B0805
:103B800010925C0810925D0863E571E170935F0824
:103B900060935E0890936108809360086DE275E021
:103BA0007093570860935608509343084093420817
:103BB000309349082093480810924A0810924B0805
:103BC00010924C0810924D0827EE3CE030934F08BD
:103BD00020934E0890935108809350082DE335E0D0
:103BE000309347082093460822EC32E030931508C2
:103BF0002093140826E832E030931B0820931A081B
:103C00002AE732E030931D0820931C0810921E080A
:103C100010921F0810922008109221082EE632E020
:103C2000309323082093220828E035E030932508BC
:103C30002093240810922608109227081092280832
:103C40001092290810922A0810922B0810922C0822
:103C500010922D0810922F0810922E081092300802
:103C600010923108109232081092330810923408E2
:103C700010923508109236081092370810923D08BD
:103C800010923C0820E231E130933F0820933E0837
:103C900090934108809340088DE495E09093190833
:103CA00080931808FF90EF90DF90CF90BF90AF9077
:103CB0009F908F9008958FEF8093330D90CE8FEF6C
:103CC0008093300DA3CECF93DF93CDB7DEB760974F
:103CD0000FB6F894DEBF0FBECDBF789484B5826076
:103CE00084BD84B5816084BD85B5826085BD85B5A0
:103CF000816085BD80916E00816080936E0010921E
:103D00008100809181008260809381008091810098
:103D10008160809381008091800081608093800029
:103D20008091B10084608093B1008091B000816087
:103D30008093B00080919100826080939100809187
:103D400091008160809391008091900081608093C8
:103D500090008091A10082608093A1008091A100D9
:103D600081608093A1008091A00081608093A00079
:103D700080912101826080932101809121018160E5
:103D800080932101809120018160809320018091A6
:103D90007A00846080937A0080917A0082608093B8
:103DA0007A0080917A00816080937A0080917A0015
:103DB000806880937A001092C10040E855E260E08C
:103DC00070E08CEA95E00E94B00161E575E089E45D
:103DD00096E00E940E1160E088E20E943E0664EFC9
:103DE00071E080E090E00E94940764E675E08CEA60
:103DF00095E00E940E1164E675E089E496E00E9469
:103E00000E1167E675E08CEA95E00E940E1167E6F8
:103E100075E089E496E00E940E116EE675E08CEA8A
:103E200095E00E940E116EE675E089E496E00E942E
:103E30000E116BE775E08CEA95E00E940E116BE7BE
:103E400075E089E496E00E940E1163E875E08CEA63
:103E500095E00E940E1163E875E089E496E00E9407
:103E60000E116DE875E089E496E00E940E1161E0A4
:103E700088E20E943E0669E975E089E496E00E94C6
:103E80000E1161E089E00E943E0761E088E00E9437
:103E90003E0761E089E00E943E0761E089E00E9400
:103EA0003E0661E088E00E943E066CE270E083E33B
:103EB0009DE00E94770A6DE270E080E39DE00E9441
:103EC000770A40918208509183086091840870912C
:103ED000850880918008909181080E94B00110921D
:103EE000FB0C1092FA0C1092FD0C1092FC0C10922C
:103EF000010D1092000D1092FF0C1092FE0C62E06A
:103F000087E00E943E0762E086E00E943E0720E0D4
:103F100030E04AE754E460914D0D70914E0D809170
:103F20004F0D9091500D72D2882309F449C080E062
:103F300090E0AAE7B4E480934D0D90934E0DA093CA
:103F40004F0DB093500D8093750D9093760DA09307
:103F5000770DB093780D6091490D70914A0D809165
:103F60004B0D90914C0D0091690D10916A0D2091AF
:103F70006B0D30916C0D101611061206130604F528
:103F80009B01AC0196D36B017C016091510D709146
:103F9000520D8091530D9091540D9B01AC01D2D1E3
:103FA0009B01AC01C701B60135D29CD26093690D6B
:103FB00070936A0D80936B0D90936C0D0E941002AC
:103FC00020E030E048E452E46091490D70914A0DE0
:103FD00080914B0D90914C0D19D2882331F060E007
:103FE00070E088E492E40E943501E8ECFCE0DF0137
:103FF00090E080E02D913D91232B09F000C1DC0180
:10400000AA0FBB1FA853B34F20E738E02D933C9372
:104010008C599F4F9093730880937208A8ECBCE072
:1040200090E080E02D913D91232B09F0EEC0DC0162
:10403000AA0FBB1FA853B34F22E638E02D933C9341
:104040008C599F4F9093650880936408A8ECBCE05E
:1040500090E080E02D913D91232B09F0DCC0DC0144
:10406000AA0FBB1FA853B34F22E538E02D933C9312
:104070008C599F4F9093550880935408A8ECBCE04E
:1040800090E080E02D913D91232B09F0CAC0DC0126
:10409000AA0FBB1FA853B34F22E438E02D933C93E3
:1040A0008C599F4F909345088093440890E080E09E
:1040B00021913191232B09F0BAC0FC01EE0FFF1FB3
:1040C000E853F34F24E138E0318320838C599F4F2C
:1040D00090931708809316088E010F5E1F4F80E1A2
:1040E000E8E0F2E0DE01119601900D928A95E1F789
:1040F000CE0101966C01F601F1906F016F2D8CEAF3
:1041000095E00E941E056F2D70E090E080E040E198
:104110000E94C91069E075E089E496E00E940E11E2
:104120000C151D0541F78EE798E00E94ED15809172
:10413000AB05882309F4A5C08091590D90915A0DC3
:10414000A0915B0DB0915C0D892B8A2B8B2B09F410
:104150007AC00E946F076B017C0140915D0D509108
:104160005E0D60915F0D7091600D8091590D909181
:104170005A0DA0915B0DB0915C0D840F951FA61F89
:10418000B71F84179507A607B70708F456C0C816C7
:10419000D906EA06FB0630F4C416D506E606F7068D
:1041A00008F051C08091410D9091420DA091430DB6
:1041B000B091440D2091790D222309F45CC0019641
:1041C000A11DB11D8093410D9093420DA093430D0D
:1041D000B093440D4091410D5091420D6091430DBB
:1041E0007091440D86E39DE00E94A509C0925D0D8B
:1041F000D0925E0DE0925F0DF092600D24C00196AA
:104200008931910509F0F6CE09CF019689319105E2
:1042100009F008CF1BCF01968931910509F01ACF1B
:104220002DCF01968931910509F02CCF3FCF019612
:104230008931910509F03CCF4FCFC816D906EA065F
:10424000FB0608F0A9CF809100029091010297FF30
:1042500016C086E00E941606892B21F40E94BA033C
:104260001092AB0561E070E080E090E00E9494075E
:104270000E94890534CF0197A109B109A3CF87E036
:10428000E9CF0E94BA03EECF052E97FB16F40094F7
:104290000FD057FD05D024D007FC02D046F408C04B
:1042A00050954095309521953F4F4F4F5F4F089562
:1042B00090958095709561957F4F8F4F9F4F089592
:1042C00031D0A59F900DB49F900DA49F800D911D9E
:1042D00011240895B7FFF4CFF3DF821B930B0895E9
:1042E000A1E21A2EAA1BBB1BFD010DC0AA1FBB1FFA
:1042F000EE1FFF1FA217B307E407F50720F0A21B6C
:10430000B30BE40BF50B661F771F881F991F1A94D8
:1043100069F760957095809590959B01AC01BD0102
:10432000CF010895A29FB001B39FC001A39F700D5C
:10433000811D1124911DB29F700D811D1124911DAD
:1043400008955058BB27AA270ED075C166D130F00A
:104350006BD120F031F49F3F11F41EF45BC10EF4D9
:10436000E095E7FB51C1E92F77D180F3BA176207D7
:1043700073078407950718F071F49EF58FC10EF44A
:10438000E0950B2EBA2FA02D0B01B90190010C0165
:10439000CA01A0011124FF27591B99F0593F50F47D
:1043A000503E68F11A16F040A22F232F342F4427D5
:1043B000585FF3CF469537952795A795F0405395CD
:1043C000C9F77EF41F16BA0B620B730B840BBAF09D
:1043D0009150A1F0FF0FBB1F661F771F881FC2F708
:1043E0000EC0BA0F621F731F841F48F4879577951C
:1043F0006795B795F7959E3F08F0B3CF9395880FD3
:1044000008F09927EE0F979587950895D9D008F46D
:1044100081E008950CD00FC107D140F0FED030F0FC
:1044200021F45F3F19F0F0C0511139C1F3C014D12C
:1044300098F39923C9F35523B1F3951B550BBB276B
:10444000AA2762177307840738F09F5F5F4F220F18
:10445000331F441FAA1FA9F333D00E2E3AF0E0E811
:1044600030D091505040E695001CCAF729D0FE2F5D
:1044700027D0660F771F881FBB1F261737074807EF
:10448000AB07B0E809F0BB0B802DBF01FF279358A5
:104490005F4F2AF09E3F510568F0B6C000C15F3FF4
:1044A000ECF3983EDCF3869577956795B795F7958D
:1044B0009F5FC9F7880F911D9695879597F9089585
:1044C000E1E0660F771F881FBB1F62177307840721
:1044D000BA0720F0621B730B840BBA0BEE1F88F730
:1044E000E095089504D06894B111D9C00895BCD066
:1044F00088F09F5790F0B92F9927B751A0F0D1F0CD
:10450000660F771F881F991F1AF0BA95C9F712C056
:10451000B13081F0C3D0B1E00895C0C0672F782FCB
:104520008827B85F39F0B93FCCF3869577956795C2
:10453000B395D9F73EF490958095709561957F4F2E
:104540008F4F9F4F0895E89409C097FB3EF49095D4
:104550008095709561957F4F8F4F9F4F9923A9F05C
:10456000F92F96E9BB279395F695879577956795EB
:10457000B795F111F8CFFAF4BB0F11F460FF1BC02F
:104580006F5F7F4F8F4F9F4F16C0882311F096E9C2
:1045900011C0772321F09EE8872F762F05C0662370
:1045A00071F096E8862F70E060E02AF09A95660F29
:1045B000771F881FDAF7880F9695879597F90895E2
:1045C000990F0008550FAA0BE0E8FEEF1616170624
:1045D000E807F907C0F012161306E407F50798F08C
:1045E000621B730B840B950B39F40A2661F0232BA5
:1045F000242B252B21F408950A2609F4A140A69521
:104600008FEF811D811D089597F99F6780E870E005
:1046100060E008959FEF80EC089500240A94161638
:10462000170618060906089500240A9412161306A0
:10463000140605060895092E0394000C11F488232E
:1046400052F0BB0F40F4BF2B11F460FF04C06F5F4A
:104650007F4F8F4F9F4F089557FD9058440F551F20
:1046600059F05F3F71F04795880F97FB991F61F0F4
:104670009F3F79F087950895121613061406551F6B
:10468000F2CF4695F1DF08C0161617061806991FD7
:10469000F1CF86957105610508940895E894BB27CC
:1046A00066277727CB0197F908958ADF08F48FEF03
:1046B00008950BD0C0CFB1DF28F0B6DF18F09523F6
:1046C00009F0A2CFA7CF1124EACFC6DFA0F3959FB0
:1046D000D1F3950F50E0551F629FF001729FBB27E9
:1046E000F00DB11D639FAA27F00DB11DAA1F649F95
:1046F0006627B00DA11D661F829F2227B00DA11D48
:10470000621F739FB00DA11D621F839FA00D611DCD
:10471000221F749F3327A00D611D231F849F600DEE
:10472000211D822F762F6A2F11249F5750408AF027
:10473000E1F088234AF0EE0FFF1FBB1F661F771FB3
:10474000881F91505040A9F79E3F510570F05CCFF3
:10475000A6CF5F3FECF3983EDCF38695779567959F
:10476000B795F795E7959F5FC1F7FE2B880F911DD1
:104770009695879597F90895DB018F939F93A0DD18
:10478000BF91AF91A29F800D911DA39F900DB29FED
:10479000900D11240895991B79E004C0991F961774
:1047A00008F0961B881F7A95C9F78095089597FBA6
:1047B000072E16F4009406D077FD08D013D007FC1E
:1047C00005D03EF4909581959F4F08957095619521
:1047D0007F4F0895EE0FFF1F881F8BBF0790F69144
:1047E000E02D1994AA1BBB1B51E107C0AA1FBB1FD8
:1047F000A617B70710F0A61BB70B881F991F5A956D
:10480000A9F780959095BC01CD0108954F925F92D4
:104810006F927F928F929F92AF92BF92CF92DF92D0
:10482000EF92FF920F931F93CF93DF938C0100972A
:1048300091F4CB01DF91CF911F910F91FF90EF90F9
:10484000DF90CF90BF90AF909F908F907F906F90B0
:104850005F904F90C0C0FC01E60FF71F9C012250F3
:104860003109E217F30708F4AAC0D901CD91DC9110
:104870001197C617D70718F1C530D10570F0CE01D2
:1048800004978617970748F0C61BD70B2297C1934A
:10489000D1936D937C93CF013AD1C801DF91CF9131
:1048A0001F910F91FF90EF90DF90CF90BF90AF904E
:1048B0009F908F907F906F905F904F9008955B01D5
:1048C000AC1ABD0A4C018C0E9D1EA0917C0DB091BE
:1048D0007D0D512C412CF12CE12C109731F580915C
:1048E0007A0D90917B0D8815990509F05CC04616EC
:1048F000570608F058C08091020290910302009779
:1049000041F48DB79EB74091060250910702841B77
:10491000950BE817F90708F052C0F0937B0DE09370
:104920007A0DF90171836083B8CF8D919C911197B5
:1049300012966C90129713967C901397A815B90550
:1049400059F56C0142E0C40ED11CCA14DB0420F1FD
:10495000AC014A195B09DA011296159780F0628260
:10496000738251834083D9016D937C93E114F104E8
:1049700071F0D7011396FC93EE9312978ECF229687
:104980008C0F9D1FF90191838083F301EFCFF0938A
:104990007D0DE0937C0D81CF4816590608F42C015B
:1049A0007D01D3019ACFCB0116D07C01009739F05D
:1049B000AE01B80107D0C801AAD087016ECF10E0C0
:1049C00000E06BCFFB01DC0102C001900D92415071
:1049D0005040D8F708950F931F93CF93DF93823001
:1049E000910510F482E090E0E0917C0DF0917D0D56
:1049F00030E020E0B0E0A0E0309799F421153105D7
:104A000009F44AC0281B390B24303105D8F58A81B6
:104A10009B816115710589F1FB0193838283FE01FE
:104A200011C0408151810281138148175907E0F07C
:104A30004817590799F4109761F012960C93129742
:104A400013961C933296CF01DF91CF911F910F9156
:104A5000089500937C0D10937D0DF4CF2115310541
:104A600051F04217530738F0A901DB019A01BD014B
:104A7000DF01F801C1CFEF01F9CF90937D0D809355
:104A80007C0DCDCFFE01E20FF31F81939193225055
:104A9000310939832883D7CF20917A0D30917B0D4E
:104AA000232B41F4209104023091050230937B0DB9
:104AB00020937A0D209102023091030221153105D5
:104AC00041F42DB73EB74091060250910702241BD6
:104AD000350BE0917A0DF0917B0DE217F307A0F40E
:104AE0002E1B3F0B2817390778F0AC014E5F5F4F44
:104AF0002417350748F04E0F5F1F50937B0D4093EE
:104B00007A0D819391939FCFF0E0E0E09CCFCF931B
:104B1000DF930097E9F0FC01329713821282A09193
:104B20007C0DB0917D0DED0130E020E01097A1F4F7
:104B300020813181820F931F20917A0D30917B0D5E
:104B40002817390709F061C0F0937B0DE0937A0DC7
:104B5000DF91CF910895EA01CE17DF07E8F54A818A
:104B60005B819E0141155105B1F7E901FB83EA83A1
:104B700049915991C40FD51FEC17FD0761F480814D
:104B800091810296840F951FE90199838883828120
:104B900093819B838A83F0E0E0E012968D919C9153
:104BA00013970097B9F52D913C911197CD0102967D
:104BB000820F931F20917A0D30917B0D28173907B2
:104BC00039F6309751F510927D0D10927C0DB0930F
:104BD0007B0DA0937A0DBCCFD383C28340815181DA
:104BE000840F951FC817D90761F44E5F5F4F888106
:104BF0009981480F591F518340838A819B819383F8
:104C000082832115310509F0B0CFF0937D0DE0933B
:104C10007C0D9ECFFD01DC01C0CF13821282D7CF65
:044C2000F894FFCF36
:104C2400460000007E0D8000AAFA0314010375CA31
:104C3400AAFA0314010375CA726F7373657269610A
:104C44006C5F6D7367732F52657175657374506112
:104C540072616D0000000000CB12610F5E0F5B0FEC
:104C6400000000009B10551052104F10000000006F
:104C74009C12060F030F000F000000001E055E04C7
:104C8400A4046A05D504B304C704000000007E111F
:104C9400EE0DEB0DE80D00000000390D4F13360D3D
:104CA400330D00000000980DD713D20BCF0B00007A
:104CB4000000BA116A14FD0EFA0E00000000D90BB0
:104CC400ED15B60B00000000FE07D0076809A50922
:104CD40052091609F508C108A0084A081708000077
:104CE40000005714D50BD20BCF0B00000000B90EF7
:104CF400820EC80BC50B00000000A60ECB0BC80B20
:104D0400C50B00000000EF0ECD0EBE0BBB0B000068
:104D14000000DC0EC10BBE0BBB0B3164663739657A
:104D24006466323038623632396665366238313913
:104D340032336135343435353264007374645F6DF5
:104D44007367732F55496E743136003330346133D1
:104D540039343439353838633766386365326466D4
:104D64003665383030316335666365007374645F6B
:104D74006D7367732F55496E74333200316439395A
:104D8400663739663862333235623434666565397C
:104D940030383035336539633934356200737464BF
:104DA4005F6D7367732F496E7433324D756C74691C
:104DB4004172726179004D65737361676520667233
:104DC4006F6D206465766963652064726F707065C9
:104DD400643A206D657373616765206C6172676501
:104DE40072207468616E206275666665722E00308A
:104DF4006665643261313163313365313163353530
:104E040037316234653261393935613931613300A2
:104E14007374645F6D7367732F4D756C746941723D
:104E24007261794C61796F757400346364306338EE
:104E34003361383638336465616534306563646181
:104E440063363065353362666138007374645F6D50
:104E54007367732F4D756C7469417272617944691B
:104E64006D656E73696F6E003966306539386264DA
:104E740061363539383139383664646635336166BC
:104E840061376134306534390031316162643733FC
:104E94003163323539333332363163643631383342
:104EA40062643132643632393500726F73736572FD
:104EB40069616C5F6D7367732F4C6F670030616459
:104EC400353166383866633434383932663863319C
:104ED4003036383430373736343630303500726F48
:104EE4007373657269616C5F6D7367732F546F7050
:104EF4006963496E666F00636437313636633734ED
:104F040063353532633331316662636332666535E6
:104F140061376263323839007374645F6D73677329
:104F24002F54696D65000D0A00203B20002F61722B
:104F34006475696E6F2F736572766F31002F6172BD
:104F44006475696E6F2F736572766F32002F6172AC
:104F54006475696E6F2F6D6F746F7231002F61729B
:104F64006475696E6F2F736C69646572006E666335
:104F74000053746172742048432D313220436F6EA4
:104F8400666967004154004154202B205600415467
:104F9400202B2044454641554C54004154202B209D
:104FA4005038004154202B20433033300053617675
:0E4FB400652026204578697400474F210000D3
:00000001FF
