:10000000F5C0000024C1000022C1000020C1000092
:100010001EC100001CC100001AC1000018C1000070
:1000200016C1000014C1000012C1000010C1000080
:100030000EC100000CC100000AC1000008C1000090
:1000400006C100000C94A91C02C1000000C1000000
:10005000FEC00000FCC00000FAC000000C94D51BDC
:10006000F6C000000C94AB1B0C94811BF0C0000088
:10007000EEC00000ECC00000EAC00000E8C00000D4
:100080000C947B1CE4C00000E2C00000E0C0000053
:100090000C94571B0C942D1BDAC00000D8C0000034
:1000A000D6C00000D4C000000C944D1CD0C000008D
:1000B000CEC00000CCC00000CAC000000C941F1CC1
:1000C000C6C00000C4C00000C2C00000C0C0000024
:1000D000BEC00000BCC000000C94031B0C94D91AD5
:1000E000B6C0000000002100240027002A002D00D7
:1000F0003000330001010000040107010A01000083
:100100002200250028002B002E00310034000201BF
:100110000000050108010B01050505050705080894
:100120000808020202020A0A080804040404010181
:100130000101010101010303030303030303040796
:1001400007070C0C0C0C0C0C0C0C0202020206062D
:100150000606060606060B0B0B0B0B0B0B0B010220
:1001600010202008081020401020408002010201C9
:100170000804020101020408102040808040201081
:1001800008040201800402018040201008040201DA
:100190000804020101020408102040800102040842
:1001A0001020408000000A0B02090C0D0E08070306
:1001B000040100000000000000000000000000003A
:1001C000000000000000000000000000000000002F
:1001D00012111000000000000000000000000000EC
:1001E00000000000000000000000D71C11241FBE0A
:1001F000CFEFD1E2DEBFCDBF00E00CBF15E0A0E045
:10020000B2E0E2ECF0E500E00BBF02C007900D9217
:10021000AA3EB107D9F72DE0AAEEB5E001C01D92C4
:10022000A73DB207E1F710E0C6EFD0E000E006C05E
:1002300021970109802FFE010E943226C53FD10778
:1002400080E00807A9F70E940A200C945F28D8CE06
:100250008F929F92AF92BF92CF92DF92EF92FF92D6
:100260000F931F93CF93DF938B01D82FC92F8090CB
:10027000A60D9090A70DA090A80DB090A90D7501A6
:100280006401F7FAF094F7F8F0949B01482F592F86
:10029000C701B6010E940026181674F098014D2F70
:1002A0005C2FC501B4010E948C237501640187FD98
:1002B00003C06801ED2EFC2E20E030E0A901C7014B
:1002C000B6010E948C2381111DC01092B20D1092B4
:1002D000B30D1092B40D1092B50DC092A20DD09234
:1002E000A30DE092A40DF092A50DDF91CF911F9187
:1002F0000F91FF90EF90DF90CF90BF90AF909F90C5
:100300008F900895A701960160E074E284E799E474
:100310000E9467259F770E94D4256093B20D709349
:10032000B30D8093B40D9093B50DC1E020E030E0A3
:10033000A901C701B6010E94002618160CF0C0E002
:10034000C093D20DCACF4F925F926F927F928F92DD
:100350009F92AF92BF92CF92DF92EF92FF920F9354
:100360001F93CF93DF93C0909E0DD0909F0DE09090
:10037000A00DF090A10D80919A0D90919B0DA091F0
:100380009C0DB0919D0DC81AD90AEA0AFB0A60912A
:10039000A20D7091A30D8091A40D9091A50D9B01CC
:1003A000AC010E94F1234B015C016091AA0D709198
:1003B000AB0D8091AC0D9091AD0D9B01AC010E94F5
:1003C00003259B01AC01C501B4010E9467250E9471
:1003D000CF25C114D104E104F10409F0D3C0623087
:1003E0007105810591050CF0F2C01092B20D1092CA
:1003F000B30D1092B40D1092B50D1092A20D109283
:10040000A30D1092A40D1092A50D1092C20D109282
:10041000C30D1092C40D1092C50DDF91CF911F91A5
:100420000F91FF90EF90DF90CF90BF90AF909F9093
:100430008F907F906F905F904F90089510161106E7
:1004400012061306DCF46C157D058E059F0524F459
:100450002091D20D2111BBC09B01AC0188279927A7
:10046000DC01821B930BA40BB50B8093C20D909300
:10047000C30DA093C40DB093C50DA9C001151105FE
:100480002105310509F4A3C06C157D058E059F0576
:100490000CF09DC08091D20D882309F498C030954E
:1004A0002095109501951F4F2F4F3F4F0093C20D80
:1004B0001093C30D2093C40D3093C50D88C0011552
:1004C00011052105310509F482C0882499245401BD
:1004D0008C189D08AE08BF08681579058A059B052C
:1004E0000CF075C08091D20D811171C0D8CFC09031
:1004F000CA0DD090CB0DE090CC0DF090CD0DA701A2
:100500009601C701B6010E9403252B013C01C501DC
:10051000B4010E94922320E030E040E850E40E94C1
:10052000F12320E030E040E85FE30E9403259B01D7
:10053000AC01C301B2010E9467259B01AC01C70158
:10054000B6010E940225D62FC72F6C01E090CE0D78
:10055000F090CF0D0091D00D1091D10D9701A80111
:100560000E94002618161CF4ED2EFC2E8601C701F1
:10057000D8018093CA0D9093CB0DA093CC0DB0936E
:10058000CD0D4CC00091C20D1091C30D2091C40D32
:100590003091C50D1C141D041E041F040CF44ECF15
:1005A00010161106120613060CF089CF002711272A
:1005B00098010C191D092E093F0960177107820760
:1005C00093070CF049CF2091D20D211145CF809097
:1005D000C20D9090C30DA090C40DB090C50D8114B4
:1005E0009104A104B10409F082CF8091C60D9091CD
:1005F000C70DA091C80DB091C90D8093CA0D9093FD
:10060000CB0DA093CC0DB093CD0D81E01C141D0437
:100610001E041F040CF080E08093D20D3FEF831A7C
:10062000930AA30AB30A8092C20D9092C30DA092BE
:10063000C40DB092C50DC090CA0DD090CB0DE09006
:10064000CC0DF090CD0DC701B6010E94D42560936A
:10065000B20D7093B30D8093B40D9093B50DA701B7
:10066000960160E074E284E799E40E946725609354
:10067000A20D7093A30D8093A40D9093A50D2091CE
:10068000D20D2111CACE90586093A20D7093A30D84
:100690008093A40D9093A50DC0CECF92DF92EF92E0
:1006A000FF92CF93DF93EC016A017B01E889F9891E
:1006B00082E08083C11481EED806E104F104A1F048
:1006C00060E079E08DE390E0A70196010E94D124DB
:1006D000215031094109510956954795379527957C
:1006E000211580E1380798F0E889F989108260E8DF
:1006F00074E88EE190E0A70196010E94D124215078
:100700003109410951095695479537952795EC854B
:10071000FD853083EE85FF852083188EEC89FD8969
:1007200086E08083EA89FB89808180618083EA8911
:10073000FB89808188608083EA89FB898081806869
:100740008083EA89FB8980818F7D8083DF91CF91CF
:10075000FF90EF90DF90CF900895E9ECF8E086816C
:10076000978164817581DC01ED91FC910190F081AC
:10077000E02D43ED58E019940895AF92BF92CF92C7
:10078000DF92EF92FF920F931F93CF93DF936C0151
:100790007B018B01040F151FEB015E01AE18BF0832
:1007A000C017D10759F06991D601ED91FC910190E4
:1007B000F081E02DC6011995892B79F7C501DF91EC
:1007C000CF911F910F91FF90EF90DF90CF90BF904E
:1007D000AF900895FC01A089B1898C91A689B78951
:1007E00082FD0FC09C91818D8F5F8F73228D821748
:1007F00049F0A18DAE0FBF2FB11D5D969C93818FE7
:1008000008958C910895FC01538D448D252F30E07F
:10081000842F90E0821B930B541710F0CF9608950D
:1008200001970895FC01918D828D981761F0A28D3A
:10083000AE0FBF2FB11D5D968C91928D9F5F9F7300
:10084000928F90E008958FEF9FEF0895FC01918DB6
:10085000828D981731F0828DE80FF11D858D90E023
:1008600008958FEF9FEF0895FC01918D228D892FC0
:1008700090E0805C9F4F821B91098F7399270895A8
:1008800087EF95E0F1DF21E0892B09F420E0822F4A
:10089000089584E996E0E8DF21E0892B09F420E05F
:1008A000822F089581E397E0DFDF21E0892B09F4AF
:1008B00020E0822F0895FC01A48DA80FB92FB11D4F
:1008C000A35ABF4F2C91848D90E001968F73992786
:1008D000848FA689B7892C93A089B1898C91837064
:1008E00080648C93938D848D981306C00288F3895D
:1008F000E02D80818F7D80830895EF92FF920F938A
:100900001F93CF93DF93EC0181E0888F9B8D8C8DBB
:1009100098131AC0E889F989808185FF15C09FB7AF
:10092000F894EE89FF896083E889F9898081837072
:10093000806480839FBF81E090E0DF91CF911F9121
:100940000F91FF90EF900895F62E0B8D10E00F5F42
:100950001F4F0F731127E02E8C8D8E110BC00FB619
:1009600007FCFACFE889F989808185FFF5CFCE01B0
:10097000A2DFF2CFEB8DEC0FFD2FF11DE35AFF4FFD
:10098000F0829FB7F8940B8FEA89FB89808180629F
:10099000D0CFEF92FF921F93CF93DF937C0184EF30
:1009A00092E09093D6088093D508D7DED0E0C0E0DF
:1009B000D7019296ED91FC91EC0FFD1F1081612FF4
:1009C00087EF95E09ADF612F70E07093D60860930F
:1009D000D508C3DE2496C034D10551F7DF91CF91FD
:1009E0001F91FF90EF900895CF93DF93EC01888DD6
:1009F0008823B1F0AA89BB89E889F9898C9185FDA2
:100A000003C0808186FD0CC00FB607FCF7CF8C9128
:100A100085FFF2CF808185FFEDCFCE014CDFEACF9D
:100A2000DF91CF91089580E090E0892B21F03ADFAB
:100A300081110E94000080E090E0892B21F029DFE5
:100A400081110E94000080E090E0892B49F080E055
:100A500090E0892B29F00E94000081110E94000083
:100A600080E090E0892B21F00BDF81110C940000D5
:100A70000895282F30E0F901EC55FE4F9491F901CB
:100A8000E25AFE4F4491285E3E4FF9012491222301
:100A900009F435C0992311F191509231F8F4E92FFE
:100AA000F0E08827E95AFA4F8F4F0C9432268805D8
:100AB0008C056905800584056E058F0595059905EA
:100AC0009F05A305A705AD05B1056E05B505BB05D9
:100AD000BF05809180008F7780938000E22FF0E047
:100AE000EE0FFF1FE250FF4FA591B4918FB7F8941E
:100AF000EC91611148C040954E234C938FBF0895EF
:100B0000809180008F7DE8CF80918000877FE4CF47
:100B100084B58F7784BDE2CF84B58F7DFBCF809184
:100B2000B0008F778093B000D9CF8091B0008F7DD7
:100B3000F9CF809190008F7780939000CFCF8091F4
:100B400090008F7DF9CF80919000877FF5CF8091C5
:100B5000A0008F778093A000C1CF8091A0008F7DEF
:100B6000F9CF8091A000877FF5CF809120018F770A
:100B700080932001B3CF809120018F7DF9CF8091A8
:100B80002001877FF5CF4E2BB8CF282FEDEAF1E07B
:100B9000E491E150E23108F0C8C0F0E08827EC525F
:100BA000FA4F8F4F0C943226E605EB05F005FC0555
:100BB0000806950614061C06240630063C06480660
:100BC00059066506950671067D06890684B5806816
:100BD00084BD27BD089584B5806284BD28BD089575
:100BE00080918000806880938000422F592F50931D
:100BF00089004093880008958091800080628093EE
:100C00008000422F592F50938B0040938A00089503
:100C100080918000886080938000422F592F5093EC
:100C20008D0040938C0008958091B000806880937F
:100C3000B0002093B30008958091B000806280934B
:100C4000B0002093B4000895809190008068809354
:100C50009000422F592F5093990040939800089587
:100C600080919000806280939000422F592F509382
:100C70009B0040939A000895809190008860809333
:100C80009000422F592F50939D0040939C0008954F
:100C90008091A00080688093A0008091A0008F7B4D
:100CA0008093A000422F592F5093A9004093A80091
:100CB00008958091A00080628093A000422F592F58
:100CC0005093AB004093AA0008958091A0008860E3
:100CD0008093A000422F592F5093AD004093AC0059
:100CE000089580912001806880932001422F592F20
:100CF000509329014093280108958091200180623A
:100D000080932001422F592F50932B0140932A01A9
:100D1000089580912001886080932001422F592FEF
:100D200050932D0140932C01089561E089E0A1CEFC
:100D3000CF93DF9390E0FC01E25AFE4F2491885E4E
:100D40009E4FFC0184918823D1F090E0880F991F79
:100D5000FC01EC51FF4FA591B491FC01E250FF4F13
:100D6000C591D491623071F49FB7F8943C91822F71
:100D7000809583238C93E8812E2B28839FBFDF915E
:100D8000CF9108958FB7F894EC912E2B2C938FBFB1
:100D9000F6CF3FB7F8948091F3059091F405A091B8
:100DA000F505B091F60526B5A89B05C02F3F19F0B3
:100DB0000196A11DB11D3FBFBA2FA92F982F8827DB
:100DC000BC01CD01620F711D811D911D42E0660FB6
:100DD000771F881F991F4A95D1F708958F929F9288
:100DE000AF92BF92CF92DF92EF92FF924B015C01E4
:100DF000D0DF6B017C01CDDF6C197D098E099F0965
:100E0000683E734081059105B0F321E0821A910894
:100E1000A108B10888EEC80E83E0D81EE11CF11CC1
:100E200081149104A104B10431F7FF90EF90DF9099
:100E3000CF90BF90AF909F908F9008952FB7F89468
:100E40006091EF057091F0058091F1059091F205A8
:100E50002FBF08950F931F93F1DF6093FF057093E9
:100E60000006809301069093020687EF95E0DADC96
:100E700097FF1CC0E3DF0091FF0510910006209151
:100E8000010630910206601B710B820B930B0091DF
:100E9000FB051091FC052091FD053091FE056017C2
:100EA00071078207930708F38FEF9FEF1F910F9150
:100EB0000895CF93DF93FC012281222329F1EC01D5
:100EC00061E0838135DF61E08C8132DF8A818430AB
:100ED00011F0883091F461E08D812ADF61E08E812C
:100EE00027DF8EA58F3F81F061E022DF6DA581E0D5
:100EF00068278EA5DF91CF91BCCD833011F086306D
:100F000081F761E08D81ECCFDF91CF910895CF9390
:100F1000DF93FC012281222381F0EC010190F0811A
:100F2000E02D0480F581E02D60E019958EA58F3FBE
:100F300021F06DA5DF91CF919CCDDF91CF910895E8
:100F4000DC01ED91FC911197248135814770552783
:100F500066277727415051096109710947305105CA
:100F60006105710570F4FA018827E654F84F8F4F38
:100F70000C943226C507C707C907CB07CD07CF0793
:100F8000D10761E0CD01F901199465E0FBCF64E080
:100F9000F9CF66E0F7CF62E0F5CF6AE0F3CF68E023
:100FA000F1CF69E0EFCFCF93DF93EC01CB01BA0132
:100FB00026E030E040E050E00E94A5246230710558
:100FC0008105910589F16CF4611571058105910523
:100FD000D1F06130710581059105F9F0DF91CF9174
:100FE0000895643071058105910561F124F1653042
:100FF00071058105910591F7E881F9810480F581FA
:10100000E02D66E006C0E881F9810480F581E02DDD
:1010100064E0CE01DF91CF911994E881F9810480D9
:10102000F581E02D65E0F5CFE881F9810480F58157
:10103000E02D61E0EECFE881F9810480F581E02DBB
:1010400063E0E7CFE881F9810480F581E02D62E07B
:10105000E0CFDC01ED91FC910480F581E02D43703F
:10106000552766277727423051056105710571F0D4
:10107000433051056105710559F041305105610555
:10108000710511F065E0199466E0FDCF6AE0FBCFD1
:1010900069E0F9CFCF93DF93EC01CB01BA0123E0F4
:1010A00030E040E050E00E94A524613071058105E8
:1010B000910599F06230710581059105A9F0672BC2
:1010C000682B692BC1F4E881F9810480F581E02D5A
:1010D00064E0CE01DF91CF911994E881F981048019
:1010E000F581E02D61E0F5CFE881F9810480F5819B
:1010F000E02D62E0EECFDF91CF910895DC01ED911C
:10110000FC910480F581E02D4370552766277727F1
:10111000423051056105710571F04330510561059B
:10112000710559F0413051056105710511F062E01A
:10113000199463E0FDCF61E0FBCF60E0F9CF0F933E
:101140001F93CF93DF93EC01E881F9810480F5814F
:10115000E02D8C010D5B1F4FD8018C9160E0811157
:1011600062E0CE011995E881F9810480F581E02DD6
:10117000D8018C9161E0811163E0CE0119958BA5B6
:101180009CA58230910538F0880F991F880F991F10
:1011900005970197F1F7E881F9810480F581E02D49
:1011A000D8018C9160E0811162E0CE01DF91CF9196
:1011B0001F910F911994CF93DF93EC0120E030E061
:1011C000A9016B897C898D899E890E940026181649
:1011D0002CF4EFA5F8A9DF91CF911994E9A9FAA908
:1011E000FACFCF92DF92EF92FF920F931F93CF939C
:1011F000DF93DC011296CC91C43039F0C83051F144
:10120000C33019F0C63041F1C2E08C010D5F1F4FB1
:10121000F12CE12CC62ED12CD1E0F8016481C6015D
:101220000E2C02C0959587950A94E2F780FD6D27F4
:101230000F5F1F4F80811DDCBFEFEB1AFB0AEC161E
:1012400060F3DF91CF911F910F91FF90EF90DF90AE
:10125000CF900895C4E0D9CFC3E0D7CFDC01129678
:10126000EC911297E93008F042C0F0E08827E45C86
:10127000F64F8F4F0C94322645094D0954095B09EE
:1012800062097709690977097009ED91FC91119755
:101290000084F185E02DCD011994ED91FC91119719
:1012A0000284F385E02DF7CFED91FC911197048432
:1012B000F585E02DF0CFED91FC9111970684F7852F
:1012C000E02DE9CFED91FC9111970088F189E02D97
:1012D000E2CFED91FC9111970288F389E02DDBCFED
:1012E000ED91FC9111970488F589E02DD4CF0895F4
:1012F000CF92DF92EF92FF924CDD6B017C01409127
:10130000B60D5091B70D6091B80D7091B90D8091E7
:10131000B20D9091B30DA091B40DB091B50D840FA5
:10132000951FA61FB71F84179507A607B707D0F10B
:10133000C816D906EA06FB0628F4C416D506E60642
:10134000F706A8F580919A0D90919B0DA0919C0DA8
:10135000B0919D0D2091D20D222359F10196A11D2E
:10136000B11D80939A0D90939B0DA0939C0DB0930B
:101370009D0D40919A0D50919B0D60919C0D709127
:101380009D0D8FE89DE06ADFC092B60DD092B70D3B
:10139000E092B80DF092B90D81E0FF90EF90DF90F0
:1013A000CF900895C816D906EA06FB0630F680E00D
:1013B000F4CF0197A109B109D4CFCF92DF92EF9278
:1013C000FF92CF93DF93EC01603282E07807CCF597
:1013D000653B710514F064EB70E0898128E830E02A
:1013E000281B310987FD3395220F331F220F331F2E
:1013F0006901330FEE08FF088A8128E532E0281BD7
:10140000310987FD3395220F331F220F331F032E1F
:10141000000C440B550B2C193D094E095F09DB01EB
:1014200077FF02C0B0E0A0E00E94CB2424EB30E0C4
:1014300040E050E00E94A524C20ED31EE41EF51E1B
:10144000B601E881E03370F5298188E890E0821BDD
:10145000910927FD9395880F991F880F991F681789
:1014600079077CF02A8188E592E0821B910927FDAB
:101470009395880F991F880F991F681779070CF4A7
:10148000CB010297880F991F4FB7F8942E2F30E0A9
:10149000F901EE0FFF1FE20FF31FE253F84F9283A3
:1014A00081834FBFDF91CF91FF90EF90DF90CF907E
:1014B0000895FC01628173818CE89DE07ECFFC0180
:1014C0006281738189E89DE078CF1F93CF93DF938A
:1014D000EC01162F8881803308F04DC061E0812F28
:1014E00027DC8881282F30E0F901EE0FFF1FE20F83
:1014F000F31FE253F84F1F736081607C612B6083A0
:1015000019821A822CE0622F0E941326829FB0015A
:10151000112430E020E0AB01420F531FFA01EE0F1F
:10152000FF1FE40FF51FE253F84F908196FD16C0A0
:101530002F5F3F4F2C30310571F7813009F5109244
:10154000800082E0809381001092850010928400D8
:10155000B19A80916F00826080936F00E8818E2F36
:1015600090E0FC01EE0FFF1FE80FF91FE253F84F68
:101570008081806480838881DF91CF911F9108955D
:10158000823061F410929000809391001092950047
:101590001092940088BB80937100E0CF833069F48F
:1015A0001092A00082E08093A1001092A5001092FA
:1015B000A40089BB80937200D1CF8111CFCF10924C
:1015C000200182E0809321011092250110922401D4
:1015D0008ABB80937300C2CFAF92BF92CF92DF924B
:1015E000EF92FF920F931F93CF93DF936B017A01DA
:1015F000EC01C651DA4F28813CE0389F8001399FC9
:10160000100D1124A0905E08B12C27FF1FC0FB0114
:101610001182108288818F5F888388819801280FCA
:10162000311D87FD3A95F6012A153B051CF488818A
:101630008C30BCF180819181049680349C4908F4FF
:1016400071C0F6018081918104966EC088819801F5
:10165000280F311D87FD3A952A153B05DCF6888158
:10166000A801480F511D87FD5A95FA01EE0FFF1F83
:10167000E40FF51FE253F84F808186FFCBCF8881BE
:10168000F801E80FF11D87FDFA95CF01EE0FFF1F5E
:10169000E80FF91FE253F84F808160E08F73E9D9BA
:1016A000B9CF808191812881A801420F511D27FD6A
:1016B0005A959A01FA01EE0FFF1FE20FF31FE25352
:1016C000F84F21813281820F931FF701918380832C
:1016D00088819801280F311D87FD3A95F901EE0F99
:1016E000FF1FE20FF31FE253F84F808186FF21C0F6
:1016F0008881080F111D87FD1A95F801EE0FFF1F55
:10170000E00FF11FE253F84F808161E08F73DF91AA
:10171000CF911F910F91FF90EF90DF90CF90BF90EE
:10172000AF90A7C980E49CE9F701918380838FEF94
:101730008883DF91CF911F910F91FF90EF90DF9001
:10174000CF90BF90AF9008958A579B4FFC01808146
:10175000089588EF92E0089589E193E00895FC01EF
:1017600084859585089589E293E008958AE493E05D
:101770000895FC018685978508958AE593E008958C
:101780008BE793E00895FC0184A595A50895AF9299
:10179000BF92CF92DF92EF92FF920F931F93CF935E
:1017A000DF9300D01F921F92CDB7DEB7643671056C
:1017B0004CF0FC01EA57FB4F2081F12CE12C222355
:1017C00009F476C0DA017B018C01BC01615E7D4FBA
:1017D000ED91FC910190F081E02DCA01199568010D
:1017E00028EEC21A2DEFD20A2FEFD6012C93F80162
:1017F000E75EFD4F2EEF20833196808331969083F4
:101800003196292F280F209520833196E082169655
:10181000FC9245E050E030E020E0DC011696A41791
:10182000B50734F06191260F311D4F5F5F4FF7CF41
:101830007C01B8E0EB0EF11C800F911FFC01E15E12
:10184000FD4F20952083E1E0EE16E2E0FE06B4F4C1
:101850005601C5018C199D098E159F054CF5D801BF
:1018600012968D919C91F50161915F01DC01ED91E2
:10187000FC910190F081E02D1995EBCF8EE392E081
:101880009A83898383E08B8384E993E09D838C83AF
:10189000D801ED91FC910190F081E02DAE014F5FF8
:1018A0005F4F67E070E0C8011995EE24EA94FE2CC2
:1018B000C7010F900F900F900F900F90DF91CF9175
:1018C0001F910F91FF90EF90DF90CF90BF90AF905E
:1018D00008950F931F93CF93DF9300D000D000D0D3
:1018E0001F92CDB7DEB78C0182E392E09A838983A1
:1018F0001B821C821D821E821F82188619861A86F0
:10190000D801ED91FC910190F081E02DAE014F5F87
:101910005F4F6AE070E0C801199590DAF8016087BE
:101920007187828793872A960FB6F894DEBF0FBE21
:10193000CDBFDF91CF911F910F910895CF92DF928C
:10194000EF92FF92DC011D921D921D921C92139743
:10195000FB0130E020E0419150E0022E02C0440F34
:10196000551F0A94E2F7052E000C660B770BCD90FD
:10197000DD90ED90FC9013974C295D296E297F290D
:101980004D935D936D937C931397285F3F4F203267
:10199000310509F7FF90EF90DF90CF900895FC019B
:1019A000408351831282138208954F925F926F9207
:1019B0007F928F929F92AF92BF92CF92DF92EF92DF
:1019C000FF92CF93DF9300D01F92CDB7DEB7FC011B
:1019D00082819381A481B5810097A105B10509F0A9
:1019E00081C08090A20D9090A30DA090A40DB09006
:1019F000A50D20E030E0A901C501B4010E948C23AF
:101A0000882309F4C2C0A5019401C501B4010E9454
:101A1000F1236B017C016091AA0D7091AB0D809157
:101A2000AC0D9091AD0D9B01AC010E9403259B0173
:101A3000AC01C701B6010E9467250E94CF256B014A
:101A40007C0140909A0D50909B0D60909C0D709081
:101A50009D0D80919E0D90919F0DA091A00DB09134
:101A6000A10D89839A83AB83BC8320E030E0A90178
:101A7000C501B4010E94002618167CF59FEFC91A13
:101A8000D90AE90AF90A4C0C5D1C6E1C7F1C89817D
:101A90009A81AB81BC81481659066A067B0609F417
:101AA00074C040929E0D50929F0D6092A00D709256
:101AB000A10D0F900F900F900F90DF91CF91FF909D
:101AC000EF90DF90CF90BF90AF909F908F907F90DE
:101AD0006F905F904F900C94A301C094D094E094C9
:101AE000F094D1CF81309105A105B105A9F520E091
:101AF00030E04CE852EC6091A20D7091A30D809102
:101B0000A40D9091A50D0E948C23882331F060E0F4
:101B100070E08CE892EC0E9428018091B20D9091C7
:101B2000B30DA091B40DB091B50D892B8A2B8B2BE1
:101B300061F10F900F900F900F90DF91CF91FF9078
:101B4000EF90DF90CF90BF90AF909F908F907F905D
:101B50006F905F904F90CCCB0297A105B105A9F48F
:101B600020E030E04CE852E46091A20D7091A30DAA
:101B70008091A40D9091A50D0E948C23882369F279
:101B800060E070E08CE892E4C6CF0F900F900F9069
:101B90000F90DF91CF91FF90EF90DF90CF90BF90AB
:101BA000AF909F908F907F906F905F904F9008952F
:101BB0008DEC93E008958EEE93E008954F925F923E
:101BC0006F927F928F929F92AF92BF92EF92FF920D
:101BD0000F931F93CF93DF9300D01F92CDB7DEB743
:101BE0007C018B01CE010196A9DE89819A81AB81AE
:101BF000BC814C015D0124E0820E911CA11CB11C32
:101C0000A8014D5F5F4FFA0124E030E02901712CFB
:101C1000612C481459046A047B0428F4618161939F
:101C20002F5F3F4FF3CFF801E80FF91F1382F70141
:101C30005383428304960F900F900F900F90DF9183
:101C4000CF911F910F91FF90EF90BF90AF909F9019
:101C50008F907F906F905F904F9008958EEF93E0FC
:101C600008958FE194E008958F929F92AF92BF9272
:101C7000CF92DF92EF92FF920F931F93CF93DF9358
:101C8000EC018B018A81FB0180838B8181838C81B4
:101C900082838D818383D12CC12C812C912C540182
:101CA00084E0E82EF12CD801AE0DBF1D4A815B8186
:101CB0006C817D8184169506A606B706C0F48A89D4
:101CC0009B898C0D9D1DFC0120813181F9012081B2
:101CD0003181BD01F9011995E80EF91EFFEF8F1A48
:101CE0009F0AAF0ABF0A8CE0C80ED11CDCCF8C89DA
:101CF0008C938D8911968C9311978E8912968C9363
:101D000012978F8913968C93C7010496DF91CF9118
:101D10001F910F91FF90EF90DF90CF90BF90AF9009
:101D20009F908F900895AF92BF92DF92EF92FF92B3
:101D30000F931F93CF93DF93EC018B01029694DFF7
:101D40005801A80EB91E2A8DF50120832B8D218301
:101D50002C8D22832D8D23830496D50140E050E005
:101D6000BA010A8D1B8D2C8D3D8D401751076207DE
:101D70007307F8F49D012A193B09EAA0FBA0E20EC3
:101D8000F31EF701D0801181328123811496DC92F9
:101D9000149715961C93159716963C9316971796BD
:101DA0002C93179704964F5F5F4F6F4F7F4F14969A
:101DB000D8CFDF91CF911F910F91FF90EF90DF90DF
:101DC000BF90AF90089589E394E008958AE594E088
:101DD00008954F925F926F927F928F929F92AF92EF
:101DE000BF92EF92FF920F931F93CF93DF9300D098
:101DF0001F92CDB7DEB78C017B01CE0101969EDD2F
:101E000089819A81AB81BC814C015D0124E0820E05
:101E1000911CA11CB11CA7014D5F5F4FFA0124E08A
:101E200030E02901712C612C481459046A047B04A8
:101E300028F4618161932F5F3F4FF3CFE80EF91EC5
:101E4000F7011382F80153834283F701448150E084
:101E500070E060E0F8014483558366837783F7017F
:101E60002581522BF8014483558366837783F701DC
:101E70002681622BF8014483558366837783F701BB
:101E80002781722BF8014483558366837783F7019A
:101E9000408550E070E060E0F8014087518762873C
:101EA0007387F7012185522BF8014087518762879C
:101EB0007387F7012285622BF8014087518762877B
:101EC0007387F7012385722BF8014087518762875A
:101ED00073870C960F900F900F900F90DF91CF911A
:101EE0001F910F91FF90EF90BF90AF909F908F90B8
:101EF0007F906F905F904F900895FC01DB014C91B3
:101F000050E070E060E042835383648375831196F0
:101F10008C911197582B4283538364837583129657
:101F20008C911297682B4283538364837583139635
:101F30008C91782B428353836483758384E090E093
:101F400008950F931F93CF93DF938C01EC01269696
:101F5000CE01D3DFD8011C96ED91FC91CE01DF912B
:101F6000CF911F910F911994DC01FB0112968C9176
:101F70001297808313968C911397818314968C917A
:101F80001497828315968C91838384E090E0089562
:101F9000FB01208130E0FC0133832283FB0141817E
:101FA000342BFC013383228382E090E008950F9369
:101FB0001F93CF93DF938C01EC012696CE01E8DFCF
:101FC000D8011A96ED91FC91CE01DF91CF911F912E
:101FD0000F911994FC012281FB012083FC01838174
:101FE000FB01818382E090E0089587E794E0089503
:101FF00086E092E0089588E994E0089589EB94E002
:1020000008954F925F926F927F928F929F92AF92BC
:10201000BF92EF92FF920F931F93CF93DF9300D065
:102020001F92CDB7DEB77C018B01FB018191BF010F
:10203000F7018283CE01019681DC89819A81AB818F
:10204000BC814C015D01F5E08F0E911CA11CB11CFF
:10205000A8014C5F5F4FFA0125E030E02901712CA7
:10206000612C481459046A047B0428F4618161934B
:102070002F5F3F4FF3CFF801E80FF91F1482F701EC
:102080005483438305960F900F900F900F90DF912C
:10209000CF911F910F91FF90EF90BF90AF909F90C5
:1020A0008F907F906F905F904F9008958CEC94E0AC
:1020B00008958DEE94E008954F925F926F927F9213
:1020C0008F929F92AF92BF92CF92DF92EF92FF9248
:1020D0000F931F93CF93DF93CDB7DEB72C970FB637
:1020E000F894DEBF0FBECDBF7C018B01DB018C916C
:1020F00090E0F7019383828311962C91922B938326
:1021000082836E5F7F4FCE01019618DC89809A80B2
:10211000AB80BC8024013501F6E04F0E511C611CE0
:10212000711C98012B5F3F4FF90186E090E0AC01F4
:1021300070E060E0441555056605770520F441819F
:1021400041930196F4CFB4016A5F7F4FF801E80D27
:10215000F91D1582D70115963C932E931497600FA5
:10216000711FCE010596EADBBAE08B0E911C4D8003
:102170005E806F807884C401092C000CAA0BBB0B15
:102180005C016D01A40CB51CC61CD71CF801E80D40
:10219000F91DAF01401B510B70E060E04A155B0573
:1021A0006C057D0538F42191AF0142505109DA01E7
:1021B0002C93EFCF480C591CB801640D751DFB0121
:1021C00031971082C4010197800F911FF701978307
:1021D0008683CE010996B2DB92012C5F3F4F898442
:1021E0009A84AB84BC84A901032E000C660B770B88
:1021F000480D591D6A1D7B1DF801E20FF31FCF0129
:10220000801B910BB0E0A0E084179507A607B707E5
:1022100028F48191DF0112978C93F1CFC901880DC9
:10222000991DF801E80FF91FDF0111971C92215049
:102230003109020F131FD70119961C930E9318979B
:102240002181428150E070E060E0BA0155274427C7
:10225000522B2081422B2381722BF7014287538717
:102260006487758704962C960FB6F894DEBF0FBE70
:10227000CDBFDF91CF911F910F91FF90EF90DF9035
:10228000CF90BF90AF909F908F907F906F905F9016
:102290004F90089586E095E0089587E295E00895CF
:1022A000FC01DB014C9150E070E060E0428353831D
:1022B0006483758311968C911197582B42835383B5
:1022C0006483758312968C911297682B4283538393
:1022D0006483758313968C911397782B4283538371
:1022E0006483758314964C91149750E070E060E01D
:1022F000468357836087718715968C911597582B65
:10230000468357836087718716968C911697682B42
:10231000468357836087718717968C91782B468305
:1023200057836087718788E090E00895DC01FB01A6
:1023300012968C911297808313968C9113978183B8
:1023400014968C911497828315968C91159783839C
:1023500016968C911697848317968C911797858380
:1023600018968C911897868319968C91878388E0AC
:1023700090E0089542E050E065E375E00C94BD0301
:10238000CF93DF93FC01448155816081718184E9A1
:1023900096E00E94BD03EC0184E996E0EBDF8C0F30
:1023A0009D1FDF91CF9108950F931F93CF93DF93DC
:1023B000EC01FB0101900020E9F73197AF01461BCA
:1023C000570B0E94BD038C01CE01D4DF800F911FFB
:1023D000DF91CF911F910F9108950F931F93CF938A
:1023E000DF938C01EB01FC01808191810097E1F08A
:1023F0006881798161157105A9F0428153812C8131
:102400003D814217530770F00E9458288C819D81AE
:10241000F801958384831D821C82DF91CF911F91E7
:102420000F9108950E94EA2688819981F80191838D
:1024300080838A819B81938382838C819D81958314
:102440008483198218821B821A82E5CFFC01808165
:102450009181009711F00C94EA260895FC01828185
:102460009381A481B58161E082309105A105B10518
:1024700059F489E00E94980682E890E00E94C50520
:1024800060E088E00C9439050197A105B10549F495
:1024900089E00E94980682E890E00E94C50561E00C
:1024A000F0CF89E00E94980661E089E00E9439053A
:1024B000F6CF0F931F93CF93DF93EC01888199811F
:1024C000009759F02A813B812617370730F081E0C9
:1024D000DF91CF911F910F9108958B016F5F7F4F17
:1024E0000E947327009759F0998388831B830A837E
:1024F0002C813D81232B59F7FC011082E8CF80E02D
:10250000E7CFEF92FF920F931F93CF93DF931F922A
:102510001F92CDB7DEB78C01FC01118210821382AD
:1025200012821582148270E060E0C3DFF80120811E
:102530003181811131C02115310519F0C9010E9485
:10254000EA26F80111821082158214821382128207
:102550000E942A0797FD28C08A30910529F18983B6
:102560001A82F801E480F580FFEFEF1AFF0AB70145
:10257000C8019FDF882361F3F801208131818481C4
:102580009581BE016F5F7F4F820F931F0E94582875
:10259000F801F582E482DCCF1582148267E375E0EE
:1025A000C9010E945828D4CFC8010F900F90DF9125
:1025B000CF911F910F91FF90EF900895EF92FF92AE
:1025C0000F931F93CF93DF937C018B01DC01129655
:1025D000ED91FC91EF0109900020E9F72197CE1BC6
:1025E000DF0BAE0170E060E0C801D9D9F70162816C
:1025F0007381AE01C80104960E944F28CE01049653
:10260000DF91CF911F910F91FF90EF9008954F921E
:102610005F926F927F92AF92BF92CF92DF92EF92D2
:10262000FF920F931F93CF93DF93EC015B01FB01AC
:10263000C080D180E280F3808A819B81AC81BD81A2
:102640008C159D05AE05BF0560F48CE08C9DB00136
:102650008D9D700D11248A899B890E9473279B8B05
:102660008A8BCA82DB82EC82FD82F12CE12C412C28
:10267000512C320104E010E06E01F6E0CF0ED11CC7
:10268000F501E00FF11F8A819B81AC81BD81481665
:1026900059066A067B06C0F4BF01C6019ADB080F23
:1026A000191FAA89BB89AE0DBF1D8CE0F6010190F0
:1026B0000D928A95E1F78FEF481A580A680A780A4E
:1026C000ECE0EE0EF11CDCCF808190E0B0E0A0E009
:1026D0008C8B9D8BAE8BBF8B2181922B8C8B9D8B9A
:1026E000AE8BBF8B2281A22B8C8B9D8BAE8BBF8B35
:1026F0002381B22B8C8B9D8BAE8BBF8BC801049634
:10270000DF91CF911F910F91FF90EF90DF90CF90CD
:10271000BF90AF907F906F905F904F900895AF9271
:10272000BF92CF92DF92EF92FF920F931F93CF93BE
:10273000DF93EC018B0102966ADF080F191FF80185
:1027400020813181C280D12CF12CE12C7601DD2455
:10275000CC24D32AC22A2381F22A5C01F4E0AF0EF2
:10276000B11C8A8D9B8DAC8DBD8D8C159D05AE05E4
:10277000BF0558F4B601660F771F660F771F8AA151
:102780009BA10E9473279BA38AA3CA8EDB8EEC8E2B
:10279000FD8E9801C12CD12C7601AE01425E5F4FB7
:1027A0008A8D9B8DAC8DBD8DC816D906EA06FB06B9
:1027B00050F5F9016581868190E0B0E0A0E0DC0190
:1027C00099278827962B6481862B6781B62B8E8F5D
:1027D0009F8FA8A3B9A3F4E0AF0EB11CC901801B61
:1027E000910BAAA1BBA1A80FB91F84E0FA01019027
:1027F0000D928A95E1F78FEFC81AD80AE80AF80A0D
:102800002C5F3F4FCDCFC501DF91CF911F910F912D
:10281000FF90EF90DF90CF90BF90AF9008950F930F
:102820001F93CF93DF938C01EC012696CE0177DFC7
:10283000D8019A96ED91FC91CE01DF91CF911F9135
:102840000F911994EF92FF920F931F93CF93DF9301
:102850008C01EB01FC01A281B381FD0101900020FC
:10286000E9F731977F01EA1AFB0AA70170E060E0FF
:10287000CE0195D8F80162817381A701CE0104963B
:102880000E944F28CE0DDF1DF80184818C83858145
:102890008D8386818E8387818F83808588878185DC
:1028A000898782858A8783858B87C7010C96DF910C
:1028B000CF911F910F91FF90EF9008952F923F922B
:1028C0004F925F926F927F928F929F92AF92BF9240
:1028D000CF92DF92EF92FF920F931F93CF93DF93EC
:1028E000CDB7DEB72E970FB6F894DEBF0FBECDBFC3
:1028F0008C016B01DB018D909D90AD90BC90FC0133
:1029000082819381A481B58188159905AA05BB05AB
:1029100070F4B401660F771F660F771F8285938569
:102920000E947327D8011B969C938E931A97F801E7
:1029300082829382A482B582C60140E050E0BA014F
:10294000A4E0EA2EF12C98012A5F3F4FDC01159696
:10295000EC91159716964C901697512C712C612C72
:102960003201552444245E2A1496EC9114974E2A81
:102970001796EC917E2AD7011701E4E02E0E311C48
:1029800071010496F80182809380A480B580481577
:1029900059056A057B05A8F44682578260867186D0
:1029A0001497A284B384AA0DBB1DE4E0BE2EF901E6
:1029B00001900D92BA94E1F74F5F5F4F6F4F7F4FD9
:1029C000C5CF84859585A685B78584159505A6050B
:1029D000B70570F4B201660F771F660F771F848901
:1029E00095890E947327D80155969C938E9354978E
:1029F000F8014486558666867786C601820D931D4A
:102A0000412C512C32011C019801205F3F4FDC0109
:102A100011966C91119712968C901297912CB12C63
:102A2000A12C540199248824962A6C91862A139605
:102A30006C91B62AB4E0EB0EF11CF8014485558583
:102A4000668577854416550666067706C0F4808A43
:102A5000918AA28AB38ABC0162197309A489B589D3
:102A6000A60FB71F64E0F90101900D926A95E1F796
:102A7000BFEF4B1A5B0A6B0A7B0A0496C8CF8689A4
:102A80009789A08DB18D88159905AA05BB0560F4BD
:102A9000B401660F771F848D958D0E947327D8012E
:102AA0005D969C938E935C97F801868A978AA08E98
:102AB000B18E412C512C32011801FAE12F0E311C3C
:102AC000F80186899789A08DB18D481659066A0646
:102AD0007B0608F05CC0B6016E0D7F1DCE0101962D
:102AE0000E949E0C97012C5F3F4F3E872D87898067
:102AF0009A80AB80BC80C901032E000CAA0BBB0BD3
:102B0000AC01BD01480D591D6A1D7B1D49875A87BF
:102B10006B877C87F901EC0DFD1D9F012C193D0988
:102B2000B90190E080E029853A854B855C85621784
:102B300073078407950728F42191DF0112972C93DE
:102B4000ECCFED84FE84E80CF91CF601EE0DFF1DC0
:102B5000319710828D859E8501978C0D9D1DD80122
:102B60005B969C938E935A97C201880F991F5C962F
:102B7000ED91FC91E80FF91FD1018D919C9191830A
:102B80008083BFEF4B1A5B0A6B0A7B0A99CFC701A0
:102B90002E960FB6F894DEBF0FBECDBFDF91CF915A
:102BA0001F910F91FF90EF90DF90CF90BF90AF906B
:102BB0009F908F907F906F905F904F903F902F905D
:102BC00008952F923F924F925F926F927F928F92D1
:102BD0009F92AF92BF92CF92DF92EF92FF920F93AC
:102BE0001F93CF93DF93CDB7DEB7A6970FB6F894B8
:102BF000DEBF0FBECDBF8C010E941E074B015C01E2
:102C0000980125573B4F3E8B2D8BF9018081918197
:102C1000A281B38175016401C81AD90AEA0AFB0AC4
:102C2000D701C601893F9A42A105B10510F0359739
:102C30001082180134E8231A3BEF330AD1018D9139
:102C40009C91892B79F0F801E157FB4F80819181AC
:102C5000A281B38188159905AA05BB0518F4F10175
:102C60001182108298012C573B4F3A8B298BA80177
:102C700040585B4F5C8B4B8BC8014896988F8F8B6D
:102C8000D801AA57BB4FBC8FAB8FF801EC56FB4F56
:102C9000FE8FED8F215F3F4F38A32F8F4250510998
:102CA000588B4F8786599B4F9A8F898F1996BAA355
:102CB000A9A3A50194012C5E3F4F4F4F5F4F2BA35B
:102CC0003CA34DA35EA3F80184899589A689B789A1
:102CD000892B8A2B8B2BB9F5D80112968D919C915B
:102CE000DC01ED91FC910284F385E02D19959C01A6
:102CF00097FF3DC0F801EA57FB4F8081882301F11F
:102D00007801B9E7EB1ABBEFFB0AF70180819181EB
:102D1000A281B381A5019401281B390B4A0B5B0BDF
:102D2000DA01C901853C9940A105B10548F0C80107
:102D30000E94690CD7018D929D92AD92BC9213971F
:102D400090E080E0B6C10E941E07681979098A09DF
:102D50009B09F801C488D588E688F788C616D70687
:102D6000E806F90608F0B8CF8EEF9FEFA2C1A98957
:102D7000BA898D919C911197820F931F8D939C938B
:102D8000F1014081518147305105F9F4A98DBA8D87
:102D90008D919C911197AC014F5F5F4F4D935C9368
:102DA000800F911FFC01208FAF85B8898D919C9178
:102DB000119701978D939C93892B09F084CF88E01C
:102DC00090E0F101918380837ECF4115510521F57B
:102DD0002F3F310581F481E090E091838083CBA087
:102DE000DCA0EDA0FEA0A9A1BAA1CD92DD92ED924A
:102DF000FC92139768CF0E941E07681979098A0907
:102E00009B09693873418105910508F45CCFF8018D
:102E1000EA57FB4F1082A8CF4130510589F42E3F6D
:102E2000310519F482E090E0CCCF11821082EB8D55
:102E3000FC8D8081811147CFC8010E94690C43CF6E
:102E40004230510591F4AF85B8892D933C93E98DBB
:102E5000FA8D1182108283E090E0D1018D939C93D2
:102E6000E989FA89318320832ECF4330510571F4EB
:102E7000322F2227AF85B8898D919C911197280F09
:102E8000391F2D933C9384E090E09BCF4430510553
:102E900079F460E071E00E941F268F3F910529F4CC
:102EA00085E090E0918380830ECF118210820BCF5A
:102EB0004530510569F4AB89BC892D933C9386E07C
:102EC00090E091838083A989BA892D933C93FBCEAE
:102ED00046305105A1F4322F2227EB89FC898081ED
:102EE0009181280F391F3183208387E090E0D10141
:102EF0008D939C93EF85F889808191815DCF4830D7
:102F0000510509F0E0CE1182108260E071E00E946C
:102F10001F268F3F910509F0D6CEAB89BC89ED9174
:102F2000FC91309709F0DEC0C8010E94690C86E26E
:102F300092E09A8389831C821B8287E395E09E83BB
:102F40008D8398878F839A8789871B861C861D8629
:102F50001E866801B8EECB1ABBEFDB0A7801E6EB00
:102F6000EE1AEBEFFE0A412C22E0522E612C712C5E
:102F7000D601ED91FC913097A9F1848195819C83D4
:102F80008B83808191819E838D8382819381DC01FB
:102F9000ED91FC910480F581E02D199598878F8340
:102FA000D601ED91FC9182819381DC01ED91FC9140
:102FB0000680F781E02D19959A8789874B865C8674
:102FC0006D867E86D601ED91FC9160857185D80174
:102FD000ED91FC910190F081E02DAE014F5F5F4FCC
:102FE000C8011995B2E0CB0ED11CEC14FD0409F018
:102FF000BFCF412C92E0592E612C712CF701A0819A
:10300000B1811097E1F112968D919C9113979C8359
:103010008B8314968D919C9115979E838D83ED9152
:10302000FC9111970480F581E02DCD0119959887C9
:103030008F83D7018D919C91DC01ED91FC910680ED
:10304000F781E02D19959A8789874B865C866D8676
:103050007E86D801ED91FC91C080D180F7018081FE
:103060009181DC01ED91FC910280F381E02D1995B5
:10307000AE014F5F5F4FBC01C801F6011995F2E048
:10308000EF0EF11CE214F30409F0B8CFF801EA578F
:10309000FB4F81E08083319680829182A282B3824D
:1030A000AD89BE898D929D92AD92BC9213978FEFA0
:1030B0009FEFA6960FB6F894DEBF0FBECDBFDF918F
:1030C000CF911F910F91FF90EF90DF90CF90BF9025
:1030D000AF909F908F907F906F905F904F903F90B8
:1030E0002F900895EA30F10509F0A0C082E392E044
:1030F0009A8389831B821C821D821E821F821886EE
:1031000019861A860E941E07F801C084D184E284C1
:10311000F3849B01AC012C193D094E095F0969013B
:103120007A016F89788DCE010196BAD8C701B601B0
:1031300028EE33E040E050E00E94D12469017A019A
:103140009B01AC018B819C81AD81BE818C0D9D1D4D
:10315000AE1DBF1D8B839C83AD83BE8360E472E490
:103160008FE090E00E940426CF80D884E984FA841E
:10317000DC01CB018C0D9D1DAE1DBF1D8F8398877B
:10318000A987BA870E941E07CF80D884E984FA8471
:1031900036E3D31A35E6E30A34ECF30A28EE33E0DB
:1031A00040E050E00E94D12429013A019B01AC018A
:1031B00060E472E48FE090E00E940426A70196018B
:1031C000261B370B480B590BCA01B9012B813C81D7
:1031D0004D815E81215031094109510969017A010E
:1031E000C418D508E608F7082601370120E03AECB4
:1031F0004AE95BE30E94D124420E531E641E751EF1
:10320000D8011C964D925D926D927C921F97F801A9
:10321000608B718B828B938B0E941E07AD89BE8958
:103220006D937D938D939C9313974DCDE630F1056F
:1032300051F46F89788D8D8D9E8D40DB81E0EF8D0F
:10324000F8A1808340CDEB30F10521F4AB8DBC8D2E
:103250001C9239CDEF53FE4FEE0FFF1FE00FF11F11
:1032600080819181009709F42ECDDC01ED91FC91D4
:103270000190F081E02D6F89788D199524CD4F92C2
:103280005F926F927F928F929F92AF92BF92CF92F6
:10329000DF92EF92FF920F931F93CF93DF93EC0196
:1032A0007B018A81FB0180838B8181838C81828376
:1032B0008D8183833496412C512C320104E010E03F
:1032C0009F012F5F3F4FCF010296DF011396A801A8
:1032D0000C5F1F4F8A809B80AC80BD8048145904CE
:1032E0006A047B04C8F4AA85BB85A40FB51F149794
:1032F0004C9111962C91119712969C9112971396BE
:103300008C9140832183928383838FEF481A580ADC
:10331000680A780A3496D4CF4C8540834D85F901EC
:1033200040832E85FC0120838F858C93F701E00F6D
:10333000F11F412C512C3201AF019F012F5F3F4FF4
:10334000CF010296DF0113960C5F1F4F8C849D8482
:10335000AE84BF84481459046A047B04D8F4CF01B6
:10336000841B950BAC89BD89A80FB91F3C911196A0
:103370002C91119712969C91129713968C913083F1
:103380002183928383838FEF481A580A680A780A48
:103390003496D3CF4E8940834F89F9014083288DDD
:1033A000FC012083898D8C93412C512C32018E8914
:1033B0009F89A88DB98D481659066A067B0680F547
:1033C0005201AA0CBB1CEC8DFD8DEA0DFB1DA081EA
:1033D000B181FD0101900020E9F731976F01CA1A10
:1033E000DB0AA60170E060E0C701800F911F0E9418
:1033F000CF0C0C5F1F4F8C8D9D8DA80EB91EF50153
:1034000060817181A601C701800F911F0E944F2822
:103410000C0D1D1DFFEF4F1A5F0A6F0A7F0AC7CF01
:10342000C801DF91CF911F910F91FF90EF90DF9036
:10343000CF90BF90AF909F908F907F906F905F9054
:103440004F900895EF92FF920F931F93CF93DF93C6
:103450008C017B01DC0112962C911297FB012193C8
:10346000CF011396ED91FC91EF0109900020E9F74F
:103470002197CE1BDF0BAE0170E060E00E94CF0C05
:10348000D80113966D917C91AE01C70105960E94FB
:103490004F28CE010596DF91CF911F910F91FF909C
:1034A000EF900895CF92DF92EF92FF920F931F93C8
:1034B000CF93DF936C01EB01DC0112968C91129794
:1034C000888313968C91139789831496ED91FC91C0
:1034D000DF010D900020E9F78D01015011090E1B4D
:1034E0001F0BA80170E060E0CE0102960E94CF0C95
:1034F000F60164817581A801CE0106960E944F28CD
:10350000C8010696F601A681B781FD010190002051
:10351000E9F731977F01EA1AFB0AA70170E060E042
:103520008C0F9D1F0E94CF0C065F1F4FD601169671
:103530006D917C91A701CE01800F911F0E944F28B1
:103540000E0D1F1DF601A085B185FD010190002023
:10355000E9F731977F01EA1AFB0AA70170E060E002
:10356000CE01800F911F0E94CF0C0C5F1F4FD60120
:1035700018966D917C91A701CE01800F911F0E943A
:103580004F28C701800F911FF6016285438534855E
:103590002585C80FD91F688349833A832B830496F6
:1035A000DF91CF911F910F91FF90EF90DF90CF901F
:1035B00008951F920F920FB60F9211240BB60F921F
:1035C0002F933F934F935F936F937F938F939F932B
:1035D000AF93BF93EF93FF9387EF95E00E945B0457
:1035E000FF91EF91BF91AF919F918F917F916F91DB
:1035F0005F914F913F912F910F900BBE0F900FBE97
:103600000F901F9018951F920F920FB60F921124D2
:103610000BB60F922F933F934F935F936F937F93CC
:103620008F939F93AF93BF93EF93FF9387EF95E0B3
:103630000E94EA03FF91EF91BF91AF919F918F910B
:103640007F916F915F914F913F912F910F900BBEA2
:103650000F900FBE0F901F9018951F920F920FB6EC
:103660000F9211240BB60F922F933F934F935F93BA
:103670006F937F938F939F93AF93BF93EF93FF933A
:1036800084E996E00E945B04FF91EF91BF91AF91B6
:103690009F918F917F916F915F914F913F912F916A
:1036A0000F900BBE0F900FBE0F901F9018951F929A
:1036B0000F920FB60F9211240BB60F922F933F93D8
:1036C0004F935F936F937F938F939F93AF93BF932A
:1036D000EF93FF9384E996E00E94EA03FF91EF9154
:1036E000BF91AF919F918F917F916F915F914F911A
:1036F0003F912F910F900BBE0F900FBE0F901F9018
:1037000018951F920F920FB60F9211240BB60F92BD
:103710002F933F934F935F936F937F938F939F93D9
:10372000AF93BF93EF93FF9381E397E00E945B0415
:10373000FF91EF91BF91AF919F918F917F916F9189
:103740005F914F913F912F910F900BBE0F900FBE45
:103750000F901F9018951F920F920FB60F92112481
:103760000BB60F922F933F934F935F936F937F937B
:103770008F939F93AF93BF93EF93FF9381E397E072
:103780000E94EA03FF91EF91BF91AF919F918F91BA
:103790007F916F915F914F913F912F910F900BBE51
:1037A0000F900FBE0F901F9018951F920F920FB69B
:1037B0000F9211242F933F938F939F93AF93BF93B7
:1037C0008091EF059091F005A091F105B091F2057F
:1037D0003091EE0523E0230F2D3758F50196A11DFA
:1037E000B11D2093EE058093EF059093F005A09313
:1037F000F105B093F2058091F3059091F405A09145
:10380000F505B091F6050196A11DB11D8093F30554
:103810009093F405A093F505B093F605BF91AF9191
:103820009F918F913F912F910F900FBE0F901F90FE
:10383000189526E8230F0296A11DB11DD2CF1F9225
:103840000F920FB60F9211240BB60F922F933F9346
:103850004F935F936F937F938F939F93AF93BF9398
:10386000EF93FF9348E251E064E271E090E080E082
:103870000E94EC0AFF91EF91BF91AF919F918F91C0
:103880007F916F915F914F913F912F910F900BBE60
:103890000F900FBE0F901F9018951F920F920FB6AA
:1038A0000F9211240BB60F922F933F934F935F9378
:1038B0006F937F938F939F93AF93BF93EF93FF93F8
:1038C00048EA50E064EA70E083E090E00E94EC0A8D
:1038D000FF91EF91BF91AF919F918F917F916F91E8
:1038E0005F914F913F912F910F900BBE0F900FBEA4
:1038F0000F901F9018951F920F920FB60F921124E0
:103900000BB60F922F933F934F935F936F937F93D9
:103910008F939F93AF93BF93EF93FF9348E950E04A
:1039200064E970E082E090E00E94EC0AFF91EF9180
:10393000BF91AF919F918F917F916F915F914F91C7
:103940003F912F910F900BBE0F900FBE0F901F90C5
:1039500018951F920F920FB60F9211240BB60F926B
:103960002F933F934F935F936F937F938F939F9387
:10397000AF93BF93EF93FF9348E850E064E870E0A3
:1039800081E090E00E94EC0AFF91EF91BF91AF912E
:103990009F918F917F916F915F914F913F912F9167
:1039A0000F900BBE0F900FBE0F901F9018958F9227
:1039B0009F92AF92BF92CF92DF92EF92FF921092BE
:1039C000FA051092F90548EE53E060E070E040938C
:1039D000FB055093FC056093FD057093FE058AE49A
:1039E00092E09093F8058093F70525E331E030935A
:1039F00004062093030624E331E030930606209367
:103A0000050620E331E0309308062093070621E302
:103A100031E030930A062093090622E331E0309327
:103A20000C0620930B0626E331E030930E0620931C
:103A30000D061092100610921106109212061092A6
:103A4000130610929706109296064093980650938C
:103A5000990660939A0670939B06909395068093BF
:103A600094062DEC30E03093A1062093A0062CECB8
:103A700030E03093A3062093A20628EC30E0309388
:103A8000A5062093A40629EC30E03093A7062093E6
:103A9000A6062AEC30E03093A9062093A8062EEC67
:103AA00030E03093AB062093AA061092AD06109238
:103AB000AE061092AF061092B00610923407109224
:103AC0003307409335075093360760933707709359
:103AD0003807909332078093310785EC90E09093FC
:103AE0003E0780933D0784EC90E0909340078093DD
:103AF0003F0780EC90E0909342078093410781EC70
:103B000090E0909344078093430782EC90E0909379
:103B100046078093450786EC90E090934807809392
:103B2000470710924A0710924B0710924C071092C9
:103B30004D0786E992E09093900D80938F0D88E079
:103B40008093910D10929A0D10929B0D10929C0DE6
:103B500010929D0D10929E0D10929F0D1092A00D2F
:103B60001092A10D1092A20D1092A30D1092A40D0F
:103B70001092A50DC12CD12C40E8E42E4FE3F42E79
:103B8000C092A60DD092A70DE092A80DF092A90DBB
:103B90001092AA0D1092AB0D1092AC0D1092AD0DBB
:103BA000C092AE0DD092AF0DE092B00DF092B10D7B
:103BB0001092B20D1092B30D1092B40D1092B50D7B
:103BC00081E090E09093BB0D8093BA0D8FEF8093CE
:103BD000BD0D1092B60D1092B70D1092B80D109247
:103BE000B90D8AE08093920D8CE08093930D8BE069
:103BF0008093940D8DE08093950D1092C20D1092DC
:103C0000C30D1092C40D1092C50D1092C60D1092E6
:103C1000C70D1092C80D1092C90D1092CA0D1092C6
:103C2000CB0D1092CC0D1092CD0DC092CE0DD09236
:103C3000CF0DE092D00DF092D10D1092D20D1092D6
:103C4000960D1092970D1092980D1092990D8FE885
:103C50009DE00E9459078090AA0D9090AB0DA09016
:103C6000AC0DB090AD0DA7019601C501B40154D5BE
:103C7000882359F16091C20D7091C30D8091C40DDC
:103C80009091C50D4FD5A5019401ABD588D7609310
:103C9000C20D7093C30D8093C40D9093C50D86E83B
:103CA00096E6A9E6B9E48093C60D9093C70DA0935C
:103CB000C80DB093C90DC092AA0DD092AB0DE09281
:103CC000AC0DF092AD0D0E94A30180915E0880338F
:103CD00008F098C191E0980F90935E0880938C0D46
:103CE00090E0FC01EE0FFF1FE80FF91FE253F84FC1
:103CF00088EB9BE09283818380915E08803308F09B
:103D000085C191E0980F90935E088093890D90E0B3
:103D1000FC01EE0FFF1FE80FF91FE253F84F88EB8D
:103D20009BE0928381838CE892E09093D808809303
:103D3000D70881E397E09093DA088093D90880E070
:103D400091EEA0E0B0E08093DB089093DC08A093B4
:103D5000DD08B093DE0810925D0D80E892E090934C
:103D60006C0D80936B0D1092810D1092820D10924C
:103D7000830D1092840D1092880D1092870DEFEE36
:103D8000FCE0119211928DE0E132F807D1F7E1E207
:103D9000FDE0119211928DE0E335F807D1F7EFEED7
:103DA000F8E08FEE9AE011928E179F07E1F7EFEEA1
:103DB000FAE08FEE9CE011928E179F07E1F71092C8
:103DC0006D0D10926E0D10926F0D1092700D10927D
:103DD000760D1092750D1092770D1092780D10924D
:103DE000790D10927A0D1092800D10927F0D109225
:103DF000EB081092EC081092ED081092EE088CEE91
:103E000092E09093D4088093D30827E335E0309371
:103E1000D6082093D50888E395E09093CA0880934C
:103E2000C90883ED98E09093CC088093CB0810925A
:103E3000D2081092D10860EE72E07093BC086093D3
:103E4000BB0844ED52E05093C2084093C108109261
:103E5000C4081092C30889E59AE09093C60880933D
:103E6000C50881E090E09093C8088093C708E0E41B
:103E7000F5E0F093C008E093BF087093AE0860933C
:103E8000AD085093B4084093B3081092B60810924E
:103E9000B5084FE55AE05093B8084093B70890939F
:103EA000BA088093B90840E555E05093B2084093B2
:103EB000B10868EC72E070939E0860939D084CEB2B
:103EC00052E05093A4084093A3081092A5081092C2
:103ED000A6081092A7081092A808EEE2F2E1F0936B
:103EE000AA08E093A9089093AC088093AB08E0E699
:103EF000F5E0F093A208E093A10870938E08609318
:103F00008D0850939408409393081092950810924E
:103F10009608109297081092980845ED5CE050932F
:103F20009A084093990890939C0880939B0840E7D7
:103F300055E0509392084093910840EB52E0509323
:103F4000600840935F0844E752E05093660840934E
:103F5000650848E652E0509368084093670810925D
:103F6000690810926A0810926B0810926C084CE570
:103F700052E050936E0840936D0830937008209380
:103F80006F081092710810927208109273081092C4
:103F900074081092750810927608109277081092A3
:103FA000780810927A081092790810927B08109283
:103FB0007C0810927D0810927E0810927F08109263
:103FC000800810928108109282081092880810923E
:103FD000870829EC34E030938A082093890890936D
:103FE0008C0880938B0880E895E090936408809318
:103FF0006308FF90EF90DF90CF90BF90AF909F90BD
:104000008F9008958FEF80938C0D76CE8FEF8093F5
:10401000890D89CECF93DF93CDB7DEB72C970FB63E
:10402000F894DEBF0FBECDBF789484B5826084BDA6
:1040300084B5816084BD85B5826085BD85B58160AC
:1040400085BD80916E00816080936E00109281002A
:1040500080918100826080938100809181008160E5
:1040600080938100809180008160809380008091A6
:10407000B10084608093B1008091B0008160809332
:10408000B0008091910082608093910080919100B6
:104090008160809391008091900081608093900076
:1040A0008091A10082608093A1008091A100816035
:1040B0008093A1008091A00081608093A0008091F6
:1040C0002101826080932101809121018160809390
:1040D00021018091200181608093200180917A00EC
:1040E000846080937A0080917A00826080937A0065
:1040F00080917A00816080937A0080917A00806854
:1041000080937A001092C10061E089E00E949806D5
:1041100061E088E00E94980661E089E00E949806CC
:1041200061E089E00E94390561E088E00E9439057C
:104130006CE270E08CE89DE00E94650A6DE270E040
:1041400089E89DE00E94650A4091DB085091DC08F7
:104150006091DD087091DE088091D9089091DA08AD
:104160000E944D031092540D1092530D1092560D53
:104170001092550D10925A0D1092590D1092580D23
:104180001092570D62E087E00E94980662E086E098
:104190000E94980620E030E04AE754E46091A60DC2
:1041A0007091A70D8091A80D9091A90DB5D288238B
:1041B00009F449C080E090E0AAE7B4E48093A60D3A
:1041C0009093A70DA093A80DB093A90D8093CE0D49
:1041D0009093CF0DA093D00DB093D10D8091C20DCF
:1041E0009091C30DA091C40DB091C50D181619067C
:1041F0001A061B0644F56091A20D7091A30D8091E3
:10420000A40D9091A50D9B01AC01EBD26B017C013B
:104210006091AA0D7091AB0D8091AC0D9091AD0D98
:104220009B01AC01F0D39B01AC01C701B6014FD497
:10423000B6D46093C20D7093C30D8093C40D909358
:10424000C50D0E94A30120E030E048E452E46091F3
:10425000A20D7091A30D8091A40D9091A50D5CD23B
:10426000882331F060E070E088E492E40E94280145
:10427000E1E2FDE0DF0190E080E02D913D91232B14
:1042800009F01FC2DC01AA0FBB1FAF5DB24F2BEBC1
:1042900038E02D933C938C599F4F9093BE088093A8
:1042A000BD08A1E2BDE090E080E02D913D91232B7F
:1042B00009F00DC2DC01AA0FBB1FAF5DB24F2DEAA2
:1042C00038E02D933C938C599F4F9093B008809386
:1042D000AF08A1E2BDE090E080E02D913D91232B5D
:1042E00009F0FBC1DC01AA0FBB1FAF5DB24F2DE986
:1042F00038E02D933C938C599F4F9093A008809366
:104300009F08A1E2BDE090E080E02D913D91232B3C
:1043100009F0E9C1DC01AA0FBB1FAF5DB24F2DE868
:1043200038E02D933C938C599F4F90939008809345
:104330008F0890E080E021913191232B09F0D9C1C1
:10434000FC01EE0FFF1FEF5DF24F2FE538E03183E8
:1043500020838C599F4F9093620880936108EFEE01
:10436000FCE090E080E021913191232B09F0C7C15E
:10437000FC01EE0FFF1FE151F34F29EC38E03183D0
:10438000208383589F4F9093CE088093CD0887ED6C
:1043900098E09093D0088093CF0818861F821A86E1
:1043A00019861C861B8670E060E0CE0107960E948D
:1043B00059122F8138858111A8C12115310511F0BD
:1043C000C90108D518861F821C861B861A86198685
:1043D00061E088E20E94980640E855E260E070E003
:1043E00087EF95E00E944D0364E875E084E996E06C
:1043F0000E94D41160E088E20E94390564EF71E008
:1044000080E090E00E94EE0667E975E087EF95E0B6
:104410000E94D41167E975E084E996E00E94D41106
:1044200068EE73E080E090E00E94EE0687EF95E092
:104430000E943404181619069CF4CE0101960E94BD
:104440008112BE016F5F7F4FCE0107960E94ED1172
:10445000CE0101960E942612CE0107960E94C0113D
:104460008AE995E09093D6088093D5080E94AD0321
:1044700087ED98E00E94E11564EF71E080E090E044
:104480000E94EE0660EA75E087EF95E00E94D41185
:1044900060EA75E084E996E00E94D41168EE73E06A
:1044A00080E090E00E94EE0687EF95E00E943404E1
:1044B000181619069CF4CE0101960E948112BE01C5
:1044C0006F5F7F4FCE0107960E94ED11CE010196DE
:1044D0000E942612CE0107960E94C01185EA95E03F
:1044E0009093D6088093D5080E94AD0387ED98E09D
:1044F0000E94E11564EF71E080E090E00E94EE061A
:104500006CEA75E087EF95E00E94D4116CEA75E0E3
:1045100084E996E00E94D41168EE73E080E090E0B8
:104520000E94EE0687EF95E00E94340418161906E3
:104530009CF4CE0101960E948112BE016F5F7F4FF5
:10454000CE0107960E94ED11CE0101960E9426121F
:10455000CE0107960E94C01187EB95E09093D60894
:104560008093D5080E94AD0387ED98E00E94E11585
:1045700064EF71E080E090E00E94EE066EEB75E083
:1045800087EF95E00E94D4116EEB75E084E996E028
:104590000E94D41168EE73E080E090E00E94EE0685
:1045A00087EF95E00E943404181619069CF4CE019A
:1045B00001960E948112BE016F5F7F4FCE01079668
:1045C0000E94ED11CE0101960E942612CE0107969F
:1045D0000E94C01184EC95E09093D6088093D50892
:1045E0000E94AD0387ED98E00E94E11564EF71E051
:1045F00080E090E00E94EE066BEC75E087EF95E0BE
:104600000E94D4116BEC75E084E996E00E94D4110D
:1046100068EE73E080E090E00E94EE0687EF95E0A0
:104620000E943404181619069CF4CE0101960E94CB
:104630008112BE016F5F7F4FCE0107960E94ED1180
:10464000CE0101960E942612CE0107960E94C0114B
:1046500083ED95E09093D6088093D5080E94AD0332
:1046600087ED98E00E94E11564EF71E080E090E052
:104670000E94EE066AED75E084E996E00E94D4118E
:1046800061E088E20E94390586EE95E09093D608B5
:104690008093D5080E94AD0387ED98E00E94E11554
:1046A000CE0107960E94261287ED98E00E94E11540
:1046B00061E070E080E090E00E94EE060E94130549
:1046C000F3CF01968931910509F0D7CDEACD019656
:1046D0008931910509F0E9CDFCCD0196893191052B
:1046E00009F0FBCD0ECE01968931910509F00DCE72
:1046F00020CE01968931910509F01DCE30CE01966C
:104700008931910509F02FCE48CE1C861B8667E3C0
:1047100075E0C901CDD45CCE40D008F481E00895A5
:10472000E89409C097FB3EF490958095709561954B
:104730007F4F8F4F9F4F9923A9F0F92F96E9BB2701
:104740009395F695879577956795B795F111F8CF7D
:10475000FAF4BB0F11F460FF1BC06F5F7F4F8F4FE8
:104760009F4F16C0882311F096E911C0772321F0DE
:104770009EE8872F762F05C0662371F096E8862F76
:1047800070E060E02AF09A95660F771F881FDAF7CD
:10479000880F9695879597F90895990F0008550FFA
:1047A000AA0BE0E8FEEF16161706E807F907C0F0B7
:1047B00012161306E407F50798F0621B730B840BBF
:1047C000950B39F40A2661F0232B242B252B21F499
:1047D00008950A2609F4A140A6958FEF811D811D39
:1047E00008950BD078C069D028F06ED018F09523CA
:1047F00009F05AC05FC01124A2C07ED0A0F3959FDB
:10480000D1F3950F50E0551F629FF001729FBB27B7
:10481000F00DB11D639FAA27F00DB11DAA1F649F63
:104820006627B00DA11D661F829F2227B00DA11D16
:10483000621F739FB00DA11D621F839FA00D611D9C
:10484000221F749F3327A00D611D231F849F600DBD
:10485000211D822F762F6A2F11249F5750408AF0F6
:10486000E1F088234AF0EE0FFF1FBB1F661F771F82
:10487000881F91505040A9F79E3F510570F014C019
:104880005EC05F3FECF3983EDCF3869577956795C5
:10489000B795F795E7959F5FC1F7FE2B880F911DA0
:1048A0009695879597F9089597F99F6780E870E046
:1048B00060E008959FEF80EC089500240A94161696
:1048C000170618060906089500240A9412161306FE
:1048D000140605060895092E0394000C11F488238C
:1048E00052F0BB0F40F4BF2B11F460FF04C06F5FA8
:1048F0007F4F8F4F9F4F089557FD9058440F551F7E
:1049000059F05F3F71F04795880F97FB991F61F051
:104910009F3F79F087950895121613061406551FC8
:10492000F2CF4695F1DF08C0161617061806991F34
:10493000F1CF86957105610508940895E894BB2729
:1049400066277727CB0197F90895052E97FB16F474
:1049500000940FD057FD05D024D007FC02D046F4B8
:1049600008C050954095309521953F4F4F4F5F4F70
:10497000089590958095709561957F4F8F4F9F4FCB
:10498000089531D0A59F900DB49F900DA49F800DE8
:10499000911D11240895B7FFF4CFF3DF821B930B11
:1049A0000895A1E21A2EAA1BBB1BFD010DC0AA1F70
:1049B000BB1FEE1FFF1FA217B307E407F50720F088
:1049C000A21BB30BE40BF50B661F771F881F991F03
:1049D0001A9469F760957095809590959B01AC014C
:1049E000BD01CF010895A29FB001B39FC001A39F55
:1049F000700D811D1124911DB29F700D811D112418
:104A0000911D08955058BB27AA270ED064CF55DFBB
:104A100030F05ADF20F031F49F3F11F41EF44ACFFA
:104A20000EF4E095E7FB40CFE92F66DF80F3BA177D
:104A3000620773078407950718F071F49EF57ECF1F
:104A40000EF4E0950B2EBA2FA02D0B01B9019001A9
:104A50000C01CA01A0011124FF27591B99F0593FED
:104A600050F4503E68F11A16F040A22F232F342F35
:104A70004427585FF3CF469537952795A795F04083
:104A80005395C9F77EF41F16BA0B620B730B840B98
:104A9000BAF09150A1F0FF0FBB1F661F771F881F50
:104AA000C2F70EC0BA0F621F731F841F48F48795A8
:104AB00077956795B795F7959E3F08F0B3CF939597
:104AC000880F08F09927EE0F9795879508950CD0D9
:104AD00002CFFADE40F0F1DE30F021F45F3F19F052
:104AE000E3CE51112CCFE6CE07DF98F39923C9F31B
:104AF0005523B1F3951B550BBB27AA2762177307E4
:104B0000840738F09F5F5F4F220F331F441FAA1F97
:104B1000A9F333D00E2E3AF0E0E830D09150504057
:104B2000E695001CCAF729D0FE2F27D0660F771F05
:104B3000881FBB1F261737074807AB07B0E809F0E7
:104B4000BB0B802DBF01FF2793585F4F2AF09E3F7C
:104B5000510568F0A9CEF3CE5F3FECF3983EDCF34D
:104B6000869577956795B795F7959F5FC9F7880FF5
:104B7000911D9695879597F90895E1E0660F771F47
:104B8000881FBB1F621773078407BA0720F0621BD8
:104B9000730B840BBA0BEE1F88F7E095089504D0D1
:104BA0006894B111CCCE0895AFDE88F09F5790F095
:104BB000B92F9927B751A0F0D1F0660F771F881F42
:104BC000991F1AF0BA95C9F712C0B13081F0B6DE5C
:104BD000B1E00895B3CE672F782F8827B85F39F0FA
:104BE000B93FCCF3869577956795B395D9F73EF4A1
:104BF00090958095709561957F4F8F4F9F4F089549
:104C0000CCDD08F48FEF0895DB018F939F93B9DE1D
:104C1000BF91AF91A29F800D911DA39F900DB29F58
:104C2000900D11240895991B79E004C0991F9617DF
:104C300008F0961B881F7A95C9F78095089597FB11
:104C4000072E16F4009406D077FD08D013D007FC89
:104C500005D03EF4909581959F4F0895709561958C
:104C60007F4F0895EE0FFF1F881F8BBF0790F691AF
:104C7000E02D1994AA1BBB1B51E107C0AA1FBB1F43
:104C8000A617B70710F0A61BB70B881F991F5A95D8
:104C9000A9F780959095BC01CD0108950F931F93BE
:104CA000CF93DF938230910510F482E090E0E091A1
:104CB000D50DF091D60D30E020E0B0E0A0E03097C7
:104CC00099F42115310509F44AC0281B390B243009
:104CD0003105D8F58A819B816115710589F1FB0148
:104CE00093838283FE0111C040815181028113812F
:104CF00048175907E0F04817590799F4109761F0E1
:104D000012960C93129713961C933296CF01DF9153
:104D1000CF911F910F9108950093D50D1093D60D4B
:104D2000F4CF2115310551F04217530738F0A9018E
:104D3000DB019A01BD01DF01F801C1CFEF01F9CF1D
:104D40009093D60D8093D50DCDCFFE01E20FF31FCA
:104D5000819391932250310939832883D7CF2091B1
:104D6000D30D3091D40D232B41F4209102023091C8
:104D700003023093D40D2093D30D20910002309183
:104D800001022115310541F42DB73EB740910402CF
:104D900050910502241B350BE091D30DF091D40DF9
:104DA000E217F307A0F42E1B3F0B2817390778F002
:104DB000AC014E5F5F4F2417350748F04E0F5F1F61
:104DC0005093D40D4093D30D819391939FCFF0E0F6
:104DD000E0E09CCFCF93DF930097E9F0FC0132979E
:104DE00013821282A091D50DB091D60DED0130E065
:104DF00020E01097A1F420813181820F931F209130
:104E0000D30D3091D40D2817390709F061C0F09304
:104E1000D40DE093D30DDF91CF910895EA01CE1721
:104E2000DF07E8F54A815B819E0141155105B1F725
:104E3000E901FB83EA8349915991C40FD51FEC170F
:104E4000FD0761F4808191810296840F951FE9012D
:104E500099838883828193819B838A83F0E0E0E059
:104E600012968D919C9113970097B9F52D913C91D5
:104E70001197CD010296820F931F2091D30D30918F
:104E8000D40D2817390739F6309751F51092D60D01
:104E90001092D50DB093D40DA093D30DBCCFD38376
:104EA000C28340815181840F951FC817D90761F4CF
:104EB0004E5F5F4F88819981480F591F518340830E
:104EC0008A819B81938382832115310509F0B0CFBC
:104ED000F093D60DE093D50D9ECFFD01DC01C0CF40
:104EE00013821282D7CF4F925F926F927F928F92EE
:104EF0009F92AF92BF92CF92DF92EF92FF920F9369
:104F00001F93CF93DF938C01009791F4CB01DF9136
:104F1000CF911F910F91FF90EF90DF90CF90BF90B6
:104F2000AF909F908F907F906F905F904F90B6CE94
:104F3000FC01E60FF71F9C0122503109E217F3072D
:104F400008F4AAC0D901CD91DC911197C617D707F3
:104F500018F1C530D10570F0CE0104978617970778
:104F600048F0C61BD70B2297C193D1936D937C93C6
:104F7000CF0130DFC801DF91CF911F910F91FF90DA
:104F8000EF90DF90CF90BF90AF909F908F907F90E9
:104F90006F905F904F9008955B01AC1ABD0A4C0171
:104FA0008C0E9D1EA091D50DB091D60D512C412C8B
:104FB000F12CE12C109731F58091D30D9091D40D07
:104FC0008815990509F05CC04616570608F058C0C8
:104FD0008091000290910102009741F48DB79EB735
:104FE0004091040250910502841B950BE817F907C4
:104FF00008F052C0F093D40DE093D30DF901718302
:105000006083B8CF8D919C91119712966C901297F6
:1050100013967C901397A815B90559F56C0142E0D9
:10502000C40ED11CCA14DB0420F1AC014A195B097F
:10503000DA011296159780F0628273825183408361
:10504000D9016D937C93E114F10471F0D7011396AB
:10505000FC93EE9312978ECF22968C0F9D1FF90131
:1050600091838083F301EFCFF093D60DE093D50DBC
:1050700081CF4816590608F42C017D01D3019ACF3F
:10508000CB010CDE7C01009739F0AE01B80107D0EE
:10509000C801A0DE87016ECF10E000E06BCFFB01FE
:1050A000DC0102C001900D9241505040D8F70895A4
:1050B000FB01DC0101900D920020E1F70895F894C6
:0250C000FFCF20
:1050C2000000D70D8000726F7373657269616C5F47
:1050D2006D7367732F526571756573745061726178
:1050E2006D0000000000521A5C10591056100000AA
:1050F2000000961150114D114A1100000000221AB1
:105102000110FE0FFB0F000000007D04BD0303042D
:10511200F404340412042604000000002214E90EF0
:10512200E60EE30E00000000340E0713310E2E0EC1
:1051320000000000930E8F13C00BBD0B0000000097
:105142003F195E14F80FF50F00000000C70BE115C0
:10515200A40B0000000087075907F1082E09DB089D
:105162009F087E084A082908D307A007000000000C
:105172000F14C30BC00BBD0B00000000B40F7D0F5A
:10518200B60BB30B00000000A10FB90BB60BB30BAB
:1051920000000000EA0FC80FAC0BA90B00000000D2
:1051A200D70FAF0BAC0BA90B00000000DE12DE0D17
:1051B200DB0DD80D4E4643003164663739656466AF
:1051C20032303862363239666536623831393233D6
:1051D2006135343435353264007374645F6D7367DE
:1051E200732F55496E74313600333034613339349C
:1051F2003439353838633766386365326466366504
:10520200383030316335666365007374645F6D7383
:1052120067732F55496E74333200316439396637FA
:10522200396638623332356234346665653930380E
:1052320030353365396339343562007374645F6DB8
:105242007367732F496E7433324D756C7469417292
:10525200726179004D6573736167652066726F6D67
:10526200206465766963652064726F707065643A64
:10527200206D657373616765206C6172676572206A
:105282007468616E206275666665722E0039393205
:105292006365386131363837636563386338626411
:1052A2003838336563373363613431643100737482
:1052B200645F6D7367732F537472696E6700306633
:1052C200656432613131633133653131633535378C
:1052D2003162346532613939356139316133007394
:1052E20074645F6D7367732F4D756C74694172726C
:1052F20061794C61796F757400346364306338335B
:10530200613836383364656165343065636461637E
:10531200363065353362666138007374645F6D736D
:1053220067732F4D756C7469417272617944696D4E
:10533200656E73696F6E0039663065393862646113
:1053420036353938313938366464663533616661E9
:105352003761343065343900313161626437333159
:10536200633235393333323631636436313833623E
:10537200643132643632393500726F737365726923
:10538200616C5F6D7367732F4C6F670030616435BA
:1053920031663838666334343839326638633130CE
:1053A20036383430373736343630303500726F7332
:1053B20073657269616C5F6D7367732F546F706987
:1053C20063496E666F006364373136366337346320
:1053D2003535326333313166626363326665356116
:1053E200376263323839007374645F6D7367732F89
:1053F20054696D65000D0A0063686174746572001A
:105402002F61726475696E6F2F736572766F3100EA
:105412002F61726475696E6F2F736572766F3200D9
:105422002F61726475696E6F2F6D6F746F723100C8
:105432002F61726475696E6F2F736C696465720097
:105442006E66630053746172742048432D313220BA
:10545200436F6E6669670041540073746570310072
:1054620041542B5600737465705F320041542B44D3
:10547200454641554C5400737465705F3300415486
:105482002B503800737465705F340041542B4330E5
:10549200333000737465705F350053617665202682
:0A54A200204578697400474F0000B0
:00000001FF
