:10000000F5C0000024C1000022C1000020C1000092
:100010001EC100001CC100001AC1000018C1000070
:1000200016C1000014C1000012C1000010C1000080
:100030000EC100000CC100000AC1000008C1000090
:1000400006C100000C947B1D02C1000000C100002D
:10005000FEC00000FCC00000FAC000000C94A71C09
:10006000F6C000000C947D1C0C94531CF0C00000E2
:10007000EEC00000ECC00000EAC00000E8C00000D4
:100080000C944D1DE4C00000E2C00000E0C0000080
:100090000C94291C0C94FF1BDAC00000D8C000008F
:1000A000D6C00000D4C000000C941F1DD0C00000BA
:1000B000CEC00000CCC00000CAC000000C94F11CEF
:1000C000C6C00000C4C00000C2C00000C0C0000024
:1000D000BEC00000BCC000000C94D51B0C94AB1B30
:1000E000B6C0000000002100240027002A002D00D7
:1000F0003000330001010000040107010A01000083
:100100002200250028002B002E00310034000201BF
:100110000000050108010B01050505050705080894
:100120000808020202020A0A080804040404010181
:100130000101010101010303030303030303040796
:1001400007070C0C0C0C0C0C0C0C0202020206062D
:100150000606060606060B0B0B0B0B0B0B0B010220
:1001600010202008081020401020408002010201C9
:100170000804020101020408102040808040201081
:1001800008040201800402018040201008040201DA
:100190000804020101020408102040800102040842
:1001A0001020408000000A0B02090C0D0E08070306
:1001B000040100000000000000000000000000003A
:1001C000000000000000000000000000000000002F
:1001D00012111000000000000000000000000000EC
:1001E00000000000000000000000A91D11241FBE37
:1001F000CFEFD1E2DEBFCDBF00E00CBF15E0A0E045
:10020000B2E0E8E7F2E500E00BBF02C007900D9214
:10021000AA3EB107D9F72DE0AAEEB5E001C01D92C4
:10022000A83DB207E1F710E0C6EFD0E000E006C05D
:1002300021970109802FFE010E940D27C53FD1079C
:1002400080E00807A9F70E94DC200C943A29D8CE58
:100250008F929F92AF92BF92CF92DF92EF92FF92D6
:100260000F931F93CF93DF938B01D82FC92F8090CB
:10027000A70D9090A80DA090A90DB090AA0D7501A2
:100280006401F7FAF094F7F8F0949B01482F592F86
:10029000C701B6010E94DB26181674F098014D2F95
:1002A0005C2FC501B4010E9467247501640187FDBC
:1002B00003C06801ED2EFC2E20E030E0A901C7014B
:1002C000B6010E94672481111DC01092B30D1092D7
:1002D000B40D1092B50D1092B60DC092A30DD09230
:1002E000A40DE092A50DF092A60DDF91CF911F9184
:1002F0000F91FF90EF90DF90CF90BF90AF909F90C5
:100300008F900895A701960160E074E284E799E474
:100310000E9442269F770E94AF266093B30D709390
:10032000B40D8093B50D9093B60DC1E020E030E0A0
:10033000A901C701B6010E94DB2618160CF0C0E027
:10034000C093D30DCACFCF92DF92EF92FF92CF939B
:10035000DF93EC016A017B01E889F98982E08083FF
:10036000C11481EED806E104F104A1F060E079E067
:100370008DE390E0A70196010E94AC252150310940
:10038000410951095695479537952795211580E1E3
:10039000380798F0E889F989108260E874E88EE1FE
:1003A00090E0A70196010E94AC2521503109410936
:1003B00051095695479537952795EC85FD853083EE
:1003C000EE85FF852083188EEC89FD8986E0808389
:1003D000EA89FB89808180618083EA89FB89808149
:1003E00088608083EA89FB89808180688083EA89CC
:1003F000FB8980818F7D8083DF91CF91FF90EF908B
:10040000DF90CF900895EAECF8E0868197816481CF
:100410007581DC01ED91FC910190F081E02D44EDBE
:1004200058E019944F925F926F927F928F929F92B1
:10043000AF92BF92CF92DF92EF92FF920F931F93F2
:10044000CF93DF93C0909F0DD090A00DE090A10DB1
:10045000F090A20D80919B0D90919C0DA0919D0D0F
:10046000B0919E0DC81AD90AEA0AFB0A6091A30D41
:100470007091A40D8091A50D9091A60D9B01AC01EA
:100480000E94CC244B015C016091AB0D7091AC0DCE
:100490008091AD0D9091AE0D9B01AC010E94DE25C7
:1004A0009B01AC01C501B4010E9442260E94AA260C
:1004B000C114D104E104F10409F0D3C06230710524
:1004C000810591050CF0F2C01092B30D1092B40D9D
:1004D0001092B50D1092B60D1092A30D1092A40DAE
:1004E0001092A50D1092A60D1092C30D1092C40D7E
:1004F0001092C50D1092C60DDF91CF911F910F91F3
:10050000FF90EF90DF90CF90BF90AF909F908F9033
:100510007F906F905F904F9008951016110612060D
:100520001306DCF46C157D058E059F0524F42091DF
:10053000D30D2111BBC09B01AC0188279927DC0199
:10054000821B930BA40BB50B8093C30D9093C40D2A
:10055000A093C50DB093C60DA9C0011511052105C5
:10056000310509F4A3C06C157D058E059F050CF0BF
:100570009DC08091D30D882309F498C030952095B3
:10058000109501951F4F2F4F3F4F0093C30D1093B0
:10059000C40D2093C50D3093C60D88C001151105FB
:1005A0002105310509F482C08824992454018C184E
:1005B0009D08AE08BF08681579058A059B050CF0F3
:1005C00075C08091D30D811171C0D8CFC090CB0D73
:1005D000D090CC0DE090CD0DF090CE0DA7019601FE
:1005E000C701B6010E94DE252B013C01C501B40103
:1005F0000E946D2420E030E040E850E40E94CC24CA
:1006000020E030E040E85FE30E94DE259B01AC0182
:10061000C301B2010E9442269B01AC01C701B60191
:100620000E94DD25D62FC72F6C01E090CF0DF090F2
:10063000D00D0091D10D1091D20D9701A8010E940B
:10064000DB2618161CF4ED2EFC2E8601C701D801FE
:100650008093CB0D9093CC0DA093CD0DB093CE0D88
:100660004CC00091C30D1091C40D2091C50D309167
:10067000C60D1C141D041E041F040CF44ECF1016CE
:100680001106120613060CF089CF002711279801D6
:100690000C191D092E093F0960177107820793077E
:1006A0000CF049CF2091D30D211145CF8090C30D7F
:1006B0009090C40DA090C50DB090C60D811491040A
:1006C000A104B10409F082CF8091C70D9091C80DAB
:1006D000A091C90DB091CA0D8093CB0D9093CC0D14
:1006E000A093CD0DB093CE0D81E01C141D041E040B
:1006F0001F040CF080E08093D30D3FEF831A930A20
:10070000A30AB30A8092C30D9092C40DA092C50DA6
:10071000B092C60DC090CB0DD090CC0DE090CD0D19
:10072000F090CE0DC701B6010E94AF266093B30DC5
:100730007093B40D8093B50D9093B60DA7019601FB
:1007400060E074E284E799E40E9442266093A30D7E
:100750007093A40D8093A50D9093A60D2091D30DB9
:100760002111CACE90586093A30D7093A40D80936D
:10077000A50D9093A60DC0CE4F925F926F927F927F
:100780008F929F92AF92BF92CF92DF92EF92FF92A1
:10079000CF93DF9300D01F92CDB7DEB78090A30D2B
:1007A0009090A40DA090A50DB090A60D20E030E093
:1007B000A901C501B4010E946724882309F46DC012
:1007C000A5019401C501B4010E94CC246B017C01F8
:1007D0006091AB0D7091AC0D8091AD0D9091AE0D0F
:1007E0009B01AC010E94DE259B01AC01C701B60153
:1007F0000E9442260E94AA266B017C0140909B0D1C
:1008000050909C0D60909D0D70909E0D80919F0D5D
:100810009091A00DA091A10DB091A20D89839A8312
:10082000AB83BC8320E030E0A901C501B4010E9484
:10083000DB2618166CF59FEFC91AD90AE90AF90ADE
:100840004C0C5D1C6E1C7F1C89819A81AB81BC8124
:1008500084159505A605B70501F140929F0D5092AC
:10086000A00D6092A10D7092A20D0F900F900F90AD
:100870000F90DF91CF91FF90EF90DF90CF90BF90DE
:10088000AF909F908F907F906F905F904F90CACD68
:10089000C094D094E094F094D3CF0F900F900F9029
:1008A0000F90DF91CF91FF90EF90DF90CF90BF90AE
:1008B000AF909F908F907F906F905F904F90089532
:1008C0000895AF92BF92CF92DF92EF92FF920F9373
:1008D0001F93CF93DF936C017B018B01040F151FD6
:1008E000EB015E01AE18BF08C017D10759F069913E
:1008F000D601ED91FC910190F081E02DC601199592
:10090000892B79F7C501DF91CF911F910F91FF904E
:10091000EF90DF90CF90BF90AF900895FC01A08939
:10092000B1898C91A689B78982FD0FC09C91818D78
:100930008F5F8F73228D821749F0A18DAE0FBF2F6D
:10094000B11D5D969C93818F08958C910895FC0153
:10095000538D448D252F30E0842F90E0821B930B24
:10096000541710F0CF96089501970895FC01918DCA
:10097000828D981761F0A28DAE0FBF2FB11D5D96CD
:100980008C91928D9F5F9F73928F90E008958FEF6F
:100990009FEF0895FC01918D828D981731F0828D23
:1009A000E80FF11D858D90E008958FEF9FEF08957A
:1009B000FC01918D228D892F90E0805C9F4F821BDE
:1009C00091098F739927089588EF95E0F1DF21E071
:1009D000892B09F420E0822F089585E996E0E8DF6D
:1009E00021E0892B09F420E0822F089582E397E02B
:1009F000DFDF21E0892B09F420E0822F0895FC013C
:100A0000A48DA80FB92FB11DA35ABF4F2C91848D6F
:100A100090E001968F739927848FA689B7892C93CC
:100A2000A089B1898C91837080648C93938D848D1F
:100A3000981306C00288F389E02D80818F7D808322
:100A40000895EF92FF920F931F93CF93DF93EC01E2
:100A500081E0888F9B8D8C8D98131AC0E889F98965
:100A6000808185FF15C09FB7F894EE89FF89608368
:100A7000E889F98980818370806480839FBF81E0E9
:100A800090E0DF91CF911F910F91FF90EF9008952B
:100A9000F62E0B8D10E00F5F1F4F0F731127E02E06
:100AA0008C8D8E110BC00FB607FCFACFE889F9893F
:100AB000808185FFF5CFCE01A2DFF2CFEB8DEC0F69
:100AC000FD2FF11DE35AFF4FF0829FB7F8940B8F73
:100AD000EA89FB8980818062D0CFEF92FF921F93D9
:100AE000CF93DF937C0184EF92E09093D7088093BB
:100AF000D60889DCD0E0C0E0D7019296ED91FC9158
:100B0000EC0FFD1F1081612F88EF95E09ADF612FB8
:100B100070E07093D7086093D60875DC2496C034D3
:100B2000D10551F7DF91CF911F91FF90EF9008957C
:100B3000CF93DF93EC01888D8823B1F0AA89BB891C
:100B4000E889F9898C9185FD03C0808186FD0CC000
:100B50000FB607FCF7CF8C9185FFF2CF808185FF20
:100B6000EDCFCE014CDFEACFDF91CF91089580E049
:100B700090E0892B21F03ADF81110E94000080E093
:100B800090E0892B21F029DF81110E94000080E094
:100B900090E0892B49F080E090E0892B29F00E94B9
:100BA000000081110E94000080E090E0892B21F07C
:100BB0000BDF81110C9400000895282F30E0F9011B
:100BC000EC55FE4F9491F901E25AFE4F4491285E94
:100BD0003E4FF9012491222309F435C0992311F1E4
:100BE00091509231F8F4E92FF0E08827E550FA4F60
:100BF0008F4F0C940D272C0630060D062406280670
:100C00001206330639063D06430647064B065106D3
:100C10005506120659065F066306809180008F779D
:100C200080938000E22FF0E0EE0FFF1FE250FF4FB5
:100C3000A591B4918FB7F894EC91611148C040959B
:100C40004E234C938FBF0895809180008F7DE8CF15
:100C500080918000877FE4CF84B58F7784BDE2CF19
:100C600084B58F7DFBCF8091B0008F778093B000EB
:100C7000D9CF8091B0008F7DF9CF809190008F7790
:100C800080939000CFCF809190008F7DF9CF80919D
:100C90009000877FF5CF8091A0008F778093A00090
:100CA000C1CF8091A0008F7DF9CF8091A000877F78
:100CB000F5CF809120018F7780932001B3CF809171
:100CC00020018F7DF9CF80912001877FF5CF4E2BBA
:100CD000B8CF282FEDEAF1E0E491E150E23108F0DD
:100CE000C8C0F0E08827E858F94F8F4F0C940D27C3
:100CF0008A068F069406A006AC063907B806C00619
:100D0000C806D406E006EC06FD06090739071507F4
:100D100021072D0784B5806884BD27BD089584B55B
:100D2000806284BD28BD0895809180008068809392
:100D30008000422F592F50938900409388000895D6
:100D400080918000806280938000422F592F5093C1
:100D50008B0040938A000895809180008860809382
:100D60008000422F592F50938D0040938C0008959E
:100D70008091B00080688093B0002093B300089504
:100D80008091B00080628093B0002093B4000895F9
:100D900080919000806880939000422F592F50934B
:100DA000990040939800089580919000806280930C
:100DB0009000422F592F50939B0040939A00089522
:100DC00080919000886080939000422F592F50931B
:100DD0009D0040939C0008958091A00080688093BE
:100DE000A0008091A0008F7B8093A000422F592FFC
:100DF0005093A9004093A80008958091A0008062BC
:100E00008093A000422F592F5093AB004093AA002B
:100E100008958091A00088608093A000422F592FF0
:100E20005093AD004093AC000895809120018068FC
:100E300080932001422F592F50932901409328017C
:100E4000089580912001806280932001422F592FC4
:100E500050932B0140932A010895809120018860CE
:100E600080932001422F592F50932D0140932C0144
:100E7000089561E089E0A1CECF93DF9390E0FC017B
:100E8000E25AFE4F2491885E9E4FFC018491882394
:100E9000D1F090E0880F991FFC01EC51FF4FA59114
:100EA000B491FC01E250FF4FC591D491623071F4CE
:100EB0009FB7F8943C91822F809583238C93E8818F
:100EC0002E2B28839FBFDF91CF9108958FB7F89481
:100ED000EC912E2B2C938FBFF6CF3FB7F8948091D7
:100EE000F3059091F405A091F505B091F60526B5AE
:100EF000A89B05C02F3F19F00196A11DB11D3FBF52
:100F0000BA2FA92F982F8827BC01CD01620F711D20
:100F1000811D911D42E0660F771F881F991F4A951A
:100F2000D1F708958F929F92AF92BF92CF92DF92A6
:100F3000EF92FF924B015C01D0DF6B017C01CDDFB2
:100F40006C197D098E099F09683E734081059105E2
:100F5000B0F321E0821A9108A108B10888EEC80E0A
:100F600083E0D81EE11CF11C81149104A104B1049A
:100F700031F7FF90EF90DF90CF90BF90AF909F90B0
:100F80008F9008952FB7F8946091EF057091F00558
:100F90008091F1059091F2052FBF08950F931F9353
:100FA000F1DF609300067093010680930206909330
:100FB000030688EF95E0DADC97FF1CC0E3DF0091C1
:100FC0000006109101062091020630910306601B75
:100FD000710B820B930B0091FC051091FD05209184
:100FE000FE053091FF05601771078207930708F32C
:100FF0008FEF9FEF1F910F910895CF93DF93FC0127
:101000002281222329F1EC0161E0838135DF61E057
:101010008C8132DF8A81843011F0883091F461E074
:101020008D812ADF61E08E8127DF8EA58F3F81F0E1
:1010300061E022DF6DA581E068278EA5DF91CF9169
:10104000BCCD833011F0863081F761E08D81ECCF2B
:10105000DF91CF910895CF93DF93FC01228122236A
:1010600081F0EC010190F081E02D0480F581E02D0C
:1010700060E019958EA58F3F21F06DA5DF91CF918E
:101080009CCDDF91CF910895DC01ED91FC911197FA
:1010900024813581477055276627772741505109AC
:1010A00061097109473051056105710570F4FA0154
:1010B0008827E25AF74F8F4F0C940D2769086B0869
:1010C0006D086F0871087308750861E0CD01F901BA
:1010D000199465E0FBCF64E0F9CF66E0F7CF62E0FA
:1010E000F5CF6AE0F3CF68E0F1CF69E0EFCFCF93BF
:1010F000DF93EC01CB01BA0126E030E040E050E0A4
:101100000E948025623071058105910589F16CF49A
:101110006115710581059105D1F061307105810579
:101120009105F9F0DF91CF91089564307105810543
:10113000910561F124F1653071058105910591F703
:10114000E881F9810480F581E02D66E006C0E88140
:10115000F9810480F581E02D64E0CE01DF91CF912B
:101160001994E881F9810480F581E02D65E0F5CFDF
:10117000E881F9810480F581E02D61E0EECFE8811E
:10118000F9810480F581E02D63E0E7CFE881F98102
:101190000480F581E02D62E0E0CFDC01ED91FC916F
:1011A0000480F581E02D437055276627772742306C
:1011B00051056105710571F04330510561057105F7
:1011C00059F0413051056105710511F065E0199440
:1011D00066E0FDCF6AE0FBCF69E0F9CFCF93DF9304
:1011E000EC01CB01BA0123E030E040E050E00E9486
:1011F0008025613071058105910599F06230710596
:1012000081059105A9F0672B682B692BC1F4E88152
:10121000F9810480F581E02D64E0CE01DF91CF916A
:101220001994E881F9810480F581E02D61E0F5CF22
:10123000E881F9810480F581E02D62E0EECFDF9155
:10124000CF910895DC01ED91FC910480F581E02DB2
:101250004370552766277727423051056105710590
:1012600071F0433051056105710559F04130510568
:101270006105710511F062E0199463E0FDCF61E052
:10128000FBCF60E0F9CF0F931F93CF93DF93EC0177
:10129000E881F9810480F581E02D8C010D5B1F4F01
:1012A000D8018C9160E0811162E0CE011995E8814E
:1012B000F9810480F581E02DD8018C9161E08111E4
:1012C00063E0CE0119958BA59CA58230910538F07D
:1012D000880F991F880F991F05970197F1F7E881EB
:1012E000F9810480F581E02DD8018C9160E08111B5
:1012F00062E0CE01DF91CF911F910F911994CF93AE
:10130000DF93EC0120E030E0A9016B897C898D89B5
:101310009E890E94DB2618162CF4EFA5F8A9DF9110
:10132000CF911994E9A9FAA9FACFCF92DF92EF925F
:10133000FF920F931F93CF93DF93DC011296CC9112
:10134000C43039F0C83051F1C33019F0C63041F122
:10135000C2E08C010D5F1F4FF12CE12CC62ED12C69
:10136000D1E0F8016481C6010E2C02C095958795E5
:101370000A94E2F780FD6D270F5F1F4F80811DDC0F
:10138000BFEFEB1AFB0AEC1660F3DF91CF911F91D0
:101390000F91FF90EF90DF90CF900895C4E0D9CFE8
:1013A000C3E0D7CFDC011296EC911297E93008F038
:1013B00042C0F0E08827E052F64F8F4F0C940D2783
:1013C000E909F109F809FF09060A1B0A0D0A1B0AB7
:1013D000140AED91FC9111970084F185E02DCD0167
:1013E0001994ED91FC9111970284F385E02DF7CFCC
:1013F000ED91FC9111970484F585E02DF0CFED91EE
:10140000FC9111970684F785E02DE9CFED91FC91D1
:1014100011970088F189E02DE2CFED91FC911197B1
:101420000288F389E02DDBCFED91FC9111970488C0
:10143000F589E02DD4CF0895CF92DF92EF92FF92FD
:101440008091B30D9091B40DA091B50DB091B60DF2
:10145000892B8A2B8B2B31F480E0FF90EF90DF906B
:10146000CF9008953ADD6B017C014091B70D50910A
:10147000B80D6091B90D7091BA0D8091B30D909136
:10148000B40DA091B50DB091B60D840F951FA61F98
:10149000B71F84179507A607B707B0F1C816D90676
:1014A000EA06FB0628F4C416D506E606F706A0F6FB
:1014B00080919B0D90919C0DA0919D0DB0919E0DE2
:1014C0002091D30D222331F10196A11DB11D8093EE
:1014D0009B0D90939C0DA0939D0DB0939E0D4091FC
:1014E0009B0D50919C0D60919D0D70919E0D80E91A
:1014F0009DE058DFC092B70DD092B80DE092B90DC3
:10150000F092BA0D81E0A9CFC816D906EA06FB060B
:1015100050F6A2CF0197A109B109D9CF8F929F921E
:10152000AF92BF92CF92DF92EF92FF92FC01828145
:1015300058E5C52E52E0D52EC81AD10887FDD394A0
:10154000CC0CDD1CCC0CDD1C0D2C000CEE08FF08B7
:10155000818178E8872E912C881A910887FD9394D1
:10156000880C991C880C991C092C000CAA08BB0833
:1015700080818F3FD1F190E0FC01EE0FFF1FE80F5B
:10158000F91FE153F84F8181928133E0880F991F51
:101590003A95E1F7B0E0A0E044E0B595A7959795BE
:1015A00087954A95D1F702969C012F5F3F4F032EF6
:1015B000000C440B550B281939094A095B09A4EBA7
:1015C000B0E00E949C25A7019601281939094A0913
:1015D0005B090E948025C901FF90EF90DF90CF90BA
:1015E000BF90AF909F908F90089590E080E0DCCF07
:1015F000CF92DF92EF92FF92CF93DF93EC016032B4
:1016000082E07807CCF5653B710514F064EB70E07F
:10161000898128E830E0281B310987FD3395220FA6
:10162000331F220F331F6901330FEE08FF088A8131
:1016300028E532E0281B310987FD3395220F331F3F
:10164000220F331F032E000C440B550B2C193D09A0
:101650004E095F09DB0177FF02C0B0E0A0E00E9405
:10166000A62524EB30E040E050E00E948025C20E29
:10167000D31EE41EF51EB601E881E03370F5298122
:1016800088E890E0821B910927FD9395880F991FA8
:10169000880F991F681779077CF02A8188E592E006
:1016A000821B910927FD9395880F991F880F991F19
:1016B000681779070CF4CB010297880F991F4FB771
:1016C000F8942E2F30E0F901EE0FFF1FE20FF31F09
:1016D000E153F84F928381834FBFDF91CF91FF9009
:1016E000EF90DF90CF900895EF92FF920F931F93AA
:1016F000CF93DF937C01FC01028113818DE89DE093
:101700000DDFEC0108171907CCF4BE018DE89DE050
:101710006FDF64E670E080E090E004DC2A97C01799
:10172000D1079CF7F701628173818DE89DE0DF911D
:10173000CF911F910F91FF90EF905ACFC017D10713
:101740008CF7BE018DE89DE053DF64E670E080E039
:1017500090E0E8DB2A96F2CFEF92FF920F931F936F
:10176000CF93DF937C01FC01028113818AE89DE025
:10177000D5DEEC0108171907CCF4BE018AE89DE01C
:1017800037DF64E670E080E090E0CCDB2597C0179F
:10179000D1079CF7F701628173818AE89DE0DF91B0
:1017A000CF911F910F91FF90EF9022CFC017D107DB
:1017B0008CF7BE018AE89DE01BDF64E670E080E004
:1017C00090E0B0DB2596F2CF1F93CF93DF93EC012F
:1017D000162F8881803308F04DC061E0812F4CDBEB
:1017E0008881282F30E0F901EE0FFF1FE20FF31F71
:1017F000E153F84F1F736081607C612B6083198215
:101800001A822CE0622F0E94EE26829FB0011124E2
:1018100030E020E0AB01420F531FFA01EE0FFF1F33
:10182000E40FF51FE153F84F908196FD16C02F5F2E
:101830003F4F2C30310571F7813009F5109280004F
:1018400082E0809381001092850010928400B19A0A
:1018500080916F00826080936F00E8818E2F90E00E
:10186000FC01EE0FFF1FE80FF91FE153F84F8081D5
:10187000806480838881DF91CF911F9108958230A9
:1018800061F4109290008093910010929500109254
:10189000940088BB80937100E0CF833069F410928C
:1018A000A00082E08093A1001092A5001092A400F5
:1018B00089BB80937200D1CF8111CFCF10922001CC
:1018C00082E08093210110922501109224018ABBAD
:1018D00080937300C2CFAF92BF92CF92DF92EF920C
:1018E000FF920F931F93CF93DF936B017A01EC016B
:1018F000C651DA4F28813CE0389F8001399F100D96
:101900001124A0905F08B12C27FF1FC0FB0111829A
:10191000108288818F5F888388819801280F311D0C
:1019200087FD3A95F6012A153B051CF488818C3019
:10193000BCF180819181049680349C4908F471C087
:10194000F6018081918104966EC088819801280FEC
:10195000311D87FD3A952A153B05DCF68881A801E3
:10196000480F511D87FD5A95FA01EE0FFF1FE40F36
:10197000F51FE153F84F808186FFCBCF8881F801B6
:10198000E80FF11D87FDFA95CF01EE0FFF1FE80F5D
:10199000F91FE153F84F808160E08F730ED9B9CF02
:1019A000808191812881A801420F511D27FD5A9500
:1019B0009A01FA01EE0FFF1FE20FF31FE153F84FF8
:1019C00021813281820F931FF70191838083888167
:1019D0009801280F311D87FD3A95F901EE0FFF1F81
:1019E000E20FF31FE153F84F808186FF21C0888109
:1019F000080F111D87FD1A95F801EE0FFF1FE00F6C
:101A0000F11FE153F84F808161E08F73DF91CF9137
:101A10001F910F91FF90EF90DF90CF90BF90AF900C
:101A2000CCC880E49CE9F701918380838FEF8883A1
:101A3000DF91CF911F910F91FF90EF90DF90CF90AA
:101A4000BF90AF9008958A579B4FFC018081089505
:101A500088EF92E0089589E193E00895FC01848580
:101A60009585089589E293E008958AE493E00895C6
:101A7000FC018685978508958AE593E008958BE7B4
:101A800093E00895FC0184A595A50895AF92BF92B7
:101A9000CF92DF92EF92FF920F931F93CF93DF933A
:101AA00000D01F921F92CDB7DEB7643671054CF09F
:101AB000FC01EA57FB4F2081F12CE12C222309F491
:101AC00076C0DA017B018C01BC01615E7D4FED9136
:101AD000FC910190F081E02DCA011995680128EE72
:101AE000C21A2DEFD20A2FEFD6012C93F801E75E30
:101AF000FD4F2EEF2083319680833196908331966F
:101B0000292F280F209520833196E0821696FC928B
:101B100045E050E030E020E0DC011696A417B50760
:101B200034F06191260F311D4F5F5F4FF7CF7C017D
:101B3000B8E0EB0EF11C800F911FFC01E15EFD4F40
:101B400020952083E1E0EE16E2E0FE06B4F45601B3
:101B5000C5018C199D098E159F054CF5D80112966B
:101B60008D919C91F50161915F01DC01ED91FC91FA
:101B70000190F081E02D1995EBCF8EE392E09A83EE
:101B8000898383E08B8384E993E09D838C83D801F0
:101B9000ED91FC910190F081E02DAE014F5F5F4F20
:101BA00067E070E0C8011995EE24EA94FE2CC701A5
:101BB0000F900F900F900F900F90DF91CF911F918A
:101BC0000F91FF90EF90DF90CF90BF90AF9008956E
:101BD0000F931F93CF93DF9300D000D000D01F92BC
:101BE000CDB7DEB78C0182E392E09A8389831B82B2
:101BF0001C821D821E821F82188619861A86D801B1
:101C0000ED91FC910190F081E02DAE014F5F5F4FAF
:101C10006AE070E0C8011995B5D9F801608771874D
:101C2000828793872A960FB6F894DEBF0FBECDBF8A
:101C3000DF91CF911F910F910895CF92DF92EF9294
:101C4000FF92DC011D921D921D921C921397FB01C5
:101C500030E020E0419150E0022E02C0440F551FB9
:101C60000A94E2F7052E000C660B770BCD90DD9001
:101C7000ED90FC9013974C295D296E297F294D9397
:101C80005D936D937C931397285F3F4F203231050E
:101C900009F7FF90EF90DF90CF900895FC0140830B
:101CA0005183128213820895CF93DF93EC018A81CE
:101CB0009B819093D7088093D6080E9403028A8163
:101CC0009B81AC81BD810097A105B10531F41092D3
:101CD000F705DF91CF910C94BC0381309105A105EC
:101CE000B105E1F420E030E04CE852EC6091A30D46
:101CF0007091A40D8091A50D9091A60D0E9467246E
:101D0000882331F060E070E08CE892EC0E942801BA
:101D100081E08093F705DF91CF918ECB0297A105EB
:101D2000B105A9F420E030E04CE852E46091A30D45
:101D30007091A40D8091A50D9091A60D0E9467242D
:101D4000882331F360E070E08CE892E4DFCFDF912C
:101D5000CF9108958DEC93E008958EEE93E0089571
:101D60004F925F926F927F928F929F92AF92BF92AB
:101D7000EF92FF920F931F93CF93DF9300D01F92A8
:101D8000CDB7DEB77C018B01CE01019656DF89818C
:101D90009A81AB81BC814C015D0124E0820E911CD3
:101DA000A11CB11CA8014D5F5F4FFA0124E030E097
:101DB0002901712C612C481459046A047B0428F40D
:101DC000618161932F5F3F4FF3CFF801E80FF91F57
:101DD0001382F7015383428304960F900F900F9064
:101DE0000F90DF91CF911F910F91FF90EF90BF90D7
:101DF000AF909F908F907F906F905F904F900895DD
:101E00008EEF93E008958FE194E008958F929F9272
:101E1000AF92BF92CF92DF92EF92FF920F931F93F8
:101E2000CF93DF93EC018B018A81FB0180838B814F
:101E300081838C8182838D818383D12CC12C812CE1
:101E4000912C540184E0E82EF12CD801AE0DBF1D79
:101E50004A815B816C817D8184169506A606B70652
:101E6000C0F48A899B898C0D9D1DFC0120813181E4
:101E7000F90120813181BD01F9011995E80EF91EA2
:101E8000FFEF8F1A9F0AAF0ABF0A8CE0C80ED11C61
:101E9000DCCF8C898C938D8911968C9311978E89C8
:101EA00012968C9312978F8913968C93C701049680
:101EB000DF91CF911F910F91FF90EF90DF90CF9026
:101EC000BF90AF909F908F900895AF92BF92DF9296
:101ED000EF92FF920F931F93CF93DF93EC018B014F
:101EE000029694DF5801A80EB91E2A8DF5012083B1
:101EF0002B8D21832C8D22832D8D23830496D50158
:101F000040E050E0BA010A8D1B8D2C8D3D8D4017AD
:101F1000510762077307F8F49D012A193B09EAA0EB
:101F2000FBA0E20EF31EF701D080118132812381E4
:101F30001496DC92149715961C93159716963C935D
:101F4000169717962C93179704964F5F5F4F6F4F16
:101F50007F4F1496D8CFDF91CF911F910F91FF90B3
:101F6000EF90DF90BF90AF90089589E394E00895DB
:101F70008AE594E008954F925F926F927F928F92DC
:101F80009F92AF92BF92EF92FF920F931F93CF93C6
:101F9000DF9300D01F92CDB7DEB78C017B01CE015D
:101FA00001964BDE89819A81AB81BC814C015D0138
:101FB00024E0820E911CA11CB11CA7014D5F5F4F54
:101FC000FA0124E030E02901712C612C48145904F5
:101FD0006A047B0428F4618161932F5F3F4FF3CF44
:101FE000E80EF91EF7011382F80153834283F701CB
:101FF000448150E070E060E0F801448355836683DB
:102000007783F7012581522BF8014483558366833A
:102010007783F7012681622BF80144835583668319
:102020007783F7012781722BF801448355836683F8
:102030007783F701408550E070E060E0F801408769
:10204000518762877387F7012185522BF8014087FA
:10205000518762877387F7012285622BF8014087D9
:10206000518762877387F7012385722BF8014087B8
:102070005187628773870C960F900F900F900F9087
:10208000DF91CF911F910F91FF90EF90BF90AF9094
:102090009F908F907F906F905F904F900895FC017C
:1020A000DB014C9150E070E060E042835383648335
:1020B000758311968C911197582B428353836483B7
:1020C000758312968C911297682B42835383648395
:1020D000758313968C91782B428353836483758325
:1020E00084E090E008950F931F93CF93DF938C01CA
:1020F000EC012696CE01D3DFD8011C96ED91FC9120
:10210000CE01DF91CF911F910F911994DC01FB015A
:1021100012968C911297808313968C9113978183DA
:1021200014968C911497828315968C91838384E006
:1021300090E00895FB01208130E0FC01338322838D
:10214000FB014181342BFC013383228382E090E048
:1021500008950F931F93CF93DF938C01EC01269684
:10216000CE01E8DFD8011A96ED91FC91CE01DF9106
:10217000CF911F910F911994FC012281FB012083C3
:10218000FC018381FB01818382E090E0089587E771
:1021900094E0089586E092E0089588E994E0089537
:1021A00089EB94E008954F925F926F927F928F92A5
:1021B0009F92AF92BF92EF92FF920F931F93CF9394
:1021C000DF9300D01F92CDB7DEB77C018B01FB01FE
:1021D0008191BF01F7018283CE0101962EDD8981B5
:1021E0009A81AB81BC814C015D01F5E08F0E911CA1
:1021F000A11CB11CA8014C5F5F4FFA0125E030E043
:102200002901712C612C481459046A047B0428F4B8
:10221000618161932F5F3F4FF3CFF801E80FF91F02
:102220001482F7015483438305960F900F900F900B
:102230000F90DF91CF911F910F91FF90EF90BF9082
:10224000AF909F908F907F906F905F904F90089588
:102250008CEC94E008958DEE94E008954F925F9297
:102260006F927F928F929F92AF92BF92CF92DF92A6
:10227000EF92FF920F931F93CF93DF93CDB7DEB70B
:102280002C970FB6F894DEBF0FBECDBF7C018B013B
:10229000DB018C9190E0F7019383828311962C915E
:1022A000922B938382836E5F7F4FCE010196C5DCB4
:1022B00089809A80AB80BC8024013501F6E04F0E06
:1022C000511C611C711C98012B5F3F4FF90186E086
:1022D00090E0AC0170E060E04415550566057705B7
:1022E00020F4418141930196F4CFB4016A5F7F4F9E
:1022F000F801E80DF91D1582D70115963C932E9330
:102300001497600F711FCE01059697DCBAE08B0E13
:10231000911C4D805E806F807884C401092C000C74
:10232000AA0BBB0B5C016D01A40CB51CC61CD71C11
:10233000F801E80DF91DAF01401B510B70E060E0A2
:102340004A155B056C057D0538F42191AF014250BB
:102350005109DA012C93EFCF480C591CB801640DD8
:10236000751DFB0131971082C4010197800F911FE9
:10237000F70197838683CE0109965FDC92012C5F7B
:102380003F4F89849A84AB84BC84A901032E000C3E
:10239000660B770B480D591D6A1D7B1DF801E20F76
:1023A000F31FCF01801B910BB0E0A0E084179507CD
:1023B000A607B70728F48191DF0112978C93F1CF1C
:1023C000C901880D991DF801E80FF91FDF01119768
:1023D0001C9221503109020F131FD70119961C932B
:1023E0000E9318972181428150E070E060E0BA01BD
:1023F00055274427522B2081422B2381722BF70132
:10240000428753876487758704962C960FB6F89495
:10241000DEBF0FBECDBFDF91CF911F910F91FF9017
:10242000EF90DF90CF90BF90AF909F908F907F9074
:102430006F905F904F90089586E095E0089587E251
:1024400095E00895FC01DB014C9150E070E060E004
:10245000428353836483758311968C911197582B13
:10246000428353836483758312968C911297682BF1
:10247000428353836483758313968C911397782BCF
:10248000428353836483758314964C91149750E070
:1024900070E060E0468357836087718715968C9162
:1024A0001597582B468357836087718716968C91B2
:1024B0001697682B468357836087718717968C9190
:1024C000782B468357836087718788E090E0089572
:1024D000DC01FB0112968C911297808313968C91EC
:1024E0001397818314968C911497828315968C91FF
:1024F0001597838316968C911697848317968C91E3
:102500001797858318968C911897868319968C91C6
:10251000878388E090E0089542E050E065E375E04D
:102520000C946104CF93DF93FC0144815581608159
:10253000718185E996E00E946104EC0185E996E0ED
:10254000EBDF8C0F9D1FDF91CF9108950F931F93A9
:10255000CF93DF93EC01FB0101900020E9F7319765
:10256000AF01461B570B0E9461048C01CE01D4DFE2
:10257000800F911FDF91CF911F910F9108950F93BD
:102580001F93CF93DF938C01EB01FC01808191813C
:102590000097E1F06881798161157105A9F04281A8
:1025A00053812C813D814217530770F00E943329DB
:1025B0008C819D81F801958384831D821C82DF912B
:1025C000CF911F910F9108950E94C527888199810D
:1025D000F801918380838A819B81938382838C819C
:1025E0009D8195838483198218821B821A82E5CF8C
:1025F000FC0180819181009711F00C94C52708950A
:10260000FC0182819381A481B58161E082309105D2
:10261000A105B10559F489E00E943C0782E890E0E9
:102620000E94690660E088E00C94DD050197A10531
:10263000B10549F489E00E943C0782E890E00E94DD
:10264000690661E0F0CF89E00E943C0761E089E023
:102650000E94DD05F6CF0F931F93CF93DF93EC011C
:1026600088819981009759F02A813B812617370785
:1026700030F081E0DF91CF911F910F9108958B0190
:102680006F5F7F4F0E944E28009759F0998388838F
:102690001B830A832C813D81232B59F7FC01108277
:1026A000E8CF80E0E7CFEF92FF920F931F93CF9395
:1026B000DF931F921F92CDB7DEB78C01FC01118210
:1026C0001082138212821582148270E060E0C3DFF0
:1026D000F80120813181811131C02115310519F0B6
:1026E000C9010E94C527F801118210821582148247
:1026F000138212820E94CE0797FD28C08A3091056E
:1027000029F189831A82F801E480F580FFEFEF1A3E
:10271000FF0AB701C8019FDF882361F3F801208118
:10272000318184819581BE016F5F7F4F820F931F3E
:102730000E943329F801F582E482DCCF15821482ED
:1027400067E375E0C9010E943329D4CFC8010F9017
:102750000F90DF91CF911F910F91FF90EF9008950F
:10276000EF92FF920F931F93CF93DF937C018B0126
:10277000DC011296ED91FC91EF0109900020E9F740
:102780002197CE1BDF0BAE0170E060E0C80186DA56
:10279000F70162817381AE01C80104960E942A2963
:1027A000CE010496DF91CF911F910F91FF90EF9092
:1027B00008954F925F926F927F92AF92BF92CF92A5
:1027C000DF92EF92FF920F931F93CF93DF93EC0171
:1027D0005B01FB01C080D180E280F3808A819B8114
:1027E000AC81BD818C159D05AE05BF0560F48CE004
:1027F0008C9DB0018D9D700D11248A899B890E944A
:102800004E289B8B8A8BCA82DB82EC82FD82F12C64
:10281000E12C412C512C320104E010E06E01F6E075
:10282000CF0ED11CF501E00FF11F8A819B81AC8195
:10283000BD81481659066A067B06C0F4BF01C60171
:102840009ADB080F191FAA89BB89AE0DBF1D8CE04A
:10285000F60101900D928A95E1F78FEF481A580A18
:10286000680A780AECE0EE0EF11CDCCF808190E083
:10287000B0E0A0E08C8B9D8BAE8BBF8B2181922B27
:102880008C8B9D8BAE8BBF8B2281A22B8C8B9D8BD7
:10289000AE8BBF8B2381B22B8C8B9D8BAE8BBF8B72
:1028A000C8010496DF91CF911F910F91FF90EF9097
:1028B000DF90CF90BF90AF907F906F905F904F90E0
:1028C0000895AF92BF92CF92DF92EF92FF920F9353
:1028D0001F93CF93DF93EC018B0102966ADF080F01
:1028E000191FF80120813181C280D12CF12CE12CFB
:1028F0007601DD24CC24D32AC22A2381F22A5C016A
:10290000F4E0AF0EB11C8A8D9B8DAC8DBD8D8C1506
:102910009D05AE05BF0558F4B601660F771F660F1B
:10292000771F8AA19BA10E944E289BA38AA3CA8ECF
:10293000DB8EEC8EFD8E9801C12CD12C7601AE0180
:10294000425E5F4F8A8D9B8DAC8DBD8DC816D906BA
:10295000EA06FB0650F5F9016581868190E0B0E05A
:10296000A0E0DC0199278827962B6481862B67815C
:10297000B62B8E8F9F8FA8A3B9A3F4E0AF0EB11C26
:10298000C901801B910BAAA1BBA1A80FB91F84E0AC
:10299000FA0101900D928A95E1F78FEFC81AD80AD3
:1029A000E80AF80A2C5F3F4FCDCFC501DF91CF91E8
:1029B0001F910F91FF90EF90DF90CF90BF90AF905D
:1029C00008950F931F93CF93DF938C01EC0126960C
:1029D000CE0177DFD8019A96ED91FC91CE01DF917F
:1029E000CF911F910F911994EF92FF920F931F9324
:1029F000CF93DF938C01EB01FC01A281B381FD0138
:102A000001900020E9F731977F01EA1AFB0AA7013C
:102A100070E060E0CE0142D9F80162817381A701C4
:102A2000CE0104960E942A29CE0DDF1DF801848173
:102A30008C8385818D8386818E8387818F8380853A
:102A400088878185898782858A8783858B87C70167
:102A50000C96DF91CF911F910F91FF90EF90089509
:102A60002F923F924F925F926F927F928F929F929E
:102A7000AF92BF92CF92DF92EF92FF920F931F938C
:102A8000CF93DF93CDB7DEB72E970FB6F894DEBFA6
:102A90000FBECDBF8C016B01DB018D909D90AD9081
:102AA000BC90FC0182819381A481B5818815990530
:102AB000AA05BB0570F4B401660F771F660F771F78
:102AC000828593850E944E28D8011B969C938E93F5
:102AD0001A97F80182829382A482B582C60140E0EF
:102AE00050E0BA01A4E0EA2EF12C98012A5F3F4F92
:102AF000DC011596EC91159716964C901697512C73
:102B0000712C612C3201552444245E2A1496EC91D8
:102B100014974E2A1796EC917E2AD7011701E4E00C
:102B20002E0E311C71010496F80182809380A480DE
:102B3000B580481559056A057B05A8F44682578279
:102B4000608671861497A284B384AA0DBB1DE4E04D
:102B5000BE2EF90101900D92BA94E1F74F5F5F4FDD
:102B60006F4F7F4FC5CF84859585A685B785841522
:102B70009505A605B70570F4B201660F771F660FBD
:102B8000771F848995890E944E28D80155969C9379
:102B90008E935497F8014486558666867786C601DB
:102BA000820D931D412C512C32011C019801205F94
:102BB0003F4FDC0111966C91119712968C901297F1
:102BC000912CB12CA12C540199248824962A6C9123
:102BD000862A13966C91B62AB4E0EB0EF11CF8012C
:102BE00044855585668577854416550666067706BD
:102BF000C0F4808A918AA28AB38ABC0162197309DF
:102C0000A489B589A60FB71F64E0F90101900D9260
:102C10006A95E1F7BFEF4B1A5B0A6B0A7B0A0496D1
:102C2000C8CF86899789A08DB18D88159905AA0589
:102C3000BB0560F4B401660F771F848D958D0E94EB
:102C40004E28D8015D969C938E935C97F801868AF6
:102C5000978AA08EB18E412C512C32011801FAE1D5
:102C60002F0E311CF80186899789A08DB18D4816E9
:102C700059066A067B0608F05CC0B6016E0D7F1D22
:102C8000CE0101960E941D0E97012C5F3F4F3E879B
:102C90002D8789809A80AB80BC80C901032E000CEF
:102CA000AA0BBB0BAC01BD01480D591D6A1D7B1D54
:102CB00049875A876B877C87F901EC0DFD1D9F01C1
:102CC0002C193D09B90190E080E029853A854B85B2
:102CD0005C85621773078407950728F42191DF014B
:102CE00012972C93ECCFED84FE84E80CF91CF601CE
:102CF000EE0DFF1D319710828D859E8501978C0DFD
:102D00009D1DD8015B969C938E935A97C201880FA4
:102D1000991F5C96ED91FC91E80FF91FD1018D91FF
:102D20009C9191838083BFEF4B1A5B0A6B0A7B0AED
:102D300099CFC7012E960FB6F894DEBF0FBECDBF58
:102D4000DF91CF911F910F91FF90EF90DF90CF9087
:102D5000BF90AF909F908F907F906F905F904F90BB
:102D60003F902F9008952F923F924F925F926F92D3
:102D70007F928F929F92AF92BF92CF92DF92EF920B
:102D8000FF920F931F93CF93DF93CDB7DEB7A69734
:102D90000FB6F894DEBF0FBECDBF8C010E94C207F4
:102DA0004B015C01980125573B4F3E8B2D8BF90160
:102DB00080819181A281B38175016401C81AD90A09
:102DC000EA0AFB0AD701C601893F9A42A105B1056B
:102DD00010F035971082180134E8231A3BEF330ABC
:102DE000D1018D919C91892B79F0F801E157FB4F2E
:102DF00080819181A281B38188159905AA05BB05BF
:102E000018F4F1011182108298012C573B4F3A8B34
:102E1000298BA80140585B4F5C8B4B8BC8014896AF
:102E2000988F8F8BD801AA57BB4FBC8FAB8FF801FF
:102E3000EC56FB4FFE8FED8F215F3F4F38A32F8F56
:102E400042505109588B4F8786599B4F9A8F898FD3
:102E50001996BAA3A9A3A50194012C5E3F4F4F4F29
:102E60005F4F2BA33CA34DA35EA3F80184899589F2
:102E7000A689B789892B8A2B8B2BB9F5D801129695
:102E80008D919C91DC01ED91FC910284F385E02D04
:102E900019959C0197FF3DC0F801EA57FB4F8081CF
:102EA000882301F17801B9E7EB1ABBEFFB0AF701C0
:102EB00080819181A281B381A5019401281B390BE6
:102EC0004A0B5B0BDA01C901853C9940A105B105AC
:102ED00048F0C8010E94E80DD7018D929D92AD92F5
:102EE000BC92139790E080E0B6C10E94C2076819B7
:102EF00079098A099B09F801C488D588E688F7888A
:102F0000C616D706E806F90608F0B8CF8EEF9FEF91
:102F1000A2C1A989BA898D919C911197820F931FA3
:102F20008D939C93F1014081518147305105F9F413
:102F3000A98DBA8D8D919C911197AC014F5F5F4F18
:102F40004D935C93800F911FFC01208FAF85B88952
:102F50008D919C91119701978D939C93892B09F0EA
:102F600084CF88E090E0F101918380837ECF41158A
:102F7000510521F52F3F310581F481E090E09183E7
:102F80008083CBA0DCA0EDA0FEA0A9A1BAA1CD9228
:102F9000DD92ED92FC92139768CF0E94C2076819E8
:102FA00079098A099B09693873418105910508F4FB
:102FB0005CCFF801EA57FB4F1082A8CF4130510592
:102FC00089F42E3F310519F482E090E0CCCF1182D4
:102FD0001082EB8DFC8D8081811147CFC8010E944A
:102FE000E80D43CF4230510591F4AF85B8892D9358
:102FF0003C93E98DFA8D1182108283E090E0D1013B
:103000008D939C93E989FA89318320832ECF4330B5
:10301000510571F4322F2227AF85B8898D919C918B
:103020001197280F391F2D933C9384E090E09BCF9C
:103030004430510579F460E071E00E94FA268F3F38
:10304000910529F485E090E0918380830ECF118271
:1030500010820BCF4530510569F4AB89BC892D93A3
:103060003C9386E090E091838083A989BA892D936F
:103070003C93FBCE46305105A1F4322F2227EB8939
:10308000FC8980819181280F391F3183208387E05B
:1030900090E0D1018D939C93EF85F8898081918197
:1030A0005DCF4830510509F0E0CE1182108260E01A
:1030B00071E00E94FA268F3F910509F0D6CEAB89C8
:1030C000BC89ED91FC91309709F0DEC0C8010E94E7
:1030D000E80D86E292E09A8389831C821B8287E353
:1030E00095E09E838D8398878F839A8789871B8637
:1030F0001C861D861E866801B8EECB1ABBEFDB0A64
:103100007801E6EBEE1AEBEFFE0A412C22E0522E9C
:10311000612C712CD601ED91FC913097A9F184813D
:1031200095819C838B83808191819E838D83828115
:103130009381DC01ED91FC910480F581E02D1995DE
:1031400098878F83D601ED91FC9182819381DC0178
:10315000ED91FC910680F781E02D19959A8789877A
:103160004B865C866D867E86D601ED91FC916085EE
:103170007185D801ED91FC910190F081E02DAE01B7
:103180004F5F5F4FC8011995B2E0CB0ED11CEC1414
:10319000FD0409F0BFCF412C92E0592E612C712C17
:1031A000F701A081B1811097E1F112968D919C9168
:1031B00013979C838B8314968D919C9115979E8376
:1031C0008D83ED91FC9111970480F581E02DCD0167
:1031D000199598878F83D7018D919C91DC01ED9192
:1031E000FC910680F781E02D19959A8789874B8697
:1031F0005C866D867E86D801ED91FC91C080D18081
:10320000F70180819181DC01ED91FC910280F381D5
:10321000E02D1995AE014F5F5F4FBC01C801F6016B
:103220001995F2E0EF0EF11CE214F30409F0B8CFA7
:10323000F801EA57FB4F81E08083319680829182CA
:10324000A282B382AD89BE898D929D92AD92BC92CD
:1032500013978FEF9FEFA6960FB6F894DEBF0FBEC1
:10326000CDBFDF91CF911F910F91FF90EF90DF9035
:10327000CF90BF90AF909F908F907F906F905F9016
:103280004F903F902F900895EA30F10509F0A0C0CB
:1032900082E392E09A8389831B821C821D821E82B4
:1032A0001F82188619861A860E94C207F801C084F8
:1032B000D184E284F3849B01AC012C193D094E09B1
:1032C0005F0969017A016F89788DCE010196BAD8BC
:1032D000C701B60128EE33E040E050E00E94AC2583
:1032E00069017A019B01AC018B819C81AD81BE811A
:1032F0008C0D9D1DAE1DBF1D8B839C83AD83BE8336
:1033000060E472E48FE090E00E94DF26CF80D884F2
:10331000E984FA84DC01CB018C0D9D1DAE1DBF1D1F
:103320008F839887A987BA870E94C207CF80D884E5
:10333000E984FA8436E3D31A35E6E30A34ECF30A77
:1033400028EE33E040E050E00E94AC2529013A012C
:103350009B01AC0160E472E48FE090E00E94DF2604
:10336000A7019601261B370B480B590BCA01B9015F
:103370002B813C814D815E812150310941095109E8
:1033800069017A01C418D508E608F7082601370153
:1033900020E03AEC4AE95BE30E94AC25420E531E62
:1033A000641E751ED8011C964D925D926D927C92A2
:1033B0001F97F801608B718B828B938B0E94C207E1
:1033C000AD89BE896D937D938D939C9313974DCD5D
:1033D000E630F10551F46F89788D8D8D9E8D40DB3F
:1033E00081E0EF8DF8A1808340CDEB30F10521F431
:1033F000AB8DBC8D1C9239CDEF53FE4FEE0FFF1FEE
:10340000E00FF11F80819181009709F42ECDDC013E
:10341000ED91FC910190F081E02D6F89788D1995E7
:1034200024CD4F925F926F927F928F929F92AF9234
:10343000BF92CF92DF92EF92FF920F931F93CF93A1
:10344000DF93EC017B018A81FB0180838B81818387
:103450008C8182838D8183833496412C512C32015F
:1034600004E010E09F012F5F3F4FCF010296DF0184
:103470001396A8010C5F1F4F8A809B80AC80BD8093
:10348000481459046A047B04C8F4AA85BB85A40FB8
:10349000B51F14974C9111962C91119712969C91EF
:1034A000129713968C9140832183928383838FEFAD
:1034B000481A580A680A780A3496D4CF4C85408353
:1034C0004D85F90140832E85FC0120838F858C93E7
:1034D000F701E00FF11F412C512C3201AF019F0188
:1034E0002F5F3F4FCF010296DF0113960C5F1F4FF6
:1034F0008C849D84AE84BF84481459046A047B0480
:10350000D8F4CF01841B950BAC89BD89A80FB91FD6
:103510003C9111962C91119712969C9112971396AB
:103520008C9130832183928383838FEF481A580ACA
:10353000680A780A3496D3CF4E8940834F89F901BF
:103540004083288DFC012083898D8C93412C512C44
:1035500032018E899F89A88DB98D481659066A0651
:103560007B0680F55201AA0CBB1CEC8DFD8DEA0D8B
:10357000FB1DA081B181FD0101900020E9F7319789
:103580006F01CA1ADB0AA60170E060E0C701800F74
:10359000911F0E944E0E0C5F1F4F8C8D9D8DA80EAB
:1035A000B91EF50160817181A601C701800F911FCD
:1035B0000E942A290C0D1D1DFFEF4F1A5F0A6F0A8A
:1035C0007F0AC7CFC801DF91CF911F910F91FF9064
:1035D000EF90DF90CF90BF90AF909F908F907F90B3
:1035E0006F905F904F900895EF92FF920F931F930B
:1035F000CF93DF938C017B01DC0112962C91129703
:10360000FB012193CF011396ED91FC91EF010990FD
:103610000020E9F72197CE1BDF0BAE0170E060E0E0
:103620000E944E0ED80113966D917C91AE01C70198
:1036300005960E942A29CE010596DF91CF911F9110
:103640000F91FF90EF900895CF92DF92EF92FF924B
:103650000F931F93CF93DF936C01EB01DC01129664
:103660008C911297888313968C9113978983149663
:10367000ED91FC91DF010D900020E9F78D010150E3
:1036800011090E1B1F0BA80170E060E0CE0102962D
:103690000E944E0EF60164817581A801CE01069646
:1036A0000E942A29C8010696F601A681B781FD016C
:1036B00001900020E9F731977F01EA1AFB0AA70180
:1036C00070E060E08C0F9D1F0E944E0E065F1F4F42
:1036D000D60116966D917C91A701CE01800F911FA6
:1036E0000E942A290E0D1F1DF601A085B185FD013E
:1036F00001900020E9F731977F01EA1AFB0AA70140
:1037000070E060E0CE01800F911F0E944E0E0C5FB2
:103710001F4FD60118966D917C91A701CE01800FA5
:10372000911F0E942A29C701800F911FF60162850F
:10373000438534852585C80FD91F688349833A831B
:103740002B830496DF91CF911F910F91FF90EF9003
:10375000DF90CF9008951F920F920FB60F92112411
:103760000BB60F922F933F934F935F936F937F937B
:103770008F939F93AF93BF93EF93FF9388EF95E061
:103780000E94FF04FF91EF91BF91AF919F918F91A4
:103790007F916F915F914F913F912F910F900BBE51
:1037A0000F900FBE0F901F9018951F920F920FB69B
:1037B0000F9211240BB60F922F933F934F935F9369
:1037C0006F937F938F939F93AF93BF93EF93FF93E9
:1037D00088EF95E00E948E04FF91EF91BF91AF9129
:1037E0009F918F917F916F915F914F913F912F9119
:1037F0000F900BBE0F900FBE0F901F9018951F9249
:103800000F920FB60F9211240BB60F922F933F9386
:103810004F935F936F937F938F939F93AF93BF93D8
:10382000EF93FF9385E996E00E94FF04FF91EF91EB
:10383000BF91AF919F918F917F916F915F914F91C8
:103840003F912F910F900BBE0F900FBE0F901F90C6
:1038500018951F920F920FB60F9211240BB60F926C
:103860002F933F934F935F936F937F938F939F9388
:10387000AF93BF93EF93FF9385E996E00E948E0488
:10388000FF91EF91BF91AF919F918F917F916F9138
:103890005F914F913F912F910F900BBE0F900FBEF4
:1038A0000F901F9018951F920F920FB60F92112430
:1038B0000BB60F922F933F934F935F936F937F932A
:1038C0008F939F93AF93BF93EF93FF9382E397E020
:1038D0000E94FF04FF91EF91BF91AF919F918F9153
:1038E0007F916F915F914F913F912F910F900BBE00
:1038F0000F900FBE0F901F9018951F920F920FB64A
:103900000F9211240BB60F922F933F934F935F9317
:103910006F937F938F939F93AF93BF93EF93FF9397
:1039200082E397E00E948E04FF91EF91BF91AF91E7
:103930009F918F917F916F915F914F913F912F91C7
:103940000F900BBE0F900FBE0F901F9018951F92F7
:103950000F920FB60F9211242F933F938F939F9343
:10396000AF93BF938091EF059091F005A091F10581
:10397000B091F2053091EE0523E0230F2D3758F575
:103980000196A11DB11D2093EE058093EF05909344
:10399000F005A093F105B093F2058091F3059091A5
:1039A000F405A091F505B091F6050196A11DB11D94
:1039B0008093F3059093F405A093F505B093F60575
:1039C000BF91AF919F918F913F912F910F900FBE1B
:1039D0000F901F90189526E8230F0296A11DB11D88
:1039E000D2CF1F920F920FB60F9211240BB60F92E7
:1039F0002F933F934F935F936F937F938F939F93F7
:103A0000AF93BF93EF93FF9348E251E064E271E01C
:103A100090E080E00E946B0CFF91EF91BF91AF911D
:103A20009F918F917F916F915F914F913F912F91D6
:103A30000F900BBE0F900FBE0F901F9018951F9206
:103A40000F920FB60F9211240BB60F922F933F9344
:103A50004F935F936F937F938F939F93AF93BF9396
:103A6000EF93FF9348EA50E064EA70E083E090E06F
:103A70000E946B0CFF91EF91BF91AF919F918F913D
:103A80007F916F915F914F913F912F910F900BBE5E
:103A90000F900FBE0F901F9018951F920F920FB6A8
:103AA0000F9211240BB60F922F933F934F935F9376
:103AB0006F937F938F939F93AF93BF93EF93FF93F6
:103AC00048E950E064E970E082E090E00E946B0C0D
:103AD000FF91EF91BF91AF919F918F917F916F91E6
:103AE0005F914F913F912F910F900BBE0F900FBEA2
:103AF0000F901F9018951F920F920FB60F921124DE
:103B00000BB60F922F933F934F935F936F937F93D7
:103B10008F939F93AF93BF93EF93FF9348E850E049
:103B200064E870E081E090E00E946B0CFF91EF91FF
:103B3000BF91AF919F918F917F916F915F914F91C5
:103B40003F912F910F900BBE0F900FBE0F901F90C3
:103B500018958F929F92AF92BF92CF92DF92EF9281
:103B6000FF921092FB051092FA0548EE53E060E0D8
:103B700070E04093FC055093FD056093FE05709343
:103B8000FF058AE492E09093F9058093F80525E318
:103B900031E0309305062093040624E331E03093AE
:103BA00007062093060620E331E0309309062093B0
:103BB000080621E331E030930B0620930A0622E346
:103BC00031E030930D0620930C0626E331E030936C
:103BD0000F0620930E0610921106109212061092F4
:103BE00013061092140610929806109297064093AE
:103BF000990650939A0660939B0670939C06909347
:103C00009606809395062DEC30E03093A206209323
:103C1000A1062CEC30E03093A4062093A30628ECF8
:103C200030E03093A6062093A50629EC30E03093CF
:103C3000A8062093A7062AEC30E03093AA0620932A
:103C4000A9062EEC30E03093AC062093AB06109220
:103C5000AE061092AF061092B0061092B106109206
:103C60003507109234074093360750933707609317
:103C7000380770933907909333078093320785ECA8
:103C800090E090933F0780933E0784EC90E0909300
:103C900041078093400780EC90E090934307809326
:103CA000420781EC90E0909345078093440782ECB3
:103CB00090E0909347078093460786EC90E09093BE
:103CC00049078093480710924B0710924C071092B7
:103CD0004D0710924E0786E992E09093910D8093E4
:103CE000900D88E08093920D10929B0D10929C0D88
:103CF00010929D0D10929E0D10929F0D1092A00D8E
:103D00001092A10D1092A20D1092A30D1092A40D6D
:103D10001092A50D1092A60DC12CD12C40E8E42ED6
:103D20004FE3F42EC092A70DD092A80DE092A90DFA
:103D3000F092AA0D1092AB0D1092AC0D1092AD0D39
:103D40001092AE0DC092AF0DD092B00DE092B10DB9
:103D5000F092B20D1092B30D1092B40D1092B50DF9
:103D60001092B60D81E090E09093BC0D8093BB0D56
:103D70008FEF8093BE0D1092B70D1092B80D109278
:103D8000B90D1092BA0D8AE08093930D8CE0809368
:103D9000940D8BE08093950D8DE08093960D10929D
:103DA000C30D1092C40D1092C50D1092C60D109245
:103DB000C70D1092C80D1092C90D1092CA0D109225
:103DC000CB0D1092CC0D1092CD0D1092CE0DC09255
:103DD000CF0DD092D00DE092D10DF092D20D109275
:103DE000D30D1092970D1092980D1092990D10927C
:103DF0009A0D80E99DE00E94FD078090AB0D9090A8
:103E0000AC0DA090AD0DB090AE0DA7019601C5010F
:103E1000B4015DD5882359F16091C30D7091C40D33
:103E20008091C50D9091C60D58D5A5019401B4D5CA
:103E300091D76093C30D7093C40D8093C50D90937B
:103E4000C60D86E896E6A9E6B9E48093C70D90937F
:103E5000C80DA093C90DB093CA0DC092AB0DD092FE
:103E6000AC0DE092AD0DF092AE0D0E941202809169
:103E70005F08803308F098C191E0980F90935F0835
:103E800080938D0D90E0FC01EE0FFF1FE80FF91FEE
:103E9000E153F84F88EB9BE09283818380915F0828
:103EA000803308F085C191E0980F90935F0880936C
:103EB0008A0D90E0FC01EE0FFF1FE80FF91FE153A0
:103EC000F84F88EB9BE0928381838CE892E090939B
:103ED000D9088093D80882E397E09093DB08809319
:103EE000DA0880E091EEA0E0B0E08093DC089093E7
:103EF000DD08A093DE08B093DF0810925E0D80E825
:103F000092E090936D0D80936C0D1092820D109243
:103F1000830D1092840D1092850D1092890D1092D0
:103F2000880DE0EFFCE0119211928DE0E232F8078B
:103F3000D1F7E2E2FDE0119211928DE0E435F8074D
:103F4000D1F7E0EFF8E080EF9AE011928E179F072B
:103F5000E1F7E0EFFAE080EF9CE011928E179F0707
:103F6000E1F710926E0D10926F0D1092700D10927D
:103F7000710D1092770D1092760D1092780D1092AF
:103F8000790D10927A0D10927B0D1092810D109286
:103F9000800D1092EC081092ED081092EE0810922D
:103FA000EF088CEE92E09093D5088093D40827E335
:103FB00035E03093D7082093D60888E395E09093B6
:103FC000CB088093CA0884ED98E09093CD08809345
:103FD000CC081092D3081092D20860EE72E0709371
:103FE000BD086093BC0844ED52E05093C308409371
:103FF000C2081092C5081092C40884E79BE0909311
:10400000C7088093C60881E090E09093C908809328
:10401000C808E0E4F5E0F093C108E093C0087093AD
:10402000AF086093AE085093B5084093B40810925F
:10403000B7081092B6084CEA5BE05093B908409379
:10404000B8089093BB088093BA0840E555E05093B8
:10405000B3084093B20868EC72E070939F086093D5
:104060009E084CEB52E05093A5084093A408109290
:10407000A6081092A7081092A8081092A908E0E0DC
:10408000F3E1F093AB08E093AA089093AD08809316
:10409000AC08E0E6F5E0F093A308E093A208709383
:1040A0008F0860938E08509395084093940810925F
:1040B000960810929708109298081092990844E573
:1040C0005EE050939B0840939A0890939D088093DC
:1040D0009C0840E755E0509393084093920840EBCA
:1040E00052E0509361084093600844E752E05093D7
:1040F00067084093660848E652E050936908409389
:10410000680810926A0810926B0810926C0810925E
:104110006D084CE552E050936F0840936E08309361
:104120007108209370081092720810927308109210
:104130007408109275081092760810927708109201
:1041400078081092790810927B0810927A081092E1
:104150007C0810927D0810927E0810927F081092C1
:1041600080081092810810928208109283081092A1
:104170008908109288082DE635E030938B0820934B
:104180008A0890938D0880938C0880E895E090933E
:10419000650880936408FF90EF90DF90CF90BF9008
:1041A000AF909F908F9008958FEF80938D0D76CE76
:1041B0008FEF80938A0D89CECF93DF93CDB7DEB793
:1041C0002C970FB6F894DEBF0FBECDBF789484B5A0
:1041D000826084BD84B5816084BD85B5826085BD03
:1041E00085B5816085BD80916E00816080936E0091
:1041F0001092810080918100826080938100809183
:104200008100816080938100809180008160809333
:1042100080008091B10084608093B1008091B000F3
:1042200081608093B00080919100826080939100C2
:1042300080919100816080939100809190008160D5
:10424000809390008091A10082608093A100809172
:10425000A10081608093A1008091A0008160809383
:10426000A000809121018260809321018091210131
:1042700081608093210180912001816080932001E1
:1042800080917A00846080937A0080917A008260C5
:1042900080937A0080917A00816080937A00809187
:1042A0007A00806880937A001092C10061E089E012
:1042B0000E943C0761E088E00E943C0761E089E0E1
:1042C0000E943C0761E089E00E94DD0561E088E032
:1042D0000E94DD056CE270E08DE89DE00E94E40B39
:1042E0006DE270E08AE89DE00E94E40B4091DC08FA
:1042F0005091DD086091DE087091DF088091DA0846
:104300009091DB080E94A3011092550D1092540D5C
:104310001092570D1092560D10925B0D10925A0D7F
:104320001092590D1092580D62E087E00E943C07F0
:1043300062E086E00E943C0720E030E04AE754E477
:104340006091A70D7091A80D8091A90D9091AA0D73
:10435000BED2882309F449C080E090E0AAE7B4E423
:104360008093A70D9093A80DA093A90DB093AA0DCB
:104370008093CF0D9093D00DA093D10DB093D20D1B
:104380008091C30D9091C40DA091C50DB091C60D43
:10439000181619061A061B0644F56091A30D7091B4
:1043A000A40D8091A50D9091A60D9B01AC01F4D2B6
:1043B0006B017C016091AB0D7091AC0D8091AD0DE6
:1043C0009091AE0D9B01AC01F9D39B01AC01C701EB
:1043D000B60158D4BFD46093C30D7093C40D8093BD
:1043E000C50D9093C60D0E94120220E030E048E413
:1043F00052E46091A30D7091A40D8091A50D909150
:10440000A60D65D2882331F060E070E088E492E484
:104410000E942801E2E2FDE0DF0190E080E02D91C2
:104420003D91232B09F025C2DC01AA0FBB1FAE5D15
:10443000B24F2CEB38E02D933C938C599F4F9093C7
:10444000BF088093BE08A2E2BDE090E080E02D911D
:104450003D91232B09F013C2DC01AA0FBB1FAE5DF7
:10446000B24F2EEA38E02D933C938C599F4F909396
:10447000B1088093B008A2E2BDE090E080E02D9109
:104480003D91232B09F001C2DC01AA0FBB1FAE5DD9
:10449000B24F2EE938E02D933C938C599F4F909367
:1044A000A1088093A008A2E2BDE090E080E02D91F9
:1044B0003D91232B09F0EFC1DC01AA0FBB1FAE5DBC
:1044C000B24F2EE838E02D933C938C599F4F909338
:1044D00091088093900890E080E021913191232B06
:1044E00009F0DFC1FC01EE0FFF1FEE5DF24F20E689
:1044F00038E0318320838C599F4F909363088093D9
:104500006208E0EFFCE090E080E021913191232B04
:1045100009F0CDC1FC01EE0FFF1FE051F34F2AEC73
:1045200038E03183208383589F4F9093CF08809346
:10453000CE0888ED98E09093D1088093D008188633
:104540001F821A8619861C861B8670E060E0CE01E9
:1045500007960E942B132F8138858111AEC121153A
:10456000310511F0C90111D518861F821C861B86E2
:104570001A86198661E088E20E943C0740E855E20D
:1045800060E070E088EF95E00E94A30164E875E0C8
:1045900085E996E00E94A61260E088E20E94DD05AF
:1045A00064EF71E080E090E00E94920767E975E0B7
:1045B00088EF95E00E94A61267E975E085E996E02C
:1045C0000E94A61268EE73E080E090E00E949207DD
:1045D00088EF95E00E94D804181619069CF4CE01C5
:1045E00001960E945313BE016F5F7F4FCE01079665
:1045F0000E94BF12CE0101960E94F812CE010796CA
:104600000E9492128AE995E09093D7088093D60889
:104610000E94030288ED98E00E94B31664EF71E0F7
:1046200080E090E00E94920760EA75E088EF95E0F4
:104630000E94A61260EA75E085E996E00E94A61243
:1046400068EE73E080E090E00E94920788EF95E0CA
:104650000E94D804181619069CF4CE0101960E94F7
:104660005313BE016F5F7F4FCE0107960E94BF12AA
:10467000CE0101960E94F812CE0107960E94921276
:1046800085EA95E09093D7088093D6080E940302AC
:1046900088ED98E00E94B31664EF71E080E090E04E
:1046A0000E9492076CEA75E088EF95E00E94A612DE
:1046B0006CEA75E085E996E00E94A61268EE73E068
:1046C00080E090E00E94920788EF95E00E94D80475
:1046D000181619069CF4CE0101960E945313BE01D0
:1046E0006F5F7F4FCE0107960E94BF12CE010196E9
:1046F0000E94F812CE0107960E94921287EB95E075
:104700009093D7088093D6080E94030288ED98E022
:104710000E94B31664EF71E080E090E00E9492077F
:104720006EEB75E088EF95E00E94A6126EEB75E0E7
:1047300085E996E00E94A61268EE73E080E090E0C2
:104740000E94920788EF95E00E94D8041816190677
:104750009CF4CE0101960E945313BE016F5F7F4F00
:10476000CE0107960E94BF12CE0101960E94F81258
:10477000CE0107960E94921284EC95E09093D708A0
:104780008093D6080E94030288ED98E00E94B31639
:1047900064EF71E080E090E00E9492076BEC75E0BE
:1047A00088EF95E00E94A6126BEC75E085E996E033
:1047B0000E94A61268EE73E080E090E00E949207EB
:1047C00088EF95E00E94D804181619069CF4CE01D3
:1047D00001960E945313BE016F5F7F4FCE01079673
:1047E0000E94BF12CE0101960E94F812CE010796D8
:1047F0000E94921283ED95E09093D7088093D6089B
:104800000E94030288ED98E00E94B31664EF71E005
:1048100080E090E00E9492076AED75E085E996E0FD
:104820000E94A61261E088E20E94DD0586EE95E016
:104830009093D7088093D6080E94030288ED98E0F1
:104840000E94B316CE0107960E94F81288ED98E0F8
:104850000E94B3168091F7058823B1F10E941C0ACB
:1048600061E070E080E090E00E9492070E94B7054E
:10487000EDCF01968931910509F0D1CDE4CD0196B6
:104880008931910509F0E3CDF6CD01968931910585
:1048900009F0F5CD08CE01968931910509F007CED2
:1048A0001ACE01968931910509F017CE2ACE0196CC
:1048B0008931910509F029CE42CE1C861B8667E31B
:1048C00075E0C901D0D456CE0E94BC03C9CF40D0F8
:1048D00008F481E00895E89409C097FB3EF49095B0
:1048E0008095709561957F4F8F4F9F4F9923A9F0C9
:1048F000F92F96E9BB279395F69587957795679558
:10490000B795F111F8CFFAF4BB0F11F460FF1BC09B
:104910006F5F7F4F8F4F9F4F16C0882311F096E92E
:1049200011C0772321F09EE8872F762F05C06623DC
:1049300071F096E8862F70E060E02AF09A95660F95
:10494000771F881FDAF7880F9695879597F908954E
:10495000990F0008550FAA0BE0E8FEEF1616170690
:10496000E807F907C0F012161306E407F50798F0F8
:10497000621B730B840B950B39F40A2661F0232B11
:10498000242B252B21F408950A2609F4A140A6958D
:104990008FEF811D811D08950BD078C069D028F05C
:1049A0006ED018F0952309F05AC05FC01124A2C040
:1049B0007ED0A0F3959FD1F3950F50E0551F629FD5
:1049C000F001729FBB27F00DB11D639FAA27F00D68
:1049D000B11DAA1F649F6627B00DA11D661F829F8F
:1049E0002227B00DA11D621F739FB00DA11D621F74
:1049F000839FA00D611D221F749F3327A00D611D91
:104A0000231F849F600D211D822F762F6A2F112472
:104A10009F5750408AF0E1F088234AF0EE0FFF1FC5
:104A2000BB1F661F771F881F91505040A9F79E3FFC
:104A3000510570F014C05EC05F3FECF3983EDCF3AC
:104A4000869577956795B795F795E7959F5FC1F739
:104A5000FE2B880F911D9695879597F9089597F9E4
:104A60009F6780E870E060E008959FEF80EC089514
:104A700000240A941616170618060906089500243D
:104A80000A9412161306140605060895092E0394B7
:104A9000000C11F4882352F0BB0F40F4BF2B11F42B
:104AA00060FF04C06F5F7F4F8F4F9F4F089557FD8A
:104AB0009058440F551F59F05F3F71F04795880F8C
:104AC00097FB991F61F09F3F79F087950895121623
:104AD00013061406551FF2CF4695F1DF08C01616CF
:104AE00017061806991FF1CF869571056105089480
:104AF0000895E894BB2766277727CB0197F9089597
:104B0000052E97FB16F400940FD057FD05D024D046
:104B100007FC02D046F408C0509540953095219589
:104B20003F4F4F4F5F4F08959095809570956195D9
:104B30007F4F8F4F9F4F089531D0A59F900DB49F09
:104B4000900DA49F800D911D11240895B7FFF4CFFF
:104B5000F3DF821B930B0895A1E21A2EAA1BBB1B45
:104B6000FD010DC0AA1FBB1FEE1FFF1FA217B30739
:104B7000E407F50720F0A21BB30BE40BF50B661F4F
:104B8000771F881F991F1A9469F760957095809513
:104B900090959B01AC01BD01CF010895A29FB0018A
:104BA000B39FC001A39F700D811D1124911DB29F61
:104BB000700D811D1124911D08955058BB27AA27FF
:104BC0000ED064CF55DF30F05ADF20F031F49F3F34
:104BD00011F41EF44ACF0EF4E095E7FB40CFE92F25
:104BE00066DF80F3BA17620773078407950718F02A
:104BF00071F49EF57ECF0EF4E0950B2EBA2FA02D0A
:104C00000B01B90190010C01CA01A0011124FF2779
:104C1000591B99F0593F50F4503E68F11A16F04074
:104C2000A22F232F342F4427585FF3CF4695379573
:104C30002795A795F0405395C9F77EF41F16BA0B38
:104C4000620B730B840BBAF09150A1F0FF0FBB1FE6
:104C5000661F771F881FC2F70EC0BA0F621F731F2F
:104C6000841F48F4879577956795B795F7959E3F8C
:104C700008F0B3CF9395880F08F09927EE0F97951A
:104C8000879508950CD002CFFADE40F0F1DE30F0C7
:104C900021F45F3F19F0E3CE51112CCFE6CE07DFB0
:104CA00098F39923C9F35523B1F3951B550BBB27F3
:104CB000AA2762177307840738F09F5F5F4F220FA0
:104CC000331F441FAA1FA9F333D00E2E3AF0E0E899
:104CD00030D091505040E695001CCAF729D0FE2FE5
:104CE00027D0660F771F881FBB1F26173707480777
:104CF000AB07B0E809F0BB0B802DBF01FF2793582D
:104D00005F4F2AF09E3F510568F0A9CEF3CE5F3F7A
:104D1000ECF3983EDCF3869577956795B795F79514
:104D20009F5FC9F7880F911D9695879597F908950C
:104D3000E1E0660F771F881FBB1F621773078407A8
:104D4000BA0720F0621B730B840BBA0BEE1F88F7B7
:104D5000E095089504D06894B111CCCE0895AFDEEB
:104D600088F09F5790F0B92F9927B751A0F0D1F054
:104D7000660F771F881F991F1AF0BA95C9F712C0DE
:104D8000B13081F0B6DEB1E00895B3CE672F782F51
:104D90008827B85F39F0B93FCCF38695779567954A
:104DA000B395D9F73EF490958095709561957F4FB6
:104DB0008F4F9F4F0895CCDD08F48FEF0895DB01EE
:104DC0008F939F93B9DEBF91AF91A29F800D911DEC
:104DD000A39F900DB29F900D11240895991B79E027
:104DE00004C0991F961708F0961B881F7A95C9F77B
:104DF0008095089597FB072E16F4009406D077FD52
:104E000008D013D007FC05D03EF4909581959F4FB4
:104E10000895709561957F4F0895EE0FFF1F881FCD
:104E20008BBF0790F691E02D1994AA1BBB1B51E193
:104E300007C0AA1FBB1FA617B70710F0A61BB70B0A
:104E4000881F991F5A95A9F780959095BC01CD01AF
:104E500008950F931F93CF93DF938230910510F441
:104E600082E090E0E091D60DF091D70D30E020E0A7
:104E7000B0E0A0E0309799F42115310509F44AC05B
:104E8000281B390B24303105D8F58A819B816115A7
:104E9000710589F1FB0193838283FE0111C040817A
:104EA00051810281138148175907E0F048175907CB
:104EB00099F4109761F012960C93129713961C9325
:104EC0003296CF01DF91CF911F910F9108950093FA
:104ED000D60D1093D70DF4CF2115310551F042179F
:104EE000530738F0A901DB019A01BD01DF01F80188
:104EF000C1CFEF01F9CF9093D70D8093D60DCDCFD1
:104F0000FE01E20FF31F81939193225031093983FF
:104F10002883D7CF2091D40D3091D50D232B41F488
:104F200020910202309103023093D50D2093D40DCD
:104F300020910002309101022115310541F42DB775
:104F40003EB74091040250910502241B350BE091BD
:104F5000D40DF091D50DE217F307A0F42E1B3F0BF3
:104F60002817390778F0AC014E5F5F4F24173507DB
:104F700048F04E0F5F1F5093D50D4093D40D819391
:104F800091939FCFF0E0E0E09CCFCF93DF93009729
:104F9000E9F0FC01329713821282A091D60DB091F4
:104FA000D70DED0130E020E01097A1F42081318190
:104FB000820F931F2091D40D3091D50D28173907FA
:104FC00009F061C0F093D50DE093D40DDF91CF913E
:104FD0000895EA01CE17DF07E8F54A815B819E015B
:104FE00041155105B1F7E901FB83EA8349915991D4
:104FF000C40FD51FEC17FD0761F4808191810296E3
:10500000840F951FE90199838883828193819B8313
:105010008A83F0E0E0E012968D919C9113970097BF
:10502000B9F52D913C911197CD010296820F931FF6
:105030002091D40D3091D50D2817390739F63097C6
:1050400051F51092D70D1092D60DB093D50DA093B7
:10505000D40DBCCFD383C28340815181840F951F6F
:10506000C817D90761F44E5F5F4F88819981480F57
:10507000591F518340838A819B81938382832115A9
:10508000310509F0B0CFF093D70DE093D60D9ECF48
:10509000FD01DC01C0CF13821282D7CF4F925F9205
:1050A0006F927F928F929F92AF92BF92CF92DF9238
:1050B000EF92FF920F931F93CF93DF938C01009792
:1050C00091F4CB01DF91CF911F910F91FF90EF9061
:1050D000DF90CF90BF90AF909F908F907F906F9018
:1050E0005F904F90B6CEFC01E60FF71F9C01225057
:1050F0003109E217F30708F4AAC0D901CD91DC9178
:105100001197C617D70718F1C530D10570F0CE0139
:1051100004978617970748F0C61BD70B2297C193B1
:10512000D1936D937C93CF0130DFC801DF91CF9194
:105130001F910F91FF90EF90DF90CF90BF90AF90B5
:105140009F908F907F906F905F904F9008955B013C
:10515000AC1ABD0A4C018C0E9D1EA091D60DB091CB
:10516000D70D512C412CF12CE12C109731F5809169
:10517000D40D9091D50D8815990509F05CC046169F
:10518000570608F058C080910002909101020097E4
:1051900041F48DB79EB74091040250910502841BE3
:1051A000950BE817F90708F052C0F093D50DE0937E
:1051B000D40DF90171836083B8CF8D919C911197C3
:1051C00012966C90129713967C901397A815B905B8
:1051D00059F56C0142E0C40ED11CCA14DB0420F165
:1051E000AC014A195B09DA011296159780F06282C8
:1051F000738251834083D9016D937C93E114F10450
:1052000071F0D7011396FC93EE9312978ECF2296EE
:105210008C0F9D1FF90191838083F301EFCFF093F1
:10522000D70DE093D60D81CF4816590608F42C010E
:105230007D01D3019ACFCB010CDE7C01009739F0C0
:10524000AE01B80107D0C801A0DE87016ECF10E023
:1052500000E06BCFFB01DC0102C001900D924150D8
:105260005040D8F70895FB01DC0101900D92002019
:08527000E1F70895F894FFCF67
:105278000000D80D8000726F7373657269616C5F8E
:105288006D7367732F5265717565737450617261C0
:105298006D0000000000241B2E112B1128110000A6
:1052A8000000681222121F121C1200000000F41ADB
:1052B800D310D010CD100000000021056104A70410
:1052C8009805D804B604CA0400000000F414BB0F03
:1052D800B80FB50F00000000060FD913030F000F19
:1052E80000000000650F61143F0D3C0D0000000038
:1052F800111A3015CA10C71000000000460DB31669
:10530800230D000000002B08FD079509D2097F092D
:1053180043092209EE08CD08770844080000000078
:10532800E114420D3F0D3C0D0000000086104F10A7
:10533800350D320D000000007310380D350D320D9B
:1053480000000000BC109A102B0D280D0000000072
:10535800A9102E0D2B0D280D00000000B013B00E63
:10536800AD0EAA0E4E464300316466373965646651
:10537800323038623632396665366238313932331E
:105388006135343435353264007374645F6D736726
:10539800732F55496E7431360033303461333934E4
:1053A800343935383863376638636532646636654C
:1053B800383030316335666365007374645F6D73CC
:1053C80067732F55496E7433320031643939663743
:1053D8003966386233323562343466656539303857
:1053E80030353365396339343562007374645F6D01
:1053F8007367732F496E7433324D756C74694172DB
:10540800726179004D6573736167652066726F6DAF
:10541800206465766963652064726F707065643AAC
:10542800206D657373616765206C617267657220B2
:105438007468616E206275666665722E003939324D
:105448006365386131363837636563386338626459
:1054580038383365633733636134316431007374CA
:10546800645F6D7367732F537472696E670030667B
:1054780065643261313163313365313163353537D4
:1054880031623465326139393561393161330073DC
:1054980074645F6D7367732F4D756C7469417272B4
:1054A80061794C61796F75740034636430633833A3
:1054B80061383638336465616534306563646163C7
:1054C800363065353362666138007374645F6D73B6
:1054D80067732F4D756C7469417272617944696D97
:1054E800656E73696F6E003966306539386264615C
:1054F8003635393831393836646466353361666132
:1055080037613430653439003131616264373331A1
:105518006332353933333236316364363138336286
:10552800643132643632393500726F73736572696B
:10553800616C5F6D7367732F4C6F67003061643502
:105548003166383866633434383932663863313016
:1055580036383430373736343630303500726F737A
:1055680073657269616C5F6D7367732F546F7069CF
:1055780063496E666F006364373136366337346368
:10558800353532633331316662636332666535615E
:10559800376263323839007374645F6D7367732FD1
:1055A80054696D65000D0A00636861747465720062
:1055B8002F61726475696E6F2F736572766F310033
:1055C8002F61726475696E6F2F736572766F320022
:1055D8002F61726475696E6F2F6D6F746F72310011
:1055E8002F61726475696E6F2F736C6964657200E0
:1055F8006E66630053746172742048432D31322003
:10560800436F6E66696700415400737465703100BA
:1056180041542B5600737465705F320041542B441B
:10562800454641554C5400737465705F33004154CE
:105638002B503800737465705F340041542B43302D
:10564800333000737465705F3500536176652026CA
:0A565800204578697400474F0000F8
:00000001FF
