:1000000003C1000032C1000030C100002EC1000059
:100010002CC100002AC1000028C1000026C1000038
:1000200024C100000C943D0E0C943D0E0C943D0E2A
:100030001CC100001AC1000018C1000016C1000058
:1000400014C1000012C1000010C100000EC1000068
:100050000CC100000AC1000008C100000C94F30D9F
:1000600004C100000C94BD0D0C94930DFEC0000063
:10007000FCC00000FAC00000F8C00000F6C000009C
:10008000F4C00000F2C00000F0C00000EEC00000AC
:10009000ECC00000EAC00000E8C00000E6C00000BC
:1000A000E4C00000E2C00000E0C00000DEC00000CC
:1000B000DCC00000DAC00000D8C00000D6C00000DC
:1000C000D4C00000D2C00000D0C00000CEC00000EC
:1000D000CCC00000CAC00000C8C00000C6C00000FC
:1000E000C4C0000000000A0B02090C0D0E08070333
:1000F00004010000000000000000000000000000FB
:1001000000000000000000000000000000000000EF
:1001100012111000000000000000000000000000AC
:10012000000000000000000000000000200023008C
:10013000260029002C002F003200000100000301DE
:100140000601090100002100240027002A002D00DB
:100150003000330001010000040107010A01000022
:100160002200250028002B002E003100340002015F
:100170000000050108010B01050505050705080834
:100180000808020202020A0A080804040404010121
:100190000101010101010303030303030303040736
:1001A00007070C0C0C0C0C0C0C0C020202020606CD
:1001B0000606060606060B0B0B0B0B0B0B0B0102C0
:1001C0001020200808102040102040800201020169
:1001D0000804020101020408102040808040201021
:1001E000080402018004020180402010080402017A
:1001F00008040201010204081020408001020408E2
:1002000010204080B90E281211241FBECFEFD1E27A
:10021000DEBFCDBF00E00CBF13E0A0E0B2E0E0EB3A
:10022000F9E200E00BBF02C007900D92A03CB107BD
:10023000D9F729E0A0ECB3E001C01D92AD38B207B8
:10024000E1F711E0C3E0D1E000E006C02197010929
:10025000802FFE010E948812C230D10780E008077B
:10026000A9F70E942A100C94C714CACEAF92BF926D
:10027000CF92DF92EF92FF920F931F93CF93DF9372
:100280006C017B018B01040F151FEB015E01AE18A1
:10029000BF08C017D10759F06991D601ED91FC91C3
:1002A0000190F081E02DC6011995892B79F7C501E0
:1002B000DF91CF911F910F91FF90EF90DF90CF9042
:1002C000BF90AF900895FC01538D448D252F30E0F1
:1002D000842F90E0821B930B541710F0CF96089553
:1002E00001970895FC01918D828D981761F0A28D80
:1002F000AE0FBF2FB11D5D968C91928D9F5F9F7346
:10030000928F90E008958FEF9FEF0895FC01918DFB
:10031000828D981731F0828DE80FF11D858D90E068
:1003200008958FEF9FEF0895FC01918D228D892F05
:1003300090E0805C9F4F821B91098F7399270895ED
:100340008DE094E0F1DF21E0892B09F420E0822F99
:100350000895FC01A48DA80FB92FB11DA35ABF4F5A
:100360002C91848D90E001968F739927848FA689B4
:10037000B7892C93A089B1898C91837080648C9308
:10038000938D848D981306C00288F389E02D8081B7
:100390008F7D80830895EF92FF920F931F93CF93E9
:1003A000DF93EC0181E0888F9B8D8C8D98131AC0B0
:1003B000E889F989808185FF15C09FB7F894EE8997
:1003C000FF896083E889F9898081837080648083F4
:1003D0009FBF81E090E0DF91CF911F910F91FF903F
:1003E000EF900895F62E0B8D10E00F5F1F4F0F73E7
:1003F0001127E02E8C8D8E110BC00FB607FCFACFA3
:10040000E889F989808185FFF5CFCE01A2DFF2CF9F
:10041000EB8DEC0FFD2FF11DE35AFF4FF0829FB7DC
:10042000F8940B8FEA89FB8980818062D0CFCF93CB
:10043000DF93EC01888D8823B1F0AA89BB89E88914
:10044000F9898C9185FD03C0808186FD0CC00FB6B3
:1004500007FCF7CF8C9185FFF2CF808185FFEDCF30
:10046000CE0177DFEACFDF91CF91089580E090E071
:10047000892B21F065DF81110E94000080E090E06F
:10048000892B49F080E090E0892B29F00E94000040
:1004900081110E94000080E090E0892B49F080E00B
:1004A00090E0892B29F00E94000081110E94000039
:1004B00080E090E0892B49F080E090E0892B29F0E2
:1004C0000E94000081110C9400000895282F30E054
:1004D000F901EC51FF4F9491F901E254FE4F449120
:1004E00028583E4FF9012491222309F435C099235D
:1004F00011F191509231F8F4E92FF0E08827EC5790
:10050000FD4F8F4F0C948812B502B9029602AD02CE
:10051000B1029B02BC02C202C602CC02D002D402CB
:10052000DA02DE029B02E202E802EC028091800025
:100530008F7780938000E22FF0E0EE0FFF1FE25AEA
:10054000FE4FA591B4918FB7F894EC91611148C01A
:1005500040954E234C938FBF0895809180008F7DEE
:10056000E8CF80918000877FE4CF84B58F7784BD0A
:10057000E2CF84B58F7DFBCF8091B0008F778093E1
:10058000B000D9CF8091B0008F7DF9CF80919000DD
:100590008F7780939000CFCF809190008F7DF9CF9F
:1005A00080919000877FF5CF8091A0008F77809316
:1005B000A000C1CF8091A0008F7DF9CF8091A000D5
:1005C000877FF5CF809120018F7780932001B3CF73
:1005D000809120018F7DF9CF80912001877FF5CF19
:1005E0004E2BB8CF3FB7F894809105049091060444
:1005F000A0910704B091080426B5A89B05C02F3F21
:1006000019F00196A11DB11D3FBFBA2FA92F982F38
:100610008827BC01CD01620F711D811D911D42E033
:10062000660F771F881F991F4A95D1F708952FB736
:10063000F8946091010470910204809103049091F8
:1006400004042FBF089520910B0430910C04281747
:10065000390771F49091090480910A04981741F0C8
:10066000E0910904F0E0E054FC4F808190E00895AF
:100670008FEF9FEF08950895EF92FF920F931F93CE
:10068000CF93DF93DC015C96ED90FC905D97E114D5
:10069000F10479F481E090E013969C938E93129785
:1006A00090E080E0DF91CF911F910F91FF90EF904C
:1006B00008955196ED91FC91529750968C915097D8
:1006C000982F90950FB75E962C915E97122F12700F
:1006D00021FD6095F8942081112319F1282B2083A6
:1006E000E7012197F1F728E0462F50E0308160FFC5
:1006F0001AC0382B3083E7012197F1F7BA017595BD
:100700006795215089F7112381F0808189238083A7
:100710000FBF5C968D919C910197F1F781E090E07D
:10072000C1CF2923DCCF3923E5CF9081892BEFCFAF
:1007300020910B0430910C042817390769F480913B
:100740000A042091090490E0805C9F4F821B91096C
:1007500060E470E00C94531290E080E008952091E2
:100760000B0430910C0428173907B9F4909109044F
:1007700080910A04981789F0E0910904F0E0E054B0
:10078000FC4F80812091090430E02F5F3F4F2F7391
:1007900033272093090490E008958FEF9FEF089589
:1007A00090E080E008958A579B4FFC018081089576
:1007B000AF92BF92CF92DF92EF92FF920F931F936F
:1007C000CF93DF9300D01F921F92CDB7DEB7643670
:1007D00071054CF0FC01EA57FB4F2081F12CE12C14
:1007E000222309F476C0DA017B018C01BC01615E31
:1007F0007D4FED91FC910190F081E02DCA0119959A
:10080000680128EEC21A2DEFD20A2FEFD6012C93E1
:10081000F801E75EFD4F2EEF2083319680833196FD
:1008200090833196292F280F209520833196E082DE
:100830001696FC9245E050E030E020E0DC01169690
:10084000A417B50734F06191260F311D4F5F5F4F3C
:10085000F7CF7C01B8E0EB0EF11C800F911FFC017B
:10086000E15EFD4F20952083E1E0EE16E2E0FE061A
:10087000B4F45601C5018C199D098E159F054CF5E0
:10088000D80112968D919C91F50161915F01DC0177
:10089000ED91FC910190F081E02D1995EBCF8EE365
:1008A00092E09A83898383E08B838CE892E09D8336
:1008B0008C83D801ED91FC910190F081E02DAE0187
:1008C0004F5F5F4F67E070E0C8011995EE24EA942E
:1008D000FE2CC7010F900F900F900F900F90DF919B
:1008E000CF911F910F91FF90EF90DF90CF90BF902D
:1008F000AF9008950F931F93CF93DF9300D000D054
:1009000000D01F92CDB7DEB78C0182E392E09A83CC
:1009100089831B821C821D821E821F821886198673
:100920001A86D801ED91FC910190F081E02DAE0185
:100930004F5F5F4F6AE070E0C801199578DEF801FB
:1009400060877187828793872A960FB6F894DEBFF7
:100950000FBECDBFDF91CF911F910F910895CF9220
:10096000DF92EF92FF92DC011D921D921D921C926C
:100970001397FB0130E020E0419150E0022E02C0CD
:10098000440F551F0A94E2F7052E000C660B770BF7
:10099000CD90DD90ED90FC9013974C295D296E2948
:1009A0007F294D935D936D937C931397285F3F4F01
:1009B0002032310509F7FF90EF90DF90CF90089536
:1009C000FC014083518312821382089585EC92E0EA
:1009D000089586EE92E008954F925F926F927F9213
:1009E0008F929F92AF92BF92EF92FF920F931F93BD
:1009F000CF93DF9300D01F92CDB7DEB77C018B0180
:100A0000CE010196ACDF89819A81AB81BC814C011A
:100A10005D0124E0820E911CA11CB11CA8014D5F58
:100A20005F4FFA0124E030E02901712C612C481459
:100A300059046A047B0428F4618161932F5F3F4F5E
:100A4000F3CFF801E80FF91F1382F70153834283B4
:100A500004960F900F900F900F90DF91CF911F9100
:100A60000F91FF90EF90BF90AF909F908F907F90ED
:100A70006F905F904F90089586EF92E0089586E022
:100A800092E0089587E193E0089588E393E0089564
:100A90004F925F926F927F928F929F92AF92BF928E
:100AA000EF92FF920F931F93CF93DF9300D01F928B
:100AB000CDB7DEB77C018B01FB018191BF01F7014E
:100AC0008283CE0101964BDF89819A81AB81BC8103
:100AD0004C015D01F5E08F0E911CA11CB11CA80119
:100AE0004C5F5F4FFA0125E030E02901712C612C49
:100AF000481459046A047B0428F4618161932F5FD0
:100B00003F4FF3CFF801E80FF91F1482F701548328
:100B1000438305960F900F900F900F90DF91CF9128
:100B20001F910F91FF90EF90BF90AF909F908F908B
:100B30007F906F905F904F9008958BE493E00895BD
:100B40008CE693E008954F925F926F927F928F921E
:100B50009F92AF92BF92CF92DF92EF92FF920F934C
:100B60001F93CF93DF93CDB7DEB72C970FB6F894D2
:100B7000DEBF0FBECDBF7C018B01DB018C9190E00D
:100B8000F7019383828311962C91922B9383828316
:100B90006E5F7F4FCE010196E2DE89809A80AB8046
:100BA000BC8024013501F6E04F0E511C611C711C04
:100BB00098012B5F3F4FF90186E090E0AC0170E0B7
:100BC00060E0441555056605770520F441814193A1
:100BD0000196F4CFB4016A5F7F4FF801E80DF91D6B
:100BE0001582D70115963C932E931497600F711FB1
:100BF000CE010596B4DEBAE08B0E911C4D805E806E
:100C00006F807884C401092C000CAA0BBB0B5C011B
:100C10006D01A40CB51CC61CD71CF801E80DF91D0C
:100C2000AF01401B510B70E060E04A155B056C059D
:100C30007D0538F42191AF0142505109DA012C931E
:100C4000EFCF480C591CB801640D751DFB0131979D
:100C50001082C4010197800F911FF701978386834B
:100C6000CE0109967CDE92012C5F3F4F89849A84E5
:100C7000AB84BC84A901032E000C660B770B480DD6
:100C8000591D6A1D7B1DF801E20FF31FCF01801B68
:100C9000910BB0E0A0E084179507A607B70728F4EA
:100CA0008191DF0112978C93F1CFC901880D991DB5
:100CB000F801E80FF91FDF0111971C92215031094B
:100CC000020F131FD70119961C930E9318972181B9
:100CD000428150E070E060E0BA0155274427522B72
:100CE0002081422B2381722BF7014287538764872F
:100CF000758704962C960FB6F894DEBF0FBECDBF55
:100D0000DF91CF911F910F91FF90EF90DF90CF90E7
:100D1000BF90AF909F908F907F906F905F904F901B
:100D2000089585E893E0089586EA93E00895FC012C
:100D3000DB014C9150E070E060E0428353836483B8
:100D4000758311968C911197582B4283538364833A
:100D5000758312968C911297682B42835383648318
:100D6000758313968C911397782B428353836483F6
:100D7000758314964C91149750E070E060E04683C0
:100D800057836087718715968C911597582B4683EA
:100D900057836087718716968C911697682B4683C8
:100DA00057836087718717968C91782B468357837A
:100DB0006087718788E090E00895DC01FB0112965E
:100DC0008C911297808313968C911397818314963C
:100DD0008C911497828315968C9115978383169620
:100DE0008C911697848317968C9117978583189604
:100DF0008C911897868319968C91878388E090E070
:100E00000895EF92FF920F931F93CF93DF937C018E
:100E10008B01DC011296ED91FC91EF01099000200D
:100E2000E9F72197CE1BDF0BAE0170E060E0C8014F
:100E3000C7DDF70162817381AE01C80104960E948B
:100E40009913CE010496DF91CF911F910F91FF90DE
:100E5000EF9008954F925F926F927F928F929F9240
:100E6000AF92BF92CF92DF92EF92FF920F931F93B8
:100E7000CF93DF93EC017B018A81FB0180838B811F
:100E800081838C8182838D8183833496412C512C84
:100E9000320104E010E09F012F5F3F4FCF01029627
:100EA000DF011396A8010C5F1F4F8A809B80AC80E6
:100EB000BD80481459046A047B04C8F4AA85BB8524
:100EC000A40FB51F14974C9111962C91119712965F
:100ED0009C91129713968C914083218392838383F4
:100EE0008FEF481A580A680A780A3496D4CF4C858E
:100EF00040834D85F90140832E85FC0120838F8539
:100F00008C93F701E00FF11F412C512C3201AF01FE
:100F10009F012F5F3F4FCF010296DF0113960C5FB9
:100F20001F4F8C849D84AE84BF84481459046A0486
:100F30007B04D8F4CF01841B950BAC89BD89A80F25
:100F4000B91F3C9111962C91119712969C91129772
:100F500013968C9130832183928383838FEF481A79
:100F6000580A680A780A3496D3CF4E8940834F894D
:100F7000F9014083288DFC012083898D8C93412CBD
:100F8000512C32018E899F89A88DB98D481659063A
:100F90006A067B0678F55201AA0CBB1CEC8DFD8D10
:100FA000EA0DFB1DA081B181FD0101900020E9F750
:100FB00031976F01CA1ADB0AA60170E060E0C70131
:100FC000800F911FFDDC0C5F1F4F8C8D9D8DA80E37
:100FD000B91EF50160817181A601C701800F911FC3
:100FE0000E9499130C0D1D1DFFEF4F1A5F0A6F0A27
:100FF0007F0AC8CFC801DF91CF911F910F91FF9059
:10100000EF90DF90CF90BF90AF909F908F907F90A8
:101010006F905F904F900895EF92FF920F931F9300
:10102000CF93DF938C017B01DC0112962C911297F8
:10103000FB012193CF011396ED91FC91EF010990F3
:101040000020E9F72197CE1BDF0BAE0170E060E0D6
:10105000B7DCD80113966D917C91AE01C70105965E
:101060000E949913CE010596DF91CF911F910F91A8
:10107000FF90EF900895CF92DF92EF92FF920F933F
:101080001F93CF93DF936C01EB01DC0112968C91DF
:101090001297888313968C91139789831496ED91F8
:1010A000FC91DF010D900020E9F78D01015011093D
:1010B0000E1B1F0BA80170E060E0CE01029680DCE1
:1010C000F60164817581A801CE0106960E949913EC
:1010D000C8010696F601A681B781FD0101900020A6
:1010E000E9F731977F01EA1AFB0AA70170E060E097
:1010F0008C0F9D1F65DC065F1F4FD60116966D9104
:101100007C91A701CE01800F911F0E9499130E0DB3
:101110001F1DF601A085B185FD0101900020E9F7B2
:1011200031977F01EA1AFB0AA70170E060E0CE0167
:10113000800F911F45DC0C5F1F4FD60118966D91F3
:101140007C91A701CE01800F911F0E949913C701C6
:10115000800F911FF6016285438534852585C80F70
:10116000D91F688349833A832B830496DF91CF91FB
:101170001F910F91FF90EF90DF90CF9008952F92E5
:101180003F924F925F926F927F928F929F92AF9217
:10119000BF92CF92DF92EF92FF920F931F93CF9364
:1011A000DF93CDB7DEB72E970FB6F894DEBF0FBE34
:1011B000CDBF8C016B01DB018D909D90AD90BC90FB
:1011C000FC0182819381A481B58188159905AA05C6
:1011D000BB0570F4B401660F771F660F771F828519
:1011E00093850E94BD12D8011B969C938E931A97EB
:1011F000F80182829382A482B582C60140E050E069
:10120000BA01A4E0EA2EF12C98012A5F3F4FDC01DD
:101210001596EC91159716964C901697512C712CAB
:10122000612C3201552444245E2A1496EC911497C3
:101230004E2A1796EC917E2AD7011701E4E02E0E74
:10124000311C71010496F80182809380A480B580DE
:10125000481559056A057B05A8F4468257826086C1
:1012600071861497A284B384AA0DBB1DE4E0BE2E40
:10127000F90101900D92BA94E1F74F5F5F4F6F4F04
:101280007F4FC5CF84859585A685B785841595053F
:10129000A605B70570F4B201660F771F660F771FBA
:1012A000848995890E94BD12D80155969C938E938E
:1012B0005497F8014486558666867786C601820D66
:1012C000931D412C512C32011C019801205F3F4F8E
:1012D000DC0111966C91119712968C901297912CBB
:1012E000B12CA12C540199248824962A6C91862A29
:1012F00013966C91B62AB4E0EB0EF11CF80144850C
:101300005585668577854416550666067706C0F4CA
:10131000808A918AA28AB38ABC0162197309A4895E
:10132000B589A60FB71F64E0F90101900D926A9587
:10133000E1F7BFEF4B1A5B0A6B0A7B0A0496C8CF32
:1013400086899789A08DB18D88159905AA05BB0559
:1013500060F4B401660F771F848D958D0E94BD12D5
:10136000D8015D969C938E935C97F801868A978A44
:10137000A08EB18E412C512C32011801FAE12F0EB2
:10138000311CF80186899789A08DB18D48165906C0
:101390006A067B0608F05BC0B6016E0D7F1DCE01AC
:1013A0000196DDDA97012C5F3F4F3E872D878980BC
:1013B0009A80AB80BC80C901032E000CAA0BBB0B2A
:1013C000AC01BD01480D591D6A1D7B1D49875A8717
:1013D0006B877C87F901EC0DFD1D9F012C193D09E0
:1013E000B90190E080E029853A854B855C856217DC
:1013F00073078407950728F42191DF0112972C9336
:10140000ECCFED84FE84E80CF91CF601EE0DFF1D17
:10141000319710828D859E8501978C0D9D1DD80179
:101420005B969C938E935A97C201880F991F5C9686
:10143000ED91FC91E80FF91FD1018D919C91918361
:101440008083BFEF4B1A5B0A6B0A7B0A9ACFC701F6
:101450002E960FB6F894DEBF0FBECDBFDF91CF91B1
:101460001F910F91FF90EF90DF90CF90BF90AF90C2
:101470009F908F907F906F905F904F903F902F90B4
:1014800008952F923F924F925F926F927F928F9228
:101490009F92AF92BF92CF92DF92EF92FF920F9303
:1014A0001F93CF93DF93CDB7DEB7A6970FB6F8940F
:1014B000DEBF0FBECDBF8C01BAD84B015C019801D5
:1014C00025573B4F3E8B2D8BF90180819181A28165
:1014D000B38175016401C81AD90AEA0AFB0AD70167
:1014E000C601893F9A42A105B10510F035971082D7
:1014F000180134E8231A3BEF330AD1018D919C91F6
:10150000892B79F0F801E157FB4F80819181A2810D
:10151000B38188159905AA05BB0518F4F10111825C
:10152000108298012C573B4F3A8B298BA8014058C9
:101530005B4F5C8B4B8BC8014896988F8F8BD80183
:10154000AA57BB4FBC8FAB8FF801EC56FB4FFE8FF9
:10155000ED8F215F3F4F38A32F8F42505109588B99
:101560004F8786599B4F9A8F898F1996BAA3A9A343
:10157000A50194012C5E3F4F4F4F5F4F2BA33CA31F
:101580004DA35EA3F80184899589A689B789892B23
:101590008A2B8B2BB1F5D80112968D919C91DC0191
:1015A000ED91FC910284F385E02D19959C0197FF44
:1015B0003BC0F801EA57FB4F80818823F9F078019E
:1015C000B9E7EB1ABBEFFB0AF70180819181A28199
:1015D000B381A5019401281B390B4A0B5B0BDA017F
:1015E000C901853C9940A105B10540F0C80182D9E7
:1015F000D7018D929D92AD92BC92139790E080E0BE
:10160000B1C115D8681979098A099B09F801C488FC
:10161000D588E688F788C616D706E806F90608F0E2
:10162000BACF8EEF9FEF9EC1A989BA898D919C9107
:101630001197820F931F8D939C93F10140815181EB
:1016400047305105F9F4A98DBA8D8D919C91119770
:10165000AC014F5F5F4F4D935C93800F911FFC0176
:10166000208FAF85B8898D919C91119701978D93AB
:101670009C93892B09F086CF88E090E0F10191835B
:10168000808380CF4115510521F52F3F310581F42D
:1016900081E090E091838083CBA0DCA0EDA0FEA050
:1016A000A9A1BAA1CD92DD92ED92FC9213976ACFD7
:1016B0000E941703681979098A099B0969387341DF
:1016C0008105910508F45ECFF801EA57FB4F1082BF
:1016D000A8CF4130510581F42E3F310519F482E045
:1016E00090E0CCCF11821082EB8DFC8D8081811136
:1016F00049CFC801FFD846CF4230510591F4AF859C
:10170000B8892D933C93E98DFA8D1182108283E084
:1017100090E0D1018D939C93E989FA8931832083EC
:1017200031CF4330510571F4322F2227AF85B8896C
:101730008D919C911197280F391F2D933C9384E034
:1017400090E09CCF4430510571F460E071E0ABD67D
:101750008F3F910529F485E090E09183808312CF3B
:10176000118210820FCF4530510569F4AB89BC89D5
:101770002D933C9386E090E091838083A989BA8978
:101780002D933C93FFCE46305105A1F4322F2227F2
:10179000EB89FC8980819181280F391F3183208357
:1017A00087E090E0D1018D939C93EF85F88980814B
:1017B00091815FCF4830510509F0E4CE118210824B
:1017C00060E071E070D68F3F910509F0DBCEAB8908
:1017D000BC89ED91FC91309709F0DDC0C8018AD831
:1017E00086E292E09A8389831C821B8284EC92E0D9
:1017F0009E838D8398878F839A8789871B861C8613
:101800001D861E866801B8EECB1ABBEFDB0A780195
:10181000E6EBEE1AEBEFFE0A412C22E0522E612C91
:10182000712CD601ED91FC913097A9F184819581BD
:101830009C838B83808191819E838D838281938120
:10184000DC01ED91FC910480F581E02D19959887DC
:101850008F83D601ED91FC9182819381DC01ED9122
:10186000FC910680F781E02D19959A8789874B8630
:101870005C866D867E86D601ED91FC9160857185D2
:10188000D801ED91FC910190F081E02DAE014F5F08
:101890005F4FC8011995B2E0CB0ED11CEC14FD04CA
:1018A00009F0BFCF412C92E0592E612C712CF70129
:1018B000A081B1811097E1F112968D919C911397BF
:1018C0009C838B8314968D919C9115979E838D8319
:1018D000ED91FC9111970480F581E02DCD011995D2
:1018E00098878F83D7018D919C91DC01ED91FC91BC
:1018F0000680F781E02D19959A8789874B865C864B
:101900006D867E86D801ED91FC91C080D180F70173
:1019100080819181DC01ED91FC910280F381E02DC9
:101920001995AE014F5F5F4FBC01C801F6011995D3
:10193000F2E0EF0EF11CE214F30409F0B8CFF80165
:10194000EA57FB4F81E08083319680829182A282A8
:10195000B382AD89BE898D929D92AD92BC92139750
:101960008FEF9FEFA6960FB6F894DEBF0FBECDBFE8
:10197000DF91CF911F910F91FF90EF90DF90CF906B
:10198000BF90AF909F908F907F906F905F904F909F
:101990003F902F900895EA30F10509F09BC082E353
:1019A00092E09A8389831B821C821D821E821F8281
:1019B000188619861A860E941703F801C084D184FC
:1019C000E284F3849B01AC012C193D094E095F09A7
:1019D00069017A016F89788DCE010196A8D9C70176
:1019E000B60128EE33E040E050E070D569017A019D
:1019F0009B01AC018B819C81AD81BE818C0D9D1DB5
:101A0000AE1DBF1D8B839C83AD83BE8360E472E4F7
:101A10008FE090E039D5CF80D884E984FA84DC0166
:101A2000CB018C0D9D1DAE1DBF1D8F839887A9878F
:101A3000BA870E941703CF80D884E984FA8436E3FA
:101A4000D31A35E6E30A34ECF30A28EE33E040E03B
:101A500050E03CD529013A019B01AC0160E472E4FD
:101A60008FE090E011D5A7019601261B370B480B9C
:101A7000590BCA01B9012B813C814D815E812150F6
:101A800031094109510969017A01C418D508E608EC
:101A9000F7082601370120E03AEC4AE95BE316D566
:101AA000420E531E641E751ED8011C964D925D9207
:101AB0006D927C921F97F801608B718B828B938B58
:101AC0000E941703AD89BE896D937D938D939C937E
:101AD000139758CDE630F10551F46F89788D8D8DCF
:101AE0009E8D4DDB81E0EF8DF8A180834BCDEB30F7
:101AF000F10521F4AB8DBC8D1C9244CDEF53FE4F0C
:101B0000EE0FFF1FE00FF11F80819181009709F414
:101B100039CDDC01ED91FC910190F081E02D6F89D0
:101B2000788D19952FCD1F920F920FB60F92112419
:101B30000BB60F922F933F934F935F936F937F93C7
:101B40008F939F93AF93BF93EF93FF938DE094E0B8
:101B50000E94A901FF91EF91BF91AF919F918F9149
:101B60007F916F915F914F913F912F910F900BBE9D
:101B70000F900FBE0F901F9018951F920F920FB6E7
:101B80000F9211240BB60F922F938F939F93EF9385
:101B9000FF93E0911D04F0911E048081E0912304E5
:101BA000F091240482FD1DC09081809126048F5FF6
:101BB0008F7320912704821741F0E0912604F0E012
:101BC000E35FFB4F958F80932604FF91EF919F91E8
:101BD0008F912F910F900BBE0F900FBE0F901F9003
:101BE00018958081F2CF1F920F920FB60F92112499
:101BF0002F933F938F939F93AF93BF938091010453
:101C000090910204A0910304B09104043091000467
:101C100023E0230F2D3758F50196A11DB11D209308
:101C200000048093010490930204A0930304B093F2
:101C300004048091050490910604A0910704B091DA
:101C400008040196A11DB11D80930504909306041C
:101C5000A0930704B0930804BF91AF919F918F9117
:101C60003F912F910F900FBE0F901F90189526E86F
:101C7000230F0296A11DB11DD2CF1F920F920FB656
:101C80000F9211240BB60F922F933F934F935F93B4
:101C90006F937F938F939F93AF93BF93EF93FF9334
:101CA000E0910B04F0910C04309749F0A685B785BC
:101CB0008585968D91FF16C09C918923B1F4FF9183
:101CC000EF91BF91AF919F918F917F916F915F91B4
:101CD0004F913F912F910F900BBE0F900FBE0F9021
:101CE0001F9018959C91892351F7A389B4899C91E1
:101CF0008589809589238C93868997890197F1F747
:101D0000608D718DA685B785558538E020E0CB01C3
:101D10000197F1F7822F90E095958795282F4C91A8
:101D2000452309F02068315091F7868D81FD20957B
:101D300080910A0490E001968F73992730910904ED
:101D4000381799F0A0910A04B0E0A054BC4F2C932E
:101D500080930A04828D938D0197F1F7A389B4894A
:101D60008C919589892B8C93AACF868D8160868FE3
:101D7000F1CF0F931F93CF93DF9310921004109223
:101D80000F0488EE93E0A0E0B0E0809311049093FC
:101D90001204A0931304B09314042AE432E03093A5
:101DA0000E0420930D0425EC30E030931A042093A8
:101DB000190424EC30E030931C0420931B0420EC25
:101DC00030E030931E0420931D0421EC30E030936A
:101DD000200420931F0422EC30E03093220420934F
:101DE000210426EC30E03093240420932304109245
:101DF00026041092270410922804109229041092AD
:101E00006D0910926C0980936E0990936F09A093ED
:101E10007009B093710982E792E090936B09809307
:101E20006A09109281091092800910928309109218
:101E300082091092850910928409109287091092E4
:101E40008609609188096E7F6D7F60938809669529
:101E5000617081E068278FE00E9466024DEC51E0DE
:101E6000FA01649187E891E0FC012491222399F022
:101E700030E0220F331FF901EC5BFE4FA591B491C6
:101E8000F901E25AFE4F259134912FB7F8943C9115
:101E9000632B6C932FBFFA01449140937A09FC01A4
:101EA0008491E82FF0E0EE0FFF1FE25AFE4F85917C
:101EB000949190937C0980937B090CEC11E0F801DC
:101EC0002491C6E8D1E0FE0184918823C9F090E016
:101ED000880F991FFC01EC5BFE4FA591B491FC01AA
:101EE000E25AFE4F459154913FB7F8949C91822F4E
:101EF000809598239C93FA019081892380833FBF2A
:101F00008091880981FD04C061E08EE00E94660234
:101F10008EE080937609F801049100937709FE0121
:101F2000C491EC2FF0E0EE0FFF1FE65DFE4F8591B0
:101F30009491909379098093780988E692E0909340
:101F4000B9048093B8048DE094E09093BB0480932F
:101F5000BA0480E091EEA0E0B0E08093BC049093DE
:101F6000BD04A093BE04B093BF0410923E098CE55B
:101F700092E090934D0980934C091092620910925F
:101F80006309109264091092650910926909109210
:101F90006809E0EDF8E082E099E0119211928E1765
:101FA0009F07D9F7E2E0F9E01192119289E0E4335A
:101FB000F807D1F7E0EDF4E080ED96E011928E178E
:101FC0009F07E1F7E0EDF6E0119288E0E03DF807C9
:101FD000D9F710924E0910924F09109250091092A1
:101FE00051091092570910925609109258091092EF
:101FF000590910925A0910925B09109261091092C6
:1020000060091092CC041092CD041092CE0410926C
:10201000CF0484E892E09093B5048093B40484ECF8
:1020200092E09093B7048093B60484EB93E090938E
:10203000AB048093AA0484EB94E09093AD04809366
:10204000AC041092B3041092B204DF91CF911F91AF
:102050000F910895789484B5826084BD84B58160C1
:1020600084BD85B5826085BD85B5816085BD809163
:102070006E00816080936E001092810080918100DB
:1020800082608093810080918100816080938100D3
:10209000809180008160809380008091B100846095
:1020A0008093B1008091B00081608093B0008091F6
:1020B0009100826080939100809191008160809373
:1020C0009100809190008160809390008091A100A8
:1020D00082608093A1008091A10081608093A10023
:1020E0008091A00081608093A00080912101826096
:1020F0008093210180912101816080932101809151
:10210000200181608093200180917A008460809317
:102110007A0080917A00826080937A0080917A00C0
:10212000816080937A0080917A00806880937A0041
:102130001092C100109285091092840910928309AF
:102140001092820910928109109280098DE991E024
:1021500090938709809386098091760996EF980F6E
:10216000943048F02EEC280F243028F022EC280F71
:10217000283008F061C02DEB30E0309381092093C6
:1021800080092BE931E030938309209382092CE206
:1021900031E03093850920938409943050F02EEC7F
:1021A000280F243030F022EC280FF0E0E0E0283057
:1021B00010F4E8E6F0E02081943028F032EC380F9B
:1021C000383008F422C131E0232B943048F09EECE3
:1021D000980F943028F08E53F0E0E0E0883010F44F
:1021E000E8E6F0E020832091760936EF320F3430B4
:1021F00008F40DC18EEC820F843008F408C182EC23
:10220000820F883008F406C190E080E090937E0948
:1022100080937D09343008F000C12650330B81E0F3
:1022200001C0880F2A95EAF780937F09809186097B
:10223000909187090197F1F7809184099091850920
:10224000892B49F1E0910B04F0910C0429E0EA3666
:10225000F20709F1309739F0A389B4899C918589F7
:10226000809589238C93809188098E7F809388093B
:1022700010920A04109209048AE699E090930C04E3
:1022800080930B04E0917D09F0917E09808190910B
:102290007F09892B808380E895E2A0E0B0E08093FD
:1022A000BC049093BD04A093BE04B093BF04E0911E
:1022B000BA04F091BB04A089B18982E08C93A48513
:1022C000B5851C92A685B7858FEC8C93108EA4895A
:1022D000B58986E08C93A289B3898C9180618C93B7
:1022E000A289B3898C9188608C93A289B3898C91DF
:1022F00080688C930288F389E02D80818F7D8083B4
:10230000109235091092340910923709109236094B
:1023100010923B0910923A0910923909109238092B
:10232000E0EDF8E090E080E021913191232B09F07D
:1023300089C0FC01EE0FFF1FE053F74F2AEA34E09B
:102340003183208383589F4F9093AF048093AE04D2
:1023500088EB94E09093B1048093B00460E088E24D
:102360000E94660242E050E06CEB73E08AE699E07E
:102370000E9436018AE699E00E9498031816190611
:102380000CF040C08AE699E00E94AF039093B70436
:102390008093B6040E94F2026B017C0184E6882ED1
:1023A000912CA12CB12C0E94F2026C197D098E098E
:1023B0009F09683E734081059105A8F381E0881A62
:1023C0009108A108B108A8EECA0EA3E0DA1EE11C2C
:1023D000F11C81149104A104B10429F78091B00487
:1023E0009091B1046091AE047091AF04DC01ED9165
:1023F000FC910190F081E02D44EB54E0199588EBBD
:1024000094E03FD80E943602ADCF34E0DDCE8BE6BB
:1024100090E0FCCE8DE690E0F9CE88E0223309F41E
:1024200003CF84E0233309F4FFCE82E0243309F4A0
:10243000FBCE82EC820F883018F42E53330BEFCE94
:1024400081E0F2CE01968931910509F06DCF86CFFA
:1024500082E792E090936B0980936A0980910B0464
:1024600090910C048A56994071F4E0917D09F091A5
:102470007E09908180917F098095892380831092C5
:102480000C0410920B040895DB018F939F9348D0A6
:10249000BF91AF91A29F800D911DA39F900DB29F00
:1024A000900D1124089597FB072E16F4009406D082
:1024B00077FD08D03FD007FC05D03EF4909581957C
:1024C0009F4F0895709561957F4F0895A1E21A2E50
:1024D000AA1BBB1BFD010DC0AA1FBB1FEE1FFF1FC8
:1024E000A217B307E407F50720F0A21BB30BE40B18
:1024F000F50B661F771F881F991F1A9469F760955F
:102500007095809590959B01AC01BD01CF01089518
:10251000EE0FFF1F881F8BBF0790F691E02D1994D7
:102520001DD0A59F900DB49F900DA49F800D911D6F
:1025300011240895AA1BBB1B51E107C0AA1FBB1F92
:10254000A617B70710F0A61BB70B881F991F5A953F
:10255000A9F780959095BC01CD010895A29FB00187
:10256000B39FC001A39F700D811D1124911DB29FC7
:10257000700D811D1124911D08954F925F926F92ED
:102580007F928F929F92AF92BF92CF92DF92EF9203
:10259000FF920F931F93CF93DF938C01009791F4D9
:1025A000CB01DF91CF911F910F91FF90EF90DF90C2
:1025B000CF90BF90AF909F908F907F906F905F90E3
:1025C0004F90C0C0FC01E60FF71F9C01225031095B
:1025D000E217F30708F4AAC0D901CD91DC91119755
:1025E000C617D70718F1C530D10570F0CE01049792
:1025F0008617970748F0C61BD70B2297C193D19334
:102600006D937C93CF013AD1C801DF91CF911F9197
:102610000F91FF90EF90DF90CF90BF90AF909F9081
:102620008F907F906F905F904F9008955B01AC1AF0
:10263000BD0A4C018C0E9D1EA0918B09B0918C0996
:10264000512C412CF12CE12C109731F58091890906
:1026500090918A098815990509F05CC046165706BD
:1026600008F058C08091000290910102009741F457
:102670008DB79EB74091040250910502841B950BC3
:10268000E817F90708F052C0F0938A09E093890926
:10269000F90171836083B8CF8D919C911197129647
:1026A0006C90129713967C901397A815B90559F55D
:1026B0006C0142E0C40ED11CCA14DB0420F1AC0151
:1026C0004A195B09DA011296159780F062827382CB
:1026D00051834083D9016D937C93E114F10471F02F
:1026E000D7011396FC93EE9312978ECF22968C0F00
:1026F0009D1FF90191838083F301EFCFF0938C0943
:10270000E0938B0981CF4816590608F42C017D010E
:10271000D3019ACFCB0116D07C01009739F0AE01DE
:10272000B80107D0C801AAD087016ECF10E000E041
:102730006BCFFB01DC0102C001900D924150504073
:10274000D8F708950F931F93CF93DF9382309105AD
:1027500010F482E090E0E0918B09F0918C0930E078
:1027600020E0B0E0A0E0309799F42115310509F49C
:102770004AC0281B390B24303105D8F58A819B814A
:102780006115710589F1FB0193838283FE0111C0FC
:10279000408151810281138148175907E0F04817A1
:1027A000590799F4109761F012960C9312971396AB
:1027B0001C933296CF01DF91CF911F910F91089515
:1027C00000938B0910938C09F4CF2115310551F03A
:1027D0004217530738F0A901DB019A01BD01DF015F
:1027E000F801C1CFEF01F9CF90938C0980938B0949
:1027F000CDCFFE01E20FF31F819391932250310957
:1028000039832883D7CF2091890930918A09232BD6
:1028100041F4209102023091030230938A092093FF
:10282000890920910002309101022115310541F4FE
:102830002DB73EB74091040250910502241B350B81
:10284000E0918909F0918A09E217F307A0F42E1BA1
:102850003F0B2817390778F0AC014E5F5F4F241704
:10286000350748F04E0F5F1F50938A09409389093E
:10287000819391939FCFF0E0E0E09CCFCF93DF93E3
:102880000097E9F0FC01329713821282A0918B0924
:10289000B0918C09ED0130E020E01097A1F4208187
:1028A0003181820F931F2091890930918A0928175D
:1028B000390709F061C0F0938A09E0938909DF9133
:1028C000CF910895EA01CE17DF07E8F54A815B81D1
:1028D0009E0141155105B1F7E901FB83EA83499156
:1028E0005991C40FD51FEC17FD0761F480819181C8
:1028F0000296840F951FE9019983888382819381D1
:102900009B838A83F0E0E0E012968D919C9113976F
:102910000097B9F52D913C911197CD010296820F48
:10292000931F2091890930918A092817390739F6B0
:10293000309751F510928C0910928B09B0938A0947
:10294000A0938909BCCFD383C28340815181840F76
:10295000951FC817D90761F44E5F5F4F8881998131
:10296000480F591F518340838A819B8193838283BF
:102970002115310509F0B0CFF0938C09E0938B0954
:102980009ECFFD01DC01C0CF13821282D7CF11E0B0
:10299000C3E0D1E000E005C0802FFE01B9DD219643
:1029A000011DC430D10780E00807B1F7F894FFCFCC
:1029B00000008D098000726F7373657269616C5FCE
:1029C0006D7367732F5265717565737450617261B1
:1029D0006D00000000003B08A305A0059D05000058
:1029E0000000DD06970694069106000000000C0822
:1029F00048054505420500000000CB013601630192
:102A00001702940172018601000000002A07BF0826
:102A10003F053C0500000000D803410AD303000035
:102A200000003C033601D0033B039803AF032303AC
:102A3000000000000107EC04E904E6044D6573732F
:102A40006167652066726F6D2064657669636520D5
:102A500064726F707065643A206D65737361676549
:102A6000206C6172676572207468616E20627566A1
:102A70006665722E00393932636538613136383710
:102A8000636563386338626438383365633733634A
:102A90006134316431007374645F6D7367732F53F5
:102AA0007472696E67003966306539386264613600
:102AB00035393831393836646466353361666137A3
:102AC00061343065343900313161626437333163E8
:102AD00032353933333236316364363138336264F8
:102AE0003132643632393500726F737365726961E1
:102AF0006C5F6D7367732F4C6F67003061643531A5
:102B00006638386663343438393266386331303683
:102B1000383430373736343630303500726F7373AF
:102B2000657269616C5F6D7367732F546F70696351
:102B3000496E666F00636437313636633734633508
:102B400035326333313166626363326665356137CE
:102B50006263323839007374645F6D7367732F5426
:102B6000696D6500636861747465720041540000AA
:00000001FF
