:10000000F6C0000025C1000023C1000021C100008E
:100010001FC100001DC100001BC1000019C100006C
:1000200017C1000015C1000013C1000011C100007C
:100030000FC100000DC100000BC1000009C100008C
:1000400007C1000005C1000003C1000001C100009C
:10005000FFC00000FDC00000FBC000000C946F0F4B
:10006000F7C00000F5C00000F3C00000F1C00000C0
:10007000EFC00000EDC00000EBC00000E9C00000D0
:10008000E7C00000E5C00000E3C00000E1C00000E0
:100090000C94390F0C940F0FDBC00000D9C0000086
:1000A000D7C00000D5C00000D3C00000D1C0000000
:1000B000CFC00000CDC00000CBC00000C9C0000010
:1000C000C7C00000C5C00000C3C00000C1C0000020
:1000D000BFC00000BDC000000C94D90E0C94AF0E40
:1000E000B7C0000000002100240027002A002D00D6
:1000F0003000330001010000040107010A01000083
:100100002200250028002B002E00310034000201BF
:100110000000050108010B01050505050705080894
:100120000808020202020A0A080804040404010181
:100130000101010101010303030303030303040796
:1001400007070C0C0C0C0C0C0C0C0202020206062D
:100150000606060606060B0B0B0B0B0B0B0B010220
:1001600010202008081020401020408002010201C9
:100170000804020101020408102040808040201081
:1001800008040201800402018040201008040201DA
:100190000804020101020408102040800102040842
:1001A0001020408000000A0B02090C0D0E08070306
:1001B000040100000000000000000000000000003A
:1001C000000000000000000000000000000000002F
:1001D00012111000000000000000000000000000EC
:1001E00000000000000000000000B90F46131124B9
:1001F0001FBECFEFD1E2DEBFCDBF00E00CBF2AE0D3
:10020000A6E2B4E001C01D92A333B207E1F714E007
:10021000A0E0B2E0EAECFBE200E00BBF02C0079016
:100220000D92A632B107D9F710E0C6EFD0E000E09A
:1002300006C021970109802FFE010E94A713C53F28
:10024000D10780E00807A9F70E94F1100C94D4159B
:10025000D7CECF92DF92EF92FF92CF93DF93EC0154
:100260006A017B01E889F98982E08083C11481EE0B
:10027000D806E104F104A1F060E079E08DE390E0BC
:10028000A70196010E9485132150310941095109A6
:100290005695479537952795211580E1380798F0B1
:1002A000E889F989108260E874E88EE190E0A7019E
:1002B00096010E9485132150310941095109569533
:1002C000479537952795EC85FD853083EE85FF852D
:1002D0002083188EEC89FD8986E08083EA89FB897A
:1002E000808180618083EA89FB8980818860808346
:1002F000EA89FB89808180688083EA89FB89808123
:100300008F7D8083DF91CF91FF90EF90DF90CF9032
:100310000895E9E6F5E08681978164817581DC01C5
:10032000ED91FC910190F081E02D43E755E01994A7
:10033000382FECECF1E08491E6E8F1E02491E0E480
:10034000F1E09491992309F435C0882311F181508B
:100350008231F8F4E82FF0E08827EE54FE4F8F4FFB
:100360000C94A713E301E701C401DB01DF01C9011C
:10037000EA01F001F401FA01FE01020208020C0296
:10038000C901100216021A02809180008F778093B3
:100390008000E92FF0E0EE0FFF1FE250FF4FA59124
:1003A000B4918FB7F894EC91311148C020952E2369
:1003B0002C938FBF0895809180008F7DE8CF80912E
:1003C0008000877FE4CF84B58F7784BDE2CF84B58A
:1003D0008F7DFBCF8091B0008F778093B000D9CF15
:1003E0008091B0008F7DF9CF809190008F778093BE
:1003F0009000CFCF809190008F7DF9CF80919000B9
:10040000877FF5CF8091A0008F778093A000C1CF28
:100410008091A0008F7DF9CF8091A000877FF5CFDC
:10042000809120018F7780932001B3CF80912001AC
:100430008F7DF9CF80912001877FF5CF2E2BB8CF0C
:100440000895AF92BF92CF92DF92EF92FF920F93F7
:100450001F93CF93DF936C017B018B01040F151F5A
:10046000EB015E01AE18BF08C017D10759F06991C2
:10047000D601ED91FC910190F081E02DC601199516
:10048000892B79F7C501DF91CF911F910F91FF90D3
:10049000EF90DF90CF90BF90AF900895FC01538D07
:1004A000448D252F30E0842F90E0821B930B54174E
:1004B00010F0CF96089501970895FC01918D828DDB
:1004C000981761F0A28DAE0FBF2FB11D5D968C9174
:1004D000928D9F5F9F73928F90E008958FEF9FEFB3
:1004E0000895FC01918D828D981731F0828DE80F6F
:1004F000F11D858D90E008958FEF9FEF0895FC0129
:10050000918D228D892F90E0805C9F4F821B9109F5
:100510008F73992708958FE294E0F1DF21E0892B12
:1005200009F420E0822F08958CEC94E0E8DF21E0CC
:10053000892B09F420E0822F0895FC01A48DA80FD7
:10054000B92FB11DA35ABF4F2C91848D90E0019615
:100550008F739927848FA689B7892C93A089B18935
:100560008C91837080648C93938D848D981306C0D6
:100570000288F389E02D80818F7D80830895EF923A
:10058000FF920F931F93CF93DF93EC0181E0888F4D
:100590009B8D8C8D98131AC0E889F989808185FF1D
:1005A00015C09FB7F894EE89FF896083E889F989BF
:1005B00080818370806480839FBF81E090E0DF91C1
:1005C000CF911F910F91FF90EF900895F62E0B8D14
:1005D00010E00F5F1F4F0F731127E02E8C8D8E11CF
:1005E0000BC00FB607FCFACFE889F989808185FF37
:1005F000F5CFCE01A2DFF2CFEB8DEC0FFD2FF11D79
:10060000E35AFF4FF0829FB7F8940B8FEA89FB897A
:1006100080818062D0CFCF93DF93EC01888D8823D7
:10062000B1F0AA89BB89E889F9898C9185FD03C05D
:10063000808186FD0CC00FB607FCF7CF8C9185FF3B
:10064000F2CF808185FFEDCFCE0177DFEACFDF915A
:10065000CF91089580E090E0892B49F080E090E010
:10066000892B29F00E94000081110E94000080E087
:1006700090E0892B21F058DF81110E94000080E07A
:1006800090E0892B49F080E090E0892B29F00E94CE
:10069000000081110E94000080E090E0892B21F091
:1006A0003ADF81110C94000008953FB7F8948091CF
:1006B0002B0490912C04A0912D04B0912E0426B50A
:1006C000A89B05C02F3F19F00196A11DB11D3FBF8A
:1006D000BA2FA92F982F8827BC01CD01620F711D59
:1006E000811D911D42E0660F771F881F991F4A9553
:1006F000D1F708958F929F92AF92BF92CF92DF92DF
:10070000EF92FF924B015C01D0DF6B017C01CDDFEA
:100710006C197D098E099F09683E7340810591051A
:10072000B0F321E0821A9108A108B10888EEC80E42
:1007300083E0D81EE11CF11C81149104A104B104D2
:1007400031F7FF90EF90DF90CF90BF90AF909F90E8
:100750008F9008952FB7F894609127047091280422
:100760008091290490912A042FBF08950F931F931D
:10077000F1DF6093370470933804809339049093C9
:100780003A048FE294E099DE97FF1CC0E3DF00910A
:100790003704109138042091390430913A04601BD9
:1007A000710B820B930B0091330410913404209150
:1007B000350430913604601771078207930708F3F8
:1007C0008FEF9FEF1F910F9108958A579B4FFC0168
:1007D00080810895AF92BF92CF92DF92EF92FF9205
:1007E0000F931F93CF93DF9300D01F921F92CDB72B
:1007F000DEB7643671054CF0FC01EA57FB4F2081EF
:10080000F12CE12C222309F476C0DA017B018C0162
:10081000BC01615E7D4FED91FC910190F081E02D76
:10082000CA011995680128EEC21A2DEFD20A2FEFDE
:10083000D6012C93F801E75EFD4F2EEF2083319611
:100840008083319690833196292F280F209520831D
:100850003196E0821696FC9245E050E030E020E0D0
:10086000DC011696A417B50734F06191260F311DEF
:100870004F5F5F4FF7CF7C01B8E0EB0EF11C800FAC
:10088000911FFC01E15EFD4F20952083E1E0EE1613
:10089000E2E0FE06B4F45601C5018C199D098E15DF
:1008A0009F054CF5D80112968D919C91F5016191AF
:1008B0005F01DC01ED91FC910190F081E02D199533
:1008C000EBCF8EE492E09A83898383E08B838AE87E
:1008D00092E09D838C83D801ED91FC910190F08191
:1008E000E02DAE014F5F5F4F67E070E0C8011995E2
:1008F000EE24EA94FE2CC7010F900F900F900F90FA
:100900000F90DF91CF911F910F91FF90EF90DF90AB
:10091000CF90BF90AF9008950F931F93CF93DF9325
:1009200000D000D000D01F92CDB7DEB78C0182E49A
:1009300092E09A8389831B821C821D821E821F8201
:10094000188619861A86D801ED91FC910190F081E4
:10095000E02DAE014F5F5F4F6AE070E0C80119956E
:10096000F9DEF80160877187828793872A960FB630
:10097000F894DEBF0FBECDBFDF91CF911F910F91D5
:100980000895CF92DF92EF92FF92DC011D921D92AB
:100990001D921C921397FB0130E020E0419150E042
:1009A000022E02C0440F551F0A94E2F7052E000CD8
:1009B000660B770BCD90DD90ED90FC9013974C2952
:1009C0005D296E297F294D935D936D937C931397D9
:1009D000285F3F4F2032310509F7FF90EF90DF90FD
:1009E000CF900895FC0140835183128213820895B1
:1009F00083EC92E0089584EE92E008954F925F9226
:100A00006F927F928F929F92AF92BF92EF92FF92DE
:100A10000F931F93CF93DF9300D01F92CDB7DEB714
:100A20007C018B01CE010196ACDF89819A81AB817B
:100A3000BC814C015D0124E0820E911CA11CB11C03
:100A4000A8014D5F5F4FFA0124E030E02901712CCD
:100A5000612C481459046A047B0428F46181619371
:100A60002F5F3F4FF3CFF801E80FF91F1382F70113
:100A70005383428304960F900F900F900F90DF9155
:100A8000CF911F910F91FF90EF90BF90AF909F90EB
:100A90008F907F906F905F904F90089584EF92E0D9
:100AA000089586E192E0089585E193E0089586E354
:100AB00093E008954F925F926F927F928F929F92F0
:100AC000AF92BF92EF92FF920F931F93CF93DF935A
:100AD00000D01F92CDB7DEB77C018B01FB01819165
:100AE000BF01F7018283CE0101964BDF89819A8194
:100AF000AB81BC814C015D01F5E08F0E911CA11C06
:100B0000B11CA8014C5F5F4FFA0125E030E02901DC
:100B1000712C612C481459046A047B0428F4618107
:100B200061932F5F3F4FF3CFF801E80FF91F148255
:100B3000F7015483438305960F900F900F900F9009
:100B4000DF91CF911F910F91FF90EF90BF90AF90E9
:100B50009F908F907F906F905F904F90089589E461
:100B600093E008958AE693E008954F925F926F9222
:100B70007F928F929F92AF92BF92CF92DF92EF922D
:100B8000FF920F931F93CF93DF93CDB7DEB72C97D0
:100B90000FB6F894DEBF0FBECDBF7C018B01DB0129
:100BA0008C9190E0F7019383828311962C91922B84
:100BB000938382836E5F7F4FCE010196E2DE898050
:100BC0009A80AB80BC8024013501F6E04F0E511CA9
:100BD000611C711C98012B5F3F4FF90186E090E08A
:100BE000AC0170E060E0441555056605770520F41A
:100BF000418141930196F4CFB4016A5F7F4FF801C0
:100C0000E80DF91D1582D70115963C932E93149784
:100C1000600F711FCE010596B4DEBAE08B0E911CF9
:100C20004D805E806F807884C401092C000CAA0B73
:100C3000BB0B5C016D01A40CB51CC61CD71CF801D4
:100C4000E80DF91DAF01401B510B70E060E04A1543
:100C50005B056C057D0538F42191AF0142505109C7
:100C6000DA012C93EFCF480C591CB801640D751DA7
:100C7000FB0131971082C4010197800F911FF7018A
:100C800097838683CE0109967CDE92012C5F3F4FCD
:100C900089849A84AB84BC84A901032E000C660B62
:100CA000770B480D591D6A1D7B1DF801E20FF31FDC
:100CB000CF01801B910BB0E0A0E084179507A60739
:100CC000B70728F48191DF0112978C93F1CFC90106
:100CD000880D991DF801E80FF91FDF0111971C928B
:100CE00021503109020F131FD70119961C930E933F
:100CF00018972181428150E070E060E0BA015527E9
:100D00004427522B2081422B2381722BF7014287EB
:100D100053876487758704962C960FB6F894DEBFC8
:100D20000FBECDBFDF91CF911F910F91FF90EF903C
:100D3000DF90CF90BF90AF909F908F907F906F90FB
:100D40005F904F90089583E893E0089584EA93E0DC
:100D50000895FC01DB014C9150E070E060E04283BB
:100D600053836483758311968C911197582B42831A
:100D700053836483758312968C911297682B4283F8
:100D800053836483758313968C911397782B4283D6
:100D900053836483758314964C91149750E070E0EC
:100DA00060E0468357836087718715968C9115970D
:100DB000582B468357836087718716968C911697B8
:100DC000682B468357836087718717968C91782BA1
:100DD000468357836087718788E090E00895DC013F
:100DE000FB0112968C911297808313968C91139726
:100DF000818314968C911497828315968C91159704
:100E0000838316968C911697848317968C911797E7
:100E1000858318968C911897868319968C91878371
:100E200088E090E0089542E050E062EB73E009CB87
:100E3000CF93DF93E9E2FAE04481558160817181CB
:100E40008CEC94E0FEDAEC018CEC94E0ECDF8C0F9F
:100E50009D1FDF91CF910895CF93DF9360E28FE2E2
:100E600094E08DDBEC018FE294E0DDDF8C0F9D1FC1
:100E7000DF91CF9108950F931F93CF93DF93EC01F0
:100E8000FB0101900020E9F73197AF01461B570B9A
:100E9000D8DA8C01CE01C7DF800F911FDF91CF918F
:100EA0001F910F910895CF93DF93EC018091290A50
:100EB00090912A0A0097E9F068817981611571059E
:100EC000B1F040912B0A50912C0A2C813D814217A0
:100ED000530768F00E94CD158C819D8190932E0A56
:100EE00080932D0A1D821C82DF91CF9108950E946C
:100EF0005F148881998190932A0A8093290A8A81B4
:100F00009B8190932C0A80932B0A8C819D819093D6
:100F10002E0A80932D0A198218821B821A82E2CF30
:100F2000FC0180819181009711F00C945F14089569
:100F30000F931F93CF93DF93EC01888199810097E2
:100F400059F02A813B812617370730F081E0DF9185
:100F5000CF911F910F9108958B016F5F7F4F0E947A
:100F6000E814009759F0998388831B830A832C81A6
:100F70003D81232B59F7FC011082E8CF80E0E7CFB9
:100F8000EF92FF920F931F93CF93DF931F921F92C5
:100F9000CDB7DEB78C01FC01118210821382128260
:100FA0001582148270E060E0C3DFF8012081318196
:100FB000811130C02115310519F0C9010E945F145B
:100FC000F801118210821582148213821282CEDB04
:100FD00097FD28C08A30910529F189831A82F8018A
:100FE000E480F580FFEFEF1AFF0AB701C801A0DF28
:100FF000882369F3F8012081318184819581BE01C4
:101000006F5F7F4F820F931F0E94CD15F801F5820D
:10101000E482DDCF1582148264EB73E0C9010E9483
:10102000CD15D5CFC8010F900F90DF91CF911F91B3
:101030000F91FF90EF900895EF92FF920F931F93FF
:10104000CF93DF937C018B01DC011296ED91FC9133
:10105000EF0109900020E9F72197CE1BDF0BAE01CD
:1010600070E060E0C801BEDCF70162817381AE010F
:10107000C80104960E94C415CE010496DF91CF9159
:101080001F910F91FF90EF9008952F923F924F92F2
:101090005F926F927F928F929F92AF92BF92CF9208
:1010A000DF92EF92FF920F931F93CF93DF93CDB711
:1010B000DEB72E970FB6F894DEBF0FBECDBF8C0102
:1010C0006B01DB018D909D90AD90BC90FC01828105
:1010D0009381A481B58188159905AA05BB0570F493
:1010E000B401660F771F660F771F828593850E9474
:1010F000E814D8011B969C938E931A97F80182826C
:101100009382A482B582C60140E050E0BA01A4E017
:10111000EA2EF12C98012A5F3F4FDC011596EC91E5
:10112000159716964C901697512C712C612C320104
:10113000552444245E2A1496EC9114974E2A17964F
:10114000EC917E2AD7011701E4E02E0E311C7101CB
:101150000496F80182809380A480B58048155905D3
:101160006A057B05A8F446825782608671861497CB
:10117000A284B384AA0DBB1DE4E0BE2EF901019048
:101180000D92BA94E1F74F5F5F4F6F4F7F4FC5CF1E
:1011900084859585A685B78584159505A605B7052B
:1011A00070F4B201660F771F660F771F84899589E7
:1011B0000E94E814D80155969C938E935497F80199
:1011C0004486558666867786C601820D931D412C1E
:1011D000512C32011C019801205F3F4FDC01119618
:1011E0006C91119712968C901297912CB12CA12C86
:1011F000540199248824962A6C91862A13966C911E
:10120000B62AB4E0EB0EF11CF801448555856685DD
:1012100077854416550666067706C0F4808A918A5B
:10122000A28AB38ABC0162197309A489B589A60F81
:10123000B71F64E0F90101900D926A95E1F7BFEFE5
:101240004B1A5B0A6B0A7B0A0496C8CF868997897A
:10125000A08DB18D88159905AA05BB0560F4B40170
:10126000660F771F848D958D0E94E814D8015D96D6
:101270009C938E935C97F801868A978AA08EB18E94
:10128000412C512C32011801FAE12F0E311CF801CA
:1012900086899789A08DB18D481659066A067B0606
:1012A00008F05BC0B6016E0D7F1DCE01019669DBB3
:1012B00097012C5F3F4F3E872D8789809A80AB80B6
:1012C000BC80C901032E000CAA0BBB0BAC01BD01F5
:1012D000480D591D6A1D7B1D49875A876B877C877E
:1012E000F901EC0DFD1D9F012C193D09B90190E09C
:1012F00080E029853A854B855C85621773078407F2
:10130000950728F42191DF0112972C93ECCFED84FF
:10131000FE84E80CF91CF601EE0DFF1D31971082DA
:101320008D859E8501978C0D9D1DD8015B969C93A4
:101330008E935A97C201880F991F5C96ED91FC918C
:10134000E80FF91FD1018D919C9191838083BFEFAC
:101350004B1A5B0A6B0A7B0A9ACFC7012E960FB60F
:10136000F894DEBF0FBECDBFDF91CF911F910F91DB
:10137000FF90EF90DF90CF90BF90AF909F908F90B5
:101380007F906F905F904F903F902F9008952F9295
:101390003F924F925F926F927F928F929F92AF9205
:1013A000BF92CF92DF92EF92FF920F931F93CF9352
:1013B000DF93CDB7DEB7A6970FB6F894DEBF0FBEAA
:1013C000CDBF8C01C7D94B015C01980125573B4F1C
:1013D0003E8B2D8BF90180819181A281B3817501B2
:1013E0006401C81AD90AEA0AFB0AD701C601893F73
:1013F0009A42A105B10510F035971082180134E822
:10140000231A3BEF330AD1018D919C91892B79F0FE
:10141000F801E157FB4F80819181A281B38188154A
:101420009905AA05BB0518F4F101118210829801F3
:101430002C573B4F3A8B298BA80140585B4F5C8B54
:101440004B8BC8014896988F8F8BD801AA57BB4FFA
:10145000BC8FAB8FF801EC56FB4FFE8FED8F215FF9
:101460003F4F38A32F8F42505109588B4F878659D1
:101470009B4F9A8F898F1996BAA3A9A3A5019401AE
:101480002C5E3F4F4F4F5F4F2BA33CA34DA35EA35A
:10149000F80184899589A689B789892B8A2B8B2B9A
:1014A000B1F5D80112968D919C91DC01ED91FC91E2
:1014B0000284F385E02D19959C0197FF3BC0F8014C
:1014C000EA57FB4F80818823F9F07801B9E7EB1ADE
:1014D000BBEFFB0AF70180819181A281B381A50155
:1014E0009401281B390B4A0B5B0BDA01C901853CBF
:1014F0009940A105B10540F0C8010EDAD7018D92DF
:101500009D92AD92BC92139790E080E0B2C122D937
:10151000681979098A099B09F801C488D588E68881
:10152000F788C616D706E806F90608F0BACF8EEF98
:101530009FEF9FC1A989BA898D919C911197820FC4
:10154000931F8D939C93F101408151814730510548
:10155000F9F4A98DBA8D8D919C911197AC014F5FD3
:101560005F4F4D935C93800F911FFC01208FAF85DF
:10157000B8898D919C91119701978D939C93892B9C
:1015800009F086CF88E090E0F1019183808380CFDD
:101590004115510519F52F3F310581F481E090E0A7
:1015A00091838083CBA0DCA0EDA0FEA0A9A1BAA16D
:1015B000CD92DD92ED92FC9213976ACFCBD8681949
:1015C00079098A099B09693873418105910508F4F5
:1015D0005FCFF801EA57FB4F1082A9CF4130510588
:1015E00081F42E3F310519F482E090E0CDCF1182D5
:1015F0001082EB8DFC8D808181114ACFC8018CD97E
:1016000047CF4230510591F4AF85B8892D933C9373
:10161000E98DFA8D1182108283E090E0D1018D93E3
:101620009C93E989FA893183208332CF4330510575
:1016300071F4322F2227AF85B8898D919C91119733
:10164000280F391F2D933C9384E090E09DCF4430C8
:10165000510579F460E071E00E9472138F3F9105AB
:1016600029F485E090E09183808312CF118210826B
:101670000FCF4530510569F4AB89BC892D933C935C
:1016800086E090E091838083A989BA892D933C9369
:10169000FFCE46305105A1F4322F2227EB89FC8979
:1016A00080819181280F391F3183208387E090E06A
:1016B000D1018D939C93EF85F889808191815FCFD3
:1016C0004830510509F0E4CE1182108260E071E0EB
:1016D0000E9472138F3F910509F0DACEAB89BC8965
:1016E000ED91FC91309709F0DDC0C80115D986E372
:1016F00092E09A8389831C821B8284EB93E09E8311
:101700008D8398878F839A8789871B861C861D8681
:101710001E866801B8EECB1ABBEFDB0A7801E6EB58
:10172000EE1AEBEFFE0A412C22E0522E612C712CB6
:10173000D601ED91FC913097A9F1848195819C832C
:101740008B83808191819E838D8382819381DC0153
:10175000ED91FC910480F581E02D199598878F8398
:10176000D601ED91FC9182819381DC01ED91FC9198
:101770000680F781E02D19959A8789874B865C86CC
:101780006D867E86D601ED91FC9160857185D801CC
:10179000ED91FC910190F081E02DAE014F5F5F4F24
:1017A000C8011995B2E0CB0ED11CEC14FD0409F070
:1017B000BFCF412C92E0592E612C712CF701A081F2
:1017C000B1811097E1F112968D919C9113979C83B2
:1017D0008B8314968D919C9115979E838D83ED91AB
:1017E000FC9111970480F581E02DCD011995988722
:1017F0008F83D7018D919C91DC01ED91FC91068046
:10180000F781E02D19959A8789874B865C866D86CE
:101810007E86D801ED91FC91C080D180F701808156
:101820009181DC01ED91FC910280F381E02D19950D
:10183000AE014F5F5F4FBC01C801F6011995F2E0A0
:10184000EF0EF11CE214F30409F0B8CFF801EA57E7
:10185000FB4F81E08083319680829182A282B382A5
:10186000AD89BE898D929D92AD92BC9213978FEFF8
:101870009FEFA6960FB6F894DEBF0FBECDBFDF91E7
:10188000CF911F910F91FF90EF90DF90CF90BF907D
:10189000AF909F908F907F906F905F904F903F9010
:1018A0002F900895EA30F10509F09BC082E492E0A0
:1018B0009A8389831B821C821D821E821F82188646
:1018C00019861A860E94AA03F801C084D184E28492
:1018D000F3849B01AC012C193D094E095F09690194
:1018E0007A016F89788DCE01019633DAC701B6018E
:1018F00028EE33E040E050E008D769017A019B010F
:10190000AC018B819C81AD81BE818C0D9D1DAE1D76
:10191000BF1D8B839C83AD83BE8360E472E48FE044
:1019200090E0D1D6CF80D884E984FA84DC01CB0161
:101930008C0D9D1DAE1DBF1D8F839887A987BA870B
:101940000E94AA03CF80D884E984FA8436E3D31AAC
:1019500035E6E30A34ECF30A28EE33E040E050E0E9
:10196000D4D629013A019B01AC0160E472E48FE016
:1019700090E0A9D6A7019601261B370B480B590BFF
:10198000CA01B9012B813C814D815E812150310911
:101990004109510969017A01C418D508E608F70818
:1019A0002601370120E03AEC4AE95BE3AED6420E6D
:1019B000531E641E751ED8011C964D925D926D9249
:1019C0007C921F97F801608B718B828B938B0E94A6
:1019D000AA03AD89BE896D937D938D939C931397D4
:1019E00057CDE630F10551F46F89788D8D8D9E8D40
:1019F0004CDB81E0EF8DF8A180834ACDEB30F1051F
:101A000021F4AB8DBC8D1C9243CDEF53FE4FEE0FF6
:101A1000FF1FE00FF11F80819181009709F438CDFD
:101A2000DC01ED91FC910190F081E02D6F89788DC2
:101A300019952ECD4F925F926F927F928F929F92C7
:101A4000AF92BF92CF92DF92EF92FF920F931F93CC
:101A5000CF93DF93EC017B018A81FB0180838B8133
:101A600081838C8182838D8183833496412C512C98
:101A7000320104E010E09F012F5F3F4FCF0102963B
:101A8000DF011396A8010C5F1F4F8A809B80AC80FA
:101A9000BD80481459046A047B04C8F4AA85BB8538
:101AA000A40FB51F14974C9111962C911197129673
:101AB0009C91129713968C91408321839283838308
:101AC0008FEF481A580A680A780A3496D4CF4C85A2
:101AD00040834D85F90140832E85FC0120838F854D
:101AE0008C93F701E00FF11F412C512C3201AF0113
:101AF0009F012F5F3F4FCF010296DF0113960C5FCE
:101B00001F4F8C849D84AE84BF84481459046A049A
:101B10007B04D8F4CF01841B950BAC89BD89A80F39
:101B2000B91F3C9111962C91119712969C91129786
:101B300013968C9130832183928383838FEF481A8D
:101B4000580A680A780A3496D3CF4E8940834F8961
:101B5000F9014083288DFC012083898D8C93412CD1
:101B6000512C32018E899F89A88DB98D481659064E
:101B70006A067B0678F55201AA0CBB1CEC8DFD8D24
:101B8000EA0DFB1DA081B181FD0101900020E9F764
:101B900031976F01CA1ADB0AA60170E060E0C70145
:101BA000800F911F0E94F2040C5F1F4F8C8D9D8D42
:101BB000A80EB91EF50160817181A601C701800FD1
:101BC000911FE2D70C0D1D1DFFEF4F1A5F0A6F0A20
:101BD0007F0AC8CFC801DF91CF911F910F91FF906D
:101BE000EF90DF90CF90BF90AF909F908F907F90BD
:101BF0006F905F904F900895EF92FF920F931F9315
:101C0000CF93DF938C017B01DC0112962C9112970C
:101C1000FB012193CF011396ED91FC91EF01099007
:101C20000020E9F72197CE1BDF0BAE0170E060E0EA
:101C30000E94F204D80113966D917C91AE01C70108
:101C40000596A2D7CE010596DF91CF911F910F91F6
:101C5000FF90EF900895CF92DF92EF92FF920F9353
:101C60001F93CF93DF936C01EB01DC0112968C91F3
:101C70001297888313968C91139789831496ED910C
:101C8000FC91DF010D900020E9F78D010150110951
:101C90000E1B1F0BA80170E060E0CE0102960E94AF
:101CA000F204F60164817581A801CE0106966CD715
:101CB000C8010696F601A681B781FD0101900020BA
:101CC000E9F731977F01EA1AFB0AA70170E060E0AB
:101CD0008C0F9D1F0E94F204065F1F4FD6011696BF
:101CE0006D917C91A701CE01800F911F4DD70E0DF4
:101CF0001F1DF601A085B185FD0101900020E9F7C7
:101D000031977F01EA1AFB0AA70170E060E0CE017B
:101D1000800F911F0E94F2040C5F1F4FD60118968E
:101D20006D917C91A701CE01800F911F2DD7C70126
:101D3000800F911FF6016285438534852585C80F84
:101D4000D91F688349833A832B830496DF91CF910F
:101D50001F910F91FF90EF90DF90CF9008951F9209
:101D60000F920FB60F9211240BB60F922F933F9341
:101D70004F935F936F937F938F939F93AF93BF9393
:101D8000EF93FF938FE294E00E949D02FF91EF9109
:101D9000BF91AF919F918F917F916F915F914F9183
:101DA0003F912F910F900BBE0F900FBE0F901F9081
:101DB00018951F920F920FB60F9211240BB60F9227
:101DC0002F938F939F93EF93FF93E0913F04F091B4
:101DD00040048081E0914504F091460482FD1DC0DD
:101DE0009081809148048F5F8F73209149048217FE
:101DF00041F0E0914804F0E0E15DFB4F958F809366
:101E00004804FF91EF919F918F912F910F900BBEFE
:101E10000F900FBE0F901F9018958081F2CF1F92E8
:101E20000F920FB60F9211240BB60F922F933F9380
:101E30004F935F936F937F938F939F93AF93BF93D2
:101E4000EF93FF938CEC94E00E949D02FF91EF9141
:101E5000BF91AF919F918F917F916F915F914F91C2
:101E60003F912F910F900BBE0F900FBE0F901F90C0
:101E700018951F920F920FB60F9211240BB60F9266
:101E80002F938F939F93EF93FF93E091DC04F09156
:101E9000DD048081E091E204F091E30482FD1DC045
:101EA00090818091E5048F5F8F732091E604821703
:101EB00041F0E091E504F0E0E453FB4F958F80930F
:101EC000E504FF91EF919F918F912F910F900BBEA1
:101ED0000F900FBE0F901F9018958081F2CF1F9228
:101EE0000F920FB60F9211242F933F938F939F93CE
:101EF000AF93BF938091270490912804A091290467
:101F0000B0912A043091260423E0230F2D3758F591
:101F10000196A11DB11D2093260480932704909360
:101F20002804A0932904B0932A0480912B04909153
:101F30002C04A0912D04B0912E040196A11DB11D79
:101F400080932B0490932C04A0932D04B0932E0423
:101F5000BF91AF919F918F913F912F910F900FBEA5
:101F60000F901F90189526E8230F0296A11DB11D12
:101F7000D2CF109232041092310448EE53E060E068
:101F800070E04093330450933404609335047093AD
:101F900036048AE592E09093300480932F0425E381
:101FA00031E030933C0420933B0424E331E0309350
:101FB0003E0420933D0420E331E03093400420931D
:101FC0003F0421E331E0309342042093410422E3B3
:101FD00031E0309344042093430426E331E030930E
:101FE000460420934504109248041092490410922C
:101FF0004A0410924B041092CF041092CE044093E6
:10200000D0045093D1046093D2047093D30490937E
:10201000CD048093CC048DEC90E09093D904809310
:10202000D8048CEC90E09093DB048093DA0488EC85
:1020300090E09093DD048093DC0489EC90E0909331
:10204000DF048093DE048AEC90E09093E1048093B7
:10205000E0048EEC90E09093E3048093E20410920D
:10206000E5041092E6041092E7041092E80410923E
:102070002A0A1092290A10922C0A10922B0A109206
:102080002E0A10922D0A70E060E089E29AE00E9428
:1020900098072091290A30912A0A811199C02115A7
:1020A000310511F0C9010BD410922A0A1092290AA5
:1020B00010922E0A10922D0A10922C0A10922B0ABE
:1020C00088E792E090937805809377058CEC94E014
:1020D00090937A058093790580E092ECA1E0B0E0DE
:1020E00080937B0590937C05A0937D05B0937E053E
:1020F0001092FD098CE692E090930C0A80930B0AF3
:102100001092210A1092220A1092230A1092240A95
:102110001092280A1092270AEFE8F9E01192119222
:1021200089E0E13CF807D1F7E1ECF9E01192119276
:1021300089E0E33FF807D1F7EFE8F5E08FE897E0B3
:1021400011928E179F07E1F7EFE8F7E0119289E00F
:10215000EF38F807D9F710920D0A10920E0A109274
:102160000F0A1092100A1092160A1092150A109275
:10217000170A1092180A1092190A10921A0A10924D
:10218000200A10921F0A10928B0510928C05109253
:102190008D0510928E0582E892E0909374058093ED
:1021A000730584EB93E0909376058093750585EB3A
:1021B00093E090936A058093690583E795E0909397
:1021C0006C0580936B05109272051092710508954D
:1021D00010922E0A10922D0A64EB73E0C901DDD42F
:1021E0006FCFCF93DF93CDB7DEB760970FB6F8947C
:1021F000DEBF0FBECDBF789484B5826084BD84B548
:10220000816084BD85B5826085BD85B5816085BDF1
:1022100080916E00816080936E00109281008091A9
:102220008100826080938100809181008160809331
:102230008100809180008160809380008091B10056
:1022400084608093B1008091B00081608093B00081
:1022500080919100826080939100809191008160D3
:102260008093910080919000816080939000809194
:10227000A10082608093A1008091A1008160809381
:10228000A1008091A00081608093A0008091210135
:1022900082608093210180912101816080932101DE
:1022A0008091200181608093200180917A00846078
:1022B00080937A0080917A00826080937A00809186
:1022C0007A00816080937A0080917A0080688093A0
:1022D0007A001092C10040917B0550917C0560917D
:1022E0007D0570917E058091790590917A050E9417
:1022F00029011092F4091092F3091092F609109234
:10230000F5091092FA091092F9091092F809109241
:10231000F709EFE8F9E090E080E021913191232B7B
:1023200009F0AEC1FC01EE0FFF1FE157F64F29E6A1
:1023300035E03183208383589F4F90936E058093BF
:102340006D0587E795E09093700580936F05E6E84B
:10235000F1E02491E0E4F1E08491882399F090E0A9
:10236000880F991FFC01EC51FF4FA591B491FC011E
:10237000E250FF4F859194918FB7F894EC91E22B46
:10238000EC938FBF40E855E260E070E08FE294E0AC
:102390000E9429016DEB73E08CEC94E00E943B07F6
:1023A00080E00E94980164EF71E080E090E00E947C
:1023B0007A0360ED73E08FE294E00E943B0760EDEA
:1023C00073E08CEC94E00E943B0768EE73E080E0E1
:1023D00090E00E947A038FE294E00E947F02181638
:1023E000190674F4CE0101960E94C007CE01019631
:1023F0000E945307CE0101960E9490070E94180781
:1024000083ED93E090937605809375050E94890192
:1024100087E795E00E94C70964EF71E080E090E0F3
:102420000E947A0369ED73E08FE294E00E943B071B
:1024300069ED73E08CEC94E00E943B0768EE73E07A
:1024400080E090E00E947A038FE294E00E947F0295
:102450001816190674F4CE0101960E94C007CE0129
:1024600001960E945307CE0101960E9490070E9498
:1024700018078EED93E090937605809375050E9482
:10248000890187E795E00E94C70964EF71E080E069
:1024900090E00E947A0365EE73E08FE294E00E9480
:1024A0003B0765EE73E08CEC94E00E943B0768EE1E
:1024B00073E080E090E00E947A038FE294E00E9453
:1024C0007F021816190674F4CE0101960E94C00707
:1024D000CE0101960E945307CE0101960E949007FB
:1024E0000E94180780EF93E090937605809375051E
:1024F0000E94890187E795E00E94C70964EF71E0B7
:1025000080E090E00E947A0367EF73E08FE294E04E
:102510000E943B0767EF73E08CEC94E00E943B075E
:1025200068EE73E080E090E00E947A038FE294E02E
:102530000E947F021816190674F4CE0101960E94BB
:10254000C007CE0101960E945307CE0101960E945A
:1025500090070E9418078DEF93E090937605809383
:1025600075050E94890187E795E00E94C70964EF1D
:1025700071E080E090E00E947A0364E074E08FE212
:1025800094E00E943B0764E074E08CEC94E00E94CD
:102590003B0768EE73E080E090E00E947A038FE2F0
:1025A00094E00E947F021816190674F4CE01019679
:1025B0000E94C007CE0101960E945307CE010196EA
:1025C0000E9490070E9418078CE094E09093760593
:1025D000809375050E94890187E795E00E94C709ED
:1025E00064EF71E080E090E00E947A0363E174E0C0
:1025F0008CEC94E00E943B0781E00E9498018FE1FF
:1026000094E090937605809375050E94890187E791
:1026100095E00E94C70982E2C82E84E0D82E7E0190
:1026200081E1E80EF11C80E1E6E0F2E0DE011196C6
:1026300001900D928A95E1F7D0927605C0927505CA
:102640000E94890187E795E00E94C7098E010F5F0C
:102650001F4FF80161918F018FE294E00E94BF0249
:102660000E151F05B1F70E942C070E942C0768E881
:1026700073E180E090E00E947A030E942A03D3CFA6
:1026800001968931910509F048CE61CE89E29AE040
:102690000C94900709D0A59F900DB49F900DA49F16
:1026A000800D911D11240895A29FB001B39FC00118
:1026B000A39F700D811D1124911DB29F700D811D6E
:1026C0001124911D0895DB018F939F93E3DFBF9148
:1026D000AF91A29F800D911DA39F900DB29F900D71
:1026E0001124089597FB072E16F4009406D077FD69
:1026F00008D035D007FC05D03EF4909581959F4FCA
:102700000895709561957F4F0895A1E21A2EAA1B36
:10271000BB1BFD010DC0AA1FBB1FEE1FFF1FA21791
:10272000B307E407F50720F0A21BB30BE40BF50B8E
:10273000661F771F881F991F1A9469F76095709517
:10274000809590959B01AC01BD01CF010895EE0FDE
:10275000FF1F881F8BBF0790F691E02D1994AA1BCD
:10276000BB1B51E107C0AA1FBB1FA617B70710F07C
:10277000A61BB70B881F991F5A95A9F780959095AE
:10278000BC01CD0108950F931F93CF93DF93823047
:10279000910510F482E090E0E091310AF091320A64
:1027A00030E020E0B0E0A0E0309799F42115310549
:1027B00009F44AC0281B390B24303105D8F58A8129
:1027C0009B816115710589F1FB0193838283FE0171
:1027D00011C0408151810281138148175907E0F0EF
:1027E0004817590799F4109761F012960C931297B5
:1027F00013961C933296CF01DF91CF911F910F91C9
:1028000008950093310A1093320AF4CF211531054F
:1028100051F04217530738F0A901DB019A01BD01BD
:10282000DF01F801C1CFEF01F9CF9093320A809315
:10283000310ACDCFFE01E20FF31F81939193225015
:10284000310939832883D7CF20912F0A3091300A5C
:10285000232B41F420910202309103023093300A7D
:1028600020932F0A20910002309101022115310599
:1028700041F42DB73EB74091040250910502241B4C
:10288000350BE0912F0AF091300AE217F307A0F41C
:102890002E1B3F0B2817390778F0AC014E5F5F4FB6
:1028A0002417350748F04E0F5F1F5093300A4093AE
:1028B0002F0A819391939FCFF0E0E0E09CCFCF93DC
:1028C000DF930097E9F0FC01329713821282A09106
:1028D000310AB091320AED0130E020E01097A1F406
:1028E00020813181820F931F20912F0A3091300A6D
:1028F0002817390709F061C0F093300AE0932F0AD6
:10290000DF91CF910895EA01CE17DF07E8F54A81FC
:102910005B819E0141155105B1F7E901FB83EA8313
:1029200049915991C40FD51FEC17FD0761F48081BF
:1029300091810296840F951FE90199838883828192
:1029400093819B838A83F0E0E0E012968D919C91C5
:1029500013970097B9F52D913C911197CD010296EF
:10296000820F931F20912F0A3091300A28173907C0
:1029700039F6309751F51092320A1092310AB0931D
:10298000300AA0932F0ABCCFD383C28340815181E8
:10299000840F951FC817D90761F44E5F5F4F888178
:1029A0009981480F591F518340838A819B8193836A
:1029B00082832115310509F0B0CFF093320AE093FC
:1029C000310A9ECFFD01DC01C0CF13821282D7CF26
:1029D0004F925F926F927F928F929F92AF92BF922F
:1029E000CF92DF92EF92FF920F931F93CF93DF93DB
:1029F0008C01009791F4CB01DF91CF911F910F9142
:102A0000FF90EF90DF90CF90BF90AF909F908F900E
:102A10007F906F905F904F90B6CEFC01E60FF71F4E
:102A20009C0122503109E217F30708F4AAC0D9012A
:102A3000CD91DC911197C617D70718F1C530D10594
:102A400070F0CE0104978617970748F0C61BD70B86
:102A50002297C193D1936D937C93CF0130DFC8014E
:102A6000DF91CF911F910F91FF90EF90DF90CF906A
:102A7000BF90AF909F908F907F906F905F904F909E
:102A800008955B01AC1ABD0A4C018C0E9D1EA091ED
:102A9000310AB091320A512C412CF12CE12C1097C3
:102AA00031F580912F0A9091300A8815990509F027
:102AB0005CC04616570608F058C0809100029091FD
:102AC0000102009741F48DB79EB7409104025091E6
:102AD0000502841B950BE817F90708F052C0F09324
:102AE000300AE0932F0AF90171836083B8CF8D918A
:102AF0009C91119712966C90129713967C90139755
:102B0000A815B90559F56C0142E0C40ED11CCA14D0
:102B1000DB0420F1AC014A195B09DA011296159722
:102B200080F06282738251834083D9016D937C93DC
:102B3000E114F10471F0D7011396FC93EE93129710
:102B40008ECF22968C0F9D1FF90191838083F30114
:102B5000EFCFF093320AE093310A81CF481659063D
:102B600008F42C017D01D3019ACFCB010CDE7C014E
:102B7000009739F0AE01B80107D0C801A0DE870187
:102B80006ECF10E000E06BCFFB01DC0102C00190D2
:102B90000D9241505040D8F70895FB01DC0101909F
:102BA0000D920020E1F7089510E0C6EFD0E000E0BC
:102BB00005C0802FFE01CBDD2196011DC73FD10747
:0A2BC00080E00807B1F7F894FFCF9A
:102BCA000000330A8000AAFA0314010375CAAAFA9C
:102BDA000314010375CA726F7373657269616C5F5E
:102BEA006D7367732F526571756573745061726185
:102BFA006D00000000002B0EB505B205AF05000000
:102C0A000000EF06A906A606A30600000000FC0DB8
:102C1A005A055705540500000000BF0221024E0262
:102C2A000B037F025D027102000000001A0D4508C5
:102C3A0051054E0500000000EA03C709E50300003C
:102C4A0000001C08FE04FB04F8044D6573736167F9
:102C5A00652066726F6D20646576696365206472AB
:102C6A006F707065643A206D657373616765206C77
:102C7A006172676572207468616E20627566666546
:102C8A00722E0039393263653861313638376365F7
:102C9A006338633862643838336563373363613461
:102CAA00316431007374645F6D7367732F53747288
:102CBA00696E67003966306539386264613635395C
:102CCA003831393836646466353361666137613460
:102CDA0030653439003131616264373331633235FA
:102CEA0039333332363163643631383362643132E0
:102CFA00643632393500726F7373657269616C5F5D
:102D0A006D7367732F4C6F670030616435316638B5
:102D1A003866633434383932663863313036383499
:102D2A0030373736343630303500726F7373657228
:102D3A0069616C5F6D7367732F546F706963496E55
:102D4A00666F00636437313636633734633535323C
:102D5A006333313166626363326665356137626354
:102D6A00323839007374645F6D7367732F54696DF9
:102D7A0065000D0A006368617474657200537461BA
:102D8A0072742048432D313220436F6E66696700A2
:102D9A0041540073746570310041542B56007374AA
:102DAA0065705F320041542B44454641554C5400EE
:102DBA00737465705F330041542B50380073746527
:102DCA00705F340041542B433033300073746570A4
:102DDA005F3500536176652026204578697400477F
:062DEA004F006F6B0000BA
:00000001FF
